:020000040800F2
:10000000000002200D6A0008692C00086B2C000813
:100010006D2C00086F2C0008712C000800000000F7
:10002000000000000000000000000000732C000829
:10003000752C000800000000772C0008792C0008BF
:100040005D6A00085D6A00085D6A00085D6A000874
:100050005D6A00085D6A00085D6A00085D6A000864
:100060005D6A00085D6A00085D6A00085D6A000854
:100070005D6A00085D6A00085D6A00085D6A000844
:100080005D6A00085D6A00085D6A00080000000003
:100090000000000000000000000000005D6A000891
:1000A0005D6A0008812C00085D6A00085D6A00082E
:1000B0005D6A00085D6A00085D6A00085D6A000804
:1000C0005D6A00085D6A00085D6A00085D6A0008F4
:1000D0005D6A00085D6A00085D6A000800000000B3
:1000E0005D6A00085D6A00085D6A000800000000A3
:1000F0000000000000000000000000005D6A000831
:10010000000000005D6A00085D6A00085D6A000882
:1001100000000000000000000000000000000000DF
:10012000912C00085D6A00085D6A00085D6A00089D
:100130005D6A0008000000000000000000000000F0
:100140000000000000000000000000005D6A0008E0
:100150005D6A00085D6A00085D6A00085D6A000863
:100160005D6A00085D6A00080000000000000000F1
:10017000000000000000000000000000000000007F
:10018000000000005D6A00080000000000000000A0
:080190005D6A00085D6A0008C9
:1001C00010B5054C237833B9044B13B10448AFF391
:1001D00000800123237010BDB8090020000000003A
:1001E000E8C8000808B5034B1BB103490348AFF347
:1001F000008008BD00000000BC090020E8C800081D
:1002000081F0004102E000BF83F0004330B54FEAC7
:1002100041044FEA430594EA050F08BF90EA020F34
:100220001FBF54EA000C55EA020C7FEA645C7FEAC7
:10023000655C00F0E2804FEA5454D4EB5555B8BFEA
:100240006D420CDD2C4480EA020281EA030382EA5B
:10025000000083EA010180EA020281EA0303362DED
:1002600088BF30BD11F0004F4FEA01314FF4801CC0
:100270004CEA113102D0404261EB410113F0004FD2
:100280004FEA03334CEA133302D0524263EB430389
:1002900094EA050F00F0A780A4F10104D5F1200E27
:1002A0000DDB02FA0EFC22FA05F2801841F1000182
:1002B00003FA0EF2801843FA05F359410EE0A5F156
:1002C00020050EF1200E012A03FA0EFC28BF4CF087
:1002D000020C43FA05F3C01851EBE37101F000453D
:1002E00007D54FF0000EDCF1000C7EEB00006EEB4A
:1002F0000101B1F5801F1BD3B1F5001F0CD34908D4
:100300005FEA30004FEA3C0C04F101044FEA44522A
:1003100012F5800F80F09A80BCF1004F08BF5FEAB1
:10032000500C50F1000041EB045141EA050130BD91
:100330005FEA4C0C404141EB0101013C28BFB1F5A3
:10034000801FE9D291F0000F04BF01460020B1FAEE
:1003500081F308BF2033A3F10B03B3F120020CDAC1
:100360000C3208DD02F1140CC2F10C0201FA0CF09F
:1003700021FA02F10CE002F11402D8BFC2F1200C04
:1003800001FA02F120FA0CFCDCBF41EA0C019040BA
:10039000E41AA2BF01EB0451294330BD6FEA040403
:1003A0001F3C1CDA0C340EDC04F11404C4F12002EE
:1003B00020FA04F001FA02F340EA030021FA04F300
:1003C00045EA030130BDC4F10C04C4F1200220FA57
:1003D00002F001FA04F340EA0300294630BD21FA95
:1003E00004F0294630BD94F0000F83F4801306BF5B
:1003F00081F480110134013D4EE77FEA645C18BF4F
:100400007FEA655C29D094EA050F08BF90EA020FE5
:1004100005D054EA000C04BF1946104630BD91EADD
:10042000030F1EBF0021002030BD5FEA545C05D1E0
:100430004000494128BF41F0004130BD14F580041F
:100440003CBF01F5801130BD01F0004545F0FE4193
:1004500041F470014FF0000030BD7FEA645C1ABFC8
:10046000194610467FEA655C1CBF0B46024650EAFF
:10047000013406BF52EA033591EA030F41F400212B
:1004800030BD00BF90F0000F04BF0021704730B5B1
:100490004FF4806404F132044FF000054FF0000186
:1004A00050E700BF90F0000F04BF0021704730B547
:1004B0004FF4806404F1320410F0004548BF40421C
:1004C0004FF000013EE700BF42004FEAE2014FEA71
:1004D00031014FEA02701FBF12F07F4393F07F4F4C
:1004E00081F06051704732F07F4208BF704793F04F
:1004F0007F4F04BF41F40021704730B54FF4607462
:1005000001F0004521F000411CE700BF50EA010264
:1005100008BF704730B54FF000050AE050EA01020D
:1005200008BF704730B511F0004502D5404261EB7D
:1005300041014FF4806404F132045FEA915C3FF4BE
:10054000D8AE4FF003025FEADC0C18BF03325FEA5B
:10055000DC0C18BF033202EBDC02C2F1200300FA0C
:1005600003FC20FA02F001FA03FE40EA0E0021FA31
:1005700002F11444BDE600BF4FF0FF3C06E000BFAF
:100580004FF0010C02E000BF4FF0010C4DF804CD1C
:100590004FEA410C7FEA6C5C4FEA430C18BF7FEADC
:1005A0006C5C1BD001B050EA410C0CBF52EA430C0A
:1005B00091EA030F02BF90EA020F0020704710F18A
:1005C000000F91EA030F58BF994208BF90422CBF19
:1005D000D8176FEAE37040F0010070474FEA410C12
:1005E0007FEA6C5C02D150EA013C07D14FEA430C30
:1005F0007FEA6C5CD6D152EA033CD3D05DF8040BA1
:10060000704700BF8446104662468C4619466346D2
:1006100000E000BF01B5FFF7B7FF002848BF10F1A9
:10062000000F01BD4DF808EDFFF7F4FF0CBF0120EE
:1006300000205DF808FB00BF4DF808EDFFF7EAFF6A
:1006400034BF012000205DF808FB00BF4DF808ED25
:10065000FFF7E0FF94BF012000205DF808FB00BF1A
:100660004DF808EDFFF7CEFF94BF012000205DF8A4
:1006700008FB00BF4DF808EDFFF7C4FF34BF0120B1
:1006800000205DF808FB00BF80F0004002E000BFE2
:1006900081F0004142001FBF5FEA410392EA030F6D
:1006A0007FEA226C7FEA236C6AD04FEA1262D2EBB7
:1006B0001363C1BFD218414048404140B8BF5B42BC
:1006C000192B88BF704710F0004F40F4000020F055
:1006D0007F4018BF404211F0004F41F4000121F06B
:1006E0007F4118BF494292EA030F3FD0A2F10102B5
:1006F00041FA03FC10EB0C00C3F1200301FA03F1F3
:1007000000F0004302D5494260EB4000B0F5000F15
:1007100013D3B0F1807F06D340084FEA310102F1D4
:100720000102FE2A51D2B1F1004F40EBC25008BF86
:1007300020F0010040EA03007047490040EB000050
:10074000013A28BFB0F5000FEDD2B0FA80FCACF151
:10075000080CB2EB0C0200FA0CF0AABF00EBC2507E
:1007600052421843BCBFD0401843704792F0000F6C
:1007700081F4000106BF80F400000132013BB5E7BF
:100780004FEA41037FEA226C18BF7FEA236C21D035
:1007900092EA030F04D092F0000F08BF084670479A
:1007A00090EA010F1CBF0020704712F07F4F04D168
:1007B000400028BF40F00040704712F100723CBF7B
:1007C00000F50000704700F0004343F0FE4040F4A5
:1007D000000070477FEA226216BF08467FEA236363
:1007E0000146420206BF5FEA412390EA010F40F44E
:1007F000800070474FF0000304E000BF10F000439A
:1008000048BF40425FEA000C08BF704743F0964380
:1008100001464FF000001CE050EA010208BF70479B
:100820004FF000030AE000BF50EA010208BF704722
:1008300011F0004302D5404261EB41015FEA010C37
:1008400002BF84460146002043F0B64308BFA3F12F
:100850008053A3F50003BCFA8CF2083AA3EBC25311
:1008600010DB01FA02FC634400FA02FCC2F1200230
:10087000BCF1004F20FA02F243EB020008BF20F067
:100880000100704702F1200201FA02FCC2F12002CD
:1008900050EA4C0021FA02F243EB020008BF20EAC2
:1008A000DC7070474FF0FF0C1CEAD0521EBF1CEAF0
:1008B000D15392EA0C0F93EA0C0F6FD01A4480EADE
:1008C000010C400218BF5FEA41211ED04FF00063C7
:1008D00043EA501043EA5111A0FB01310CF00040F3
:1008E000B1F5000F3EBF490041EAD3715B0040EA19
:1008F000010062F17F02FD2A1DD8B3F1004F40EBE9
:10090000C25008BF20F00100704790F0000F0CF0BB
:10091000004C08BF49024CEA502040EA51207F3A7F
:10092000C2BFD2F1FF0340EAC250704740F400005A
:100930004FF00003013A5DDC12F1190FDCBF00F04B
:1009400000407047C2F10002410021FA02F1C2F1F9
:10095000200200FA02FC5FEA310040F1000053EA95
:100960004C0308BF20EADC70704792F0000F00F0E3
:10097000004C02BF400010F4000F013AF9D040EAE9
:100980000C0093F0000F01F0004C02BF490011F47D
:10099000000F013BF9D041EA0C018FE70CEAD1537B
:1009A00092EA0C0F18BF93EA0C0F0AD030F0004CFB
:1009B00018BF31F0004CD8D180EA010000F00040AF
:1009C000704790F0000F17BF90F0004F084691F06D
:1009D000000F91F0004F14D092EA0C0F01D14202A7
:1009E0000FD193EA0C0F03D14B0218BF084608D170
:1009F00080EA010000F0004040F0FE4040F40000BA
:100A0000704740F0FE4040F4400070474FF0FF0C4C
:100A10001CEAD0521EBF1CEAD15392EA0C0F93EA93
:100A20000C0F69D0A2EB030280EA010C49024FEAE5
:100A3000402037D04FF0805343EA111143EA10139E
:100A40000CF000408B4238BF5B0042F17D024FF456
:100A5000000C8B4224BF5B1A40EA0C00B3EB510F31
:100A600024BFA3EB510340EA5C00B3EB910F24BF1A
:100A7000A3EB910340EA9C00B3EBD10F24BFA3EB9F
:100A8000D10340EADC001B0118BF5FEA1C1CE0D167
:100A9000FD2A3FF650AF8B4240EBC25008BF20F01A
:100AA000010070470CF0004C4CEA50207F32C2BF6E
:100AB000D2F1FF0340EAC250704740F400004FF00B
:100AC0000003013A37E792F0000F00F0004C02BF3C
:100AD000400010F4000F013AF9D040EA0C0093F006
:100AE000000F01F0004C02BF490011F4000F013B60
:100AF000F9D041EA0C0195E70CEAD15392EA0C0FC8
:100B000008D142027FF47DAF93EA0C0F7FF470AFFF
:100B1000084676E793EA0C0F04D14B023FF44CAF42
:100B200008466EE730F0004C18BF31F0004CCAD1D7
:100B300030F000427FF45CAF31F000437FF43CAF13
:100B40005FE700BF4FF0FF3C06E000BF4FF0010C35
:100B500002E000BF4FF0010C4DF804CD4FEA400217
:100B60004FEA41037FEA226C18BF7FEA236C11D061
:100B700001B052EA530C18BF90EA010F58BFB2EB14
:100B8000030088BFC81738BF6FEAE17018BF40F094
:100B9000010070477FEA226C02D15FEA402C05D148
:100BA0007FEA236CE4D15FEA412CE1D05DF8040BCD
:100BB000704700BF844608466146FFE70FB5FFF760
:100BC000C9FF002848BF10F1000F0FBD4DF808ED18
:100BD000FFF7F4FF0CBF012000205DF808FB00BF09
:100BE0004DF808EDFFF7EAFF34BF012000205DF863
:100BF00008FB00BF4DF808EDFFF7E0FF94BF0120B0
:100C000000205DF808FB00BF4DF808EDFFF7D2FFAC
:100C100094BF012000205DF808FB00BF4DF808EDEF
:100C2000FFF7C8FF34BF012000205DF808FB00BFBC
:100C300053B94AB9002908BF00281CBF4FF0FF3143
:100C40004FF0FF3000F06CB9ADF1080C6DE904CE47
:100C500000F006F8DDF804E0DDE9022304B0704797
:100C60002DE9F047089E0D4604468E46002B40F0C5
:100C700082808A42174646D9B2FA82F24AB1C2F15C
:100C8000200105FA02F320FA01F1974041EA030E30
:100C900094404FEA1748230CBEFBF8FCB9B208FB9E
:100CA0001CEE43EA0E430CFB01F098420AD9FB18F4
:100CB0000CF1FF3580F01681984240F21381ACF1BF
:100CC000020C3B441B1AA4B2B3FBF8F008FB103330
:100CD00044EA034400FB01F1A14209D93C1900F1A7
:100CE000FF3380F00181A14240F2FE8002383C4493
:100CF000641A40EA0C4000211EB1D4400023C6E92A
:100D00000043BDE8F08702B9FFDEB2FA82F2002AA2
:100D10004FD1CB1B4FEA174E1FFA87F80121B3FBC7
:100D2000FEFC250C0EFB1C3345EA034508FB0CF3C7
:100D3000AB4207D97D190CF1FF3002D2AB4200F271
:100D4000E7808446ED1AA3B2B5FBFEF00EFB10550A
:100D500043EA054408FB00F8A04507D93C1900F117
:100D6000FF3302D2A04500F2D7801846A4EB080456
:100D700040EA0C40C0E78B4208D9002E00F0AF805B
:100D80000021C6E900050846BDE8F087B3FA83F103
:100D900000294BD1AB4202D3824200F2B780841AC1
:100DA00065EB030301209E46002EAAD0C6E9004E43
:100DB000A7E7C2F1200C01FA02F3974020FA0CF0E9
:100DC0004FEA174E21FA0CFC1843BCFBFEF1050C50
:100DD0000EFB11CC1FFA87F845EA0C4501FB08F31E
:100DE000AB4204FA02F409D97D1901F1FF3C80F00D
:100DF0008B80AB4240F2888002393D44EB1A85B2C9
:100E0000B3FBFEF00EFB103345EA034500FB08F38D
:100E1000AB4207D97D1900F1FF3C71D2AB426FD9CB
:100E200002383D44EB1A40EA014178E7C1F1200C59
:100E30008B4022FA0CF71F4320FA0CF405FA01F359
:100E40004FEA174E25FA0CF51C43230CB5FBFEF9AF
:100E50001FFA87F80EFB195543EA054509FB08FA06
:100E6000AA4502FA01F200FA01F308D97D1909F145
:100E7000FF3047D2AA4545D9A9F102093D44A5EB67
:100E80000A05A4B2B5FBFEF00EFB105544EA05447A
:100E900000FB08F8A04507D93C1900F1FF352DD219
:100EA000A0452BD902383C4440EA0940A4EB080491
:100EB000A0FB02894C45C6464D4619D316D05EB1FB
:100EC000B3EB0E0264EB050404FA0CFCCA404CEAD6
:100ED0000202CC40C6E900240021BDE8F08731467B
:100EE00030460EE7AC46EDE6184601E74345E6D24C
:100EF000B8EB020E69EB07050138E0E72846D3E7B7
:100F000060468FE78146BAE7614677E708464BE7D8
:100F1000ACF1020C3D4415E702383C4426E700BF23
:100F2000704700BF0000000000000000000000004B
:100F300001F0FF01102A2BDB10F0070F08D010F88A
:100F4000013B013A8B422DD010F0070F42B3F6D18E
:100F5000F0B441EA012141EA014122F007047FF0A7
:100F600000070023F0E80256083C85EA010586EAFE
:100F7000010685FA47F5A3FA87F586FA47F6A5FA3A
:100F800087F68EB9EED1F0BC01F0FF0102F0070246
:100F900032B110F8013B013A83EA010313B1F8D1F1
:100FA0000020704701387047002D06BF35460338D2
:100FB000073815F0010F07D1013015F4807F02BF0B
:100FC000013015F4C03F0130F0BC0138704700BF5C
:100FD000844641EA000313F003036DD1403A41D344
:100FE00051F8043B40F8043B51F8043B40F8043B03
:100FF00051F8043B40F8043B51F8043B40F8043BF3
:1010000051F8043B40F8043B51F8043B40F8043BE2
:1010100051F8043B40F8043B51F8043B40F8043BD2
:1010200051F8043B40F8043B51F8043B40F8043BC2
:1010300051F8043B40F8043B51F8043B40F8043BB2
:1010400051F8043B40F8043B51F8043B40F8043BA2
:1010500051F8043B40F8043B51F8043B40F8043B92
:10106000403ABDD2303211D351F8043B40F8043B32
:1010700051F8043B40F8043B51F8043B40F8043B72
:1010800051F8043B40F8043B103AEDD20C3205D342
:1010900051F8043B40F8043B043AF9D2043208D03A
:1010A000D2071CBF11F8013B00F8013B01D30B88AC
:1010B00003806046704700BF082A13D38B078DD08A
:1010C00010F003038AD0C3F10403D21ADB071CBF5C
:1010D00011F8013B00F8013B80D331F8023B20F8C6
:1010E000023B7BE7043AD9D3013A11F8013B00F8FF
:1010F000013BF9D20B7803704B7843708B78837087
:101100006046704700000000000000000000000082
:1011100000000000000000000000000000000000CF
:1011200000000000000000000000000000000000BF
:1011300000000000000000000000000000000000AF
:1011400090F800F06DE9024520F007016FF0000C07
:1011500010F0070491F820F040F049804FF00004AF
:101160006FF00700D1E9002391F840F000F108008A
:1011700082FA4CF2A4FA8CF283FA4CF3A2FA8CF3C2
:101180004BBBD1E9022382FA4CF200F10800A4FA29
:101190008CF283FA4CF3A2FA8CF3E3B9D1E904237D
:1011A00082FA4CF200F10800A4FA8CF283FA4CF3B4
:1011B000A2FA8CF37BB9D1E9062301F1200182FA6E
:1011C0004CF200F10800A4FA8CF283FA4CF3A2FA74
:1011D0008CF3002BC6D0002A04BF04301A4612BA82
:1011E000B2FA82F2FDE8024500EBD2007047D1E985
:1011F000002304F00305C4F100004FEAC50514F014
:10120000040F91F840F00CFA05F562EA05021CBFE4
:1012100063EA050362464FF00004A9E770B54FF09A
:10122000FF0C4CF4E06C1CEA11541DBF1CEA135572
:1012300094EA0C0F95EA0C0F00F0DEF82C4481EADA
:10124000030621EA4C5123EA4C5350EA013518BFFA
:1012500052EA033541F4801143F4801338D0A0FBE7
:1012600002CE4FF00005E1FB02E506F00042E0FB94
:1012700003E54FF00006E1FB03569CF0000F18BF9A
:101280004EF0010EA4F1FF04B6F5007F64F5407442
:1012900004D25FEA4E0E6D4146EB060642EAC621D5
:1012A00041EA55514FEAC52040EA5E504FEACE2E42
:1012B000B4F1FD0C88BFBCF5E06F1ED8BEF1004F45
:1012C00008BF5FEA500E50F1000041EB045170BDC1
:1012D00006F0004646EA010140EA020081EA030105
:1012E000B4EB5C04C2BFD4EB0C0541EA045170BD01
:1012F00041F480114FF0000E013C00F3AB8014F17B
:10130000360FDEBF002001F0004170BDC4F10004C3
:10131000203C35DA0C341BDC04F11404C4F1200544
:1013200000FA05F320FA04F001FA05F240EA02009F
:1013300001F0004221F0004110EBD37021FA04F6D5
:1013400042EB06015EEA430E08BF20EAD37070BD8F
:10135000C4F10C04C4F1200500FA04F320FA05F0EE
:1013600001FA04F240EA020001F0004110EBD370F0
:1013700041F100015EEA430E08BF20EAD37070BD60
:10138000C4F1200500FA05F24EEA020E20FA04F339
:1013900001FA05F243EA020321FA04F001F00041E8
:1013A00021FA04F220EA020000EBD3705EEA430E59
:1013B00008BF20EAD37070BD94F0000F0FD101F088
:1013C0000046400041EB010111F4801F08BF013CC1
:1013D000F7D041EA060195F0000F18BF704703F0FF
:1013E0000046520043EB030313F4801F08BF013D86
:1013F000F7D043EA0603704794EA0C0F0CEA135542
:1014000018BF95EA0C0F0CD050EA410618BF52EAFB
:101410004306D1D181EA030101F000414FF0000001
:1014200070BD50EA410606BF1046194652EA43060F
:1014300019D094EA0C0F02D150EA013613D195EA83
:101440000C0F05D152EA03361CBF104619460AD1CB
:1014500081EA030101F0004141F0FE4141F47001D5
:101460004FF0000070BD41F0FE4141F4780170BDC5
:1014700070B54FF0FF0C4CF4E06C1CEA11541DBF2A
:101480001CEA135594EA0C0F95EA0C0F00F0A7F82C
:10149000A4EB050481EA030E52EA03354FEA013159
:1014A00000F088804FEA03334FF0805545EA13136C
:1014B00043EA12634FEA022245EA111545EA106534
:1014C0004FEA00260EF000419D4208BF964244F1CB
:1014D000FD0404F5407402D25B084FEA3202B61AEA
:1014E00065EB03055B084FEA32024FF480104FF4BE
:1014F000002CB6EB020E75EB030E22BFB61A754632
:1015000040EA0C005B084FEA3202B6EB020E75EBC4
:10151000030E22BFB61A754640EA5C005B084FEA2C
:101520003202B6EB020E75EB030E22BFB61A7546F9
:1015300040EA9C005B084FEA3202B6EB020E75EB04
:10154000030E22BFB61A754640EADC0055EA060EC5
:1015500018D04FEA051545EA16754FEA06164FEA08
:10156000C30343EA52734FEAC2025FEA1C1CC0D1B4
:1015700011F4801F0BD141EA00014FF000004FF041
:10158000004CB6E711F4801F04BF01430020B4F102
:10159000FD0C88BFBCF5E06F3FF6AFAEB5EB030CBA
:1015A00004BFB6EB020C5FEA500C50F1000041EBB7
:1015B000045170BD0EF0004E4EEA113114EB5C0484
:1015C000C2BFD4EB0C0541EA045170BD41F4801157
:1015D0004FF0000E013C90E645EA060E8DE60CEA5F
:1015E000135594EA0C0F08BF95EA0C0F3FF43BAF7C
:1015F00094EA0C0F0AD150EA01347FF434AF95EA33
:101600000C0F7FF425AF104619462CE795EA0C0F16
:1016100006D152EA03353FF4FDAE1046194622E7E3
:1016200050EA410618BF52EA43067FF4C5AE50EABD
:1016300041047FF40DAF52EA43057FF4EBAE12E7AD
:101640004FEA410C7FEA6C5C02D150EA013C0AD1BE
:101650004FEA430C7FEA6C5C02D152EA033C02D1B0
:101660004FF0000070474FF0010070474FEA410211
:1016700012F5001215D211D56FF47873B3EB6252E4
:1016800012D94FEAC12343F0004343EA505311F00B
:10169000004F23FA02F018BF404270474FF000009D
:1016A000704750EA013005D111F0004008BF6FF0DB
:1016B000004070474FF00000704700BF00B585B094
:1016C000002300930193029303931A481A4A02607D
:1016D0004FF480324260836001220261027680F81A
:1016E0002030C36215498162C3600221C16180F864
:1016F0003030426101F01AFD98B901230093019343
:10170000029369460B4801F049FF68B90223009330
:1017100001936946074801F041FF40B905B05DF803
:1017200004FB01F0D7F9E8E701F0D4F9EEE701F0A6
:10173000D1F9F3E7D4090020002001400100000F97
:1017400030B589B000230393049305930693079360
:10175000026803F1804303F590339A4201D009B047
:1017600030BD04460025019503F58C335A6C42F4D4
:1017700080725A645A6C02F480720192019A029546
:101780001A6B42F001021A631B6B03F00103029310
:10179000029B0623039303230493059503A90F4893
:1017A00002F0C8FB0E480F4B036045608560C560C2
:1017B0004FF4806303614FF4006343614FF40053BF
:1017C0008361C5610562456202F0E8F818B9044B0F
:1017D000A3639C63C3E701F07DF9F8E700000240D2
:1017E0001C0A00201064024000B583B00021019162
:1017F000094B1A6B42F480021A631B6B03F48003DB
:101800000193019B0A46382001F0D6FF382002F0F0
:1018100019F803B05DF804FB003802402DE9F047E9
:101820008CB000240794089409940A940B940194B2
:10183000654B1A6B42F010021A631A6B02F0100229
:101840000192019A02941A6B42F004021A631A6B15
:1018500002F004020292029A03941A6B42F0800290
:101860001A631A6B02F080020392039A04941A6BB3
:1018700042F001021A631A6B02F001020492049A08
:1018800005941A6B42F002021A631A6B02F002020C
:101890000592059A06941A6B42F008021A631B6BB4
:1018A00003F008030693069B484E22464FF48471CA
:1018B000304602F0A5FCDFF82481012211464046A3
:1018C00002F09EFCDFF818A122464FF4A8415046D2
:1018D00002F096FC3E4F22464FF61071384602F059
:1018E0008FFC4FF4017307930894099407A93046BD
:1018F00002F020FB4FF484730793012508950994A7
:101900000A9407A9304602F015FB32230793314BA6
:101910000893099407A9304602F00CFB0795089537
:1019200009940A9407A9404602F004FB0823079390
:101930004FF00209CDF8209009940A9405230B93E7
:1019400007A9404602F0F6FA0795234B089309943D
:10195000A6F5805607A9304602F0ECFA4FF4A843EA
:101960000793089509940A9407A9504602F0E2FAF1
:101970004FF610730793089509940A9407A93846FF
:1019800002F0D8FA4FF4007307930894099407A95A
:10199000304602F0CFFA4FF4E0530793CDF8209091
:1019A000099403230A930A230B9307A9304602F0F4
:1019B000C1FA202307930894099407A9384602F036
:1019C000B9FA0CB0BDE8F0870038024000100240C0
:1019D000000C02400000121000001110000802402C
:1019E0000004024008B50B480B4B03600B4B4360EF
:1019F00000238360C3604FF48042026143618361CE
:101A0000C361036202F018FC00B908BD01F062F87E
:101A1000FBE700BF7C0A002000540040A0860100C4
:101A200030B589B00023039304930593069307937D
:101A30000268154B9A4201D009B030BD00250195CE
:101A4000124C236B43F002032363236B03F0020366
:101A50000193019B4FF4107303931223049301230A
:101A6000059306950423079303A9094802F062FA37
:101A70000295236C43F400132364236C03F40013D6
:101A80000293029BD8E700BF005400400038024098
:101A90000004024008B50B480B4B03604FF4007282
:101AA000426000238360C3600261084A426183612F
:101AB000C361036202F018FD00B908BD01F00AF825
:101AC000FBE700BFD00A0020003C00400077010087
:101AD00070B588B00023039304930593069307938E
:101AE00002681F4B9A4201D008B070BD00240094D8
:101AF00003F5FE331A6C42F400421A641A6C02F4C5
:101B000000420092009A01941A6B42F001021A639B
:101B10001A6B02F001020192019A02941A6B42F0D0
:101B200004021A631B6B03F004030293029B10234D
:101B3000039302260496059406940625079503A9A7
:101B4000084802F0F7F94FF4A45303930496059460
:101B50000694079503A9044802F0ECF9C4E700BF16
:101B6000003C00400000024000080240F0B585B093
:101B70000A9CB4F90A60002E0DDBB4F90850002D60
:101B800009DB0635B4F90470BD4204D80836B4F94F
:101B90000650AE4201D905B0F0BDB4F90050B4F919
:101BA000024002EB42020B9E0296B3FA83F35B09FA
:101BB0000193082300930623034E06EB42022144BF
:101BC000284400F09EF8E6E700C900081081518122
:101BD000704708B542890932428102220281037BA3
:101BE00003B908BD084600F078F9FAE72DE9F0419D
:101BF00082B00646884615461F4614E001970095B8
:101C00004346B5F90A10B5F90800FFF7AFFF0EE03B
:101C100033780A2B17D0B5F90A300833B5F9062006
:101C200093421CD801363278CAB10A2AE6D12C89EF
:101C3000063424B22C810634B5F904309C42E7D92D
:101C400073780A2BE4D039462846FFF7C2FF727832
:101C5000044BD35C13F0080FDDD00136DBE702B094
:101C6000BDE8F08171D400080CB470B59AB0044698
:101C70000E461EAB53F8042B0093642101A804F018
:101C8000A1FF0546234604F50572314601A8FFF77A
:101C9000ADFF94F820322BB928461AB0BDE8704049
:101CA00002B07047204600F018F9F5E70023B3F5BD
:101CB000FC7F04DAC218002111770133F7E770477F
:101CC00000281DDB00291BDB532819DC2F2917DC1A
:101CD00030B4CC10542505FB040001F007010124A9
:101CE00004FA01F1C9B22AB103441A7F11431977EA
:101CF00030BC704703441A7F22EA01011977F7E7E5
:101D000070472DE9F84F8246894690461E460A9F45
:101D1000DDF82CB0002525E0E31D08E00C9BFFF763
:101D2000CFFF0134BC421CDA2346002CF4DBDB106D
:101D300006FB035318F80300614204F0070301F0A7
:101D4000070158BF4B4201229A40024005EB0A00AE
:101D500004EB0901BBF1000FE0D0B2FA82F25209A4
:101D6000DCE70135B54201DA0024DBE7BDE8F88F96
:101D700020F02003072B01DD0120704710B582B051
:101D80000C4640F020008DF807004FF47A730122D2
:101D90000DF10701206803F023FE002002B010BD02
:101DA00030B583B030F00D050DD10C468DF807002D
:101DB0004FF47A7301220DF10701206803F010FE41
:101DC000284603B030BD0225FAE7032811D810B524
:101DD00082B00C4640F004008DF807004FF47A738F
:101DE00001220DF10701206803F0FAFD002002B086
:101DF00010BD04207047072811D810B582B00C46DA
:101E000040F010008DF807004FF47A7301220DF1B5
:101E10000701206803F0E4FD002002B010BD05209A
:101E2000704710F0800F11D110B582B00C4640F011
:101E300080008DF807004FF47A7301220DF107013D
:101E4000206803F0CDFD002002B010BD03207047D4
:101E50002DE9F04182B005460E4690461F460368C4
:101E60001A68136843F04003136000228188806879
:101E700002F0C6F90022A989286902F0C1F9642399
:101E80000193019C013C0194002CFAD10122A98903
:101E9000286902F0B5F90022A98AA86902F0B0F910
:101EA00029460120FFF764FF29464046FFF7B9FFA6
:101EB00029463846FFF789FF29469DF82000FFF79D
:101EC0009AFF29460020FFF753FF29463046FFF7C7
:101ED00067FF002002B0BDE8F08110B582B0044673
:101EE00000228188806802F08BF90022A18AA06913
:101EF00002F086F980238DF807304FF47A730122BF
:101F00000DF10701206803F06BFD40238DF80730C9
:101F10004FF47A7301220DF10701206803F060FD90
:101F20000122A18AA06902F06BF9214651F81C0B2D
:101F30004FF47A734FF4FC7203F052FD02B010BDFF
:101F40000268094B9A4200D0704710B5074B012236
:101F50001A70074C204601F099FA022205492046E2
:101F600001F0D6F910BD00BF002001401C0B00207D
:101F7000D4090020180B00200268044B9A4200D0BC
:101F80007047034A136801331360F9E700440140C6
:101F90004C0D002070B59AB0302200210EA804F03C
:101FA00089FD002409940A940B940C940D940394D5
:101FB0000494059406940794089401941F4B1A6C9A
:101FC00042F080521A641B6C03F080530193019B12
:101FD00002941B4B1A6842F440421A601B6803F4D7
:101FE00040430293029B01260E964FF480330F93D9
:101FF000022514954FF48003159304231693C022F1
:1020000017921893082319930EA802F0F1FD0F23DD
:1020100009930A950B944FF4A0530C930D9403214C
:1020200009A803F0C7F80396C82305930523049372
:10203000069503A803F0E2F91AB070BD003802401B
:102040000070004070B58AB000F088FFFFF7A2FF73
:10205000FFF7E4FBFFF7C8FBFFF730FBFFF7C2FC1D
:10206000FFF718FD00F038FD00F056FD00F078FE97
:1020700000F04CFF00F00EFFD24803F0A3FE022256
:10208000D149D24801F044F9D14CD24B23604FF4EE
:102090008043A38003F1804303F5E233A3604FF450
:1020A0008062A28123614FF48052A282A361CA4D53
:1020B00004F5057328686968AA6807C3AA891A80A5
:1020C00003230093022340220C212046FFF7C0FE89
:1020D00000224FF48071C14802F092F80DE2C04C2A
:1020E00000224FF40051204602F08AF800224FF4FB
:1020F0008041204602F084F801224FF480512046AE
:1021000002F07EF8B24B03F5057200210846FFF796
:102110005DFDB44B1868B449FEF780FD10B1B14BBA
:10212000B14A1A60AF4B1868A94CFEF7CDF9CDE95A
:102130000001AE4A01212046FFF796FD04F5057522
:1021400023462A4614210020FFF740FDA84A01211A
:102150002046FFF789FD2046FFF7BFFE4FF47A7057
:1021600000F028FF2046FFF7A1FD23462A46002164
:102170000846FFF72BFD02E2994C00224FF48051F4
:10218000204602F03DF800224FF48041204602F044
:1021900037F801224FF40051204602F031F88C4C00
:1021A00004F5057523462A4600210846FFF70EFD73
:1021B0008C4B1868FEF788F9CDE900018B4A0121A4
:1021C0002046FFF751FD23462A4614210020FFF741
:1021D000FDFC884A01212046FFF746FD2046FFF717
:1021E0007CFE4FF47A7000F0E5FE2046FFF75EFDBE
:1021F00023462A4600210846FFF7E8FCBFE1784C59
:1022000000224FF40051204601F0FAFF00224FF463
:102210008051204601F0F4FF01224FF48041204616
:1022200001F0EEFF6F4B18680021FEF7D9FCA8BB48
:10223000674C04F5057523462A4600210846FFF73A
:10224000C5FC684B1868FEF73FF9CDE90001674A05
:1022500001212046FFF708FD23462A4614210020CD
:10226000FFF7B4FC644A01212046FFF7FDFC20463D
:10227000FFF733FE4FF47A7000F09CFE2046FFF724
:1022800015FD23462A4600210846FFF79FFC012240
:102290004FF48071524801F0B3FF70E1514B0022BE
:1022A0001A60C5E701224FF400614D4801F0A8FF14
:1022B000474C04F5057523462A4600210846FFF7DA
:1022C00085FC484B1868FEF7FFF8CDE900014B4A42
:1022D00001212046FFF7C8FC2046FFF7FEFD4FF422
:1022E0007A7000F067FE2046FFF7E0FC23462A469E
:1022F00000210846FFF76AFC62E1394C01224FF4E5
:102300000061204601F07CFF01224FF480612046ED
:1023100001F076FF2E4C04F5057523462A46002170
:102320000846FFF753FC2F4B1868FEF7CDF8CDE9B0
:102330000001334A01212046FFF796FC2046FFF7B3
:10234000CCFD4FF47A7000F035FE2046FFF7AEFC6E
:1023500023462A4600210846FFF738FC30E1204C8E
:1023600000224FF40061204601F04AFF00224FF4A2
:102370008061204601F044FF154C04F505752346A5
:102380002A4600210846FFF721FC164B1868FEF785
:102390009BF8CDE900011B4A01212046FFF764FCB0
:1023A0002046FFF79AFD4FF47A7000F003FE2046B6
:1023B000FFF77CFC23462A4600210846FFF706FC6F
:1023C000FEE000BF040E0020180B0020D4090020FE
:1023D000200B0020A80D002000CF000800100240B4
:1023E000000C0240480D00200000C84210CF000839
:1023F00024CF000828CF000830CF000838CF0008CD
:1024000048CF000858CF0008A64C04F505752346B0
:102410002A4600210846FFF7D9FBA34B1868FEF7B0
:1024200053F8CDE90001A14A01212046FFF71CFC29
:1024300023462A4614210020FFF7C8FB9C4A0121AD
:102440002046FFF711FC2046FFF747FD4FF47A7056
:1024500000F0B0FD2046FFF729FC23462A46002164
:102460000846FFF7B3FB012ECED0924C01224FF469
:102470008071204601F0C4FE4FF48071204601F0C7
:10248000ABFE012800F0A380864C04F505752346B9
:102490002A4600210846FFF799FB834B1868FEF790
:1024A00013F8CDE90001814A01212046FFF7DCFB4A
:1024B00023462A4614210020FFF788FB7C4A01218D
:1024C0002046FFF7D1FB2046FFF707FD4FF47A7057
:1024D00000F070FD2046FFF7E9FB23462A46002165
:1024E0000846FFF773FB00224FF48071714801F03A
:1024F00087FE4FF4967000F05DFD01224FF40071ED
:102500006D4801F07DFE6D4B1B78002BF5D06B4BB9
:1025100000221A706A490B889BB26A4A13804B8862
:102520009BB269490B80108880B2FEF763F9674956
:10253000FEF7AEF86649FEF7B5F96649FEF766FAAA
:10254000594B186018686449FEF75EFB00287FF459
:10255000C6AD554B18686149FEF756FB38B1524B72
:1025600018685F49FEF746FB00287FF405AE4E4B26
:1025700018685C49FEF73EFB00287FF440AE524BE2
:102580001B889BB2B3F57A7F06D94F4B1B889BB251
:10259000B3F5FA6FFFF486AE4B4B1B889BB2B3F5D5
:1025A0007A7F05D2484B1B889BB2002B7FF4A5AEE7
:1025B000454B1B889BB240F6B83293423FF6CFAEF4
:1025C0004FF480713B4801F007FE06464BE7464B4F
:1025D0001B68DA6822F00102DA60444A14685A6A19
:1025E00042F2107101FB0424DA6842F00102DA6061
:1025F000DA6822F00102DA603C4A1268596A42F253
:10260000107000FB0212D96841F00101D96004F199
:1026100010018A42ECD3274C00224FF480712046EF
:1026200001F0EEFD4FF48071204601F0D5FD002849
:1026300060D14FF400711F4801F0CEFD012800F079
:102640009380294B1B68DA6822F00102DA60274A7E
:1026500014685A6A42F2107101FB0424DA6842F0ED
:102660000102DA604FF40071124801F0B5FD002854
:1026700040F0AE801C4B1A68D36823F00103D3608E
:102680001A4B1B68516A42F2107000FB0313D168A9
:1026900041F00101D1601B1B154A9342E2D901258B
:1026A00097E000BF200B0020480D002064CF0008F9
:1026B00074CF000800100240000C02401C0B0020E8
:1026C000180B0020460D0020440D002000A06B4593
:1026D0000000C842008040C400008E420000344226
:1026E00000008C4200003042040E00204C0D0020FF
:1026F00020A10700BE4C04F5057523462A4600219B
:102700000846FFF763FABB4B1868FDF7DDFECDE91D
:102710000001B94A01212046FFF7A6FA23462A46BE
:1027200014210020FFF752FAB44A01212046FFF796
:102730009BFA2046FFF7D1FB4FF47A7000F03AFC89
:102740002046FFF7B3FA23462A4600210846FFF742
:102750003DFA00224FF48071A94801F051FD4FF479
:10276000967000F027FCC8E6A14C04F505752346D9
:102770002A4600210846FFF729FA9E4B1868FDF704
:10278000A3FECDE900019C4A01212046FFF76CFA27
:1027900023462A4614210020FFF718FA974A012100
:1027A0002046FFF761FA2046FFF797FB4FF47A7057
:1027B00000F000FC2046FFF779FA23462A46002164
:1027C0000846FFF703FA4FF4967000F0F3FB94E627
:1027D0000025002D40F09F808A4B1B68DA6822F0AC
:1027E0000102DA60884A16685A6A42F2107101FBE7
:1027F0000626DA6842F00102DA604FF40071804880
:1028000001F0EAFC012815D17E4B1A68D36823F049
:102810000103D3607C4B1B68516A42F2107000FBCD
:102820000313D16841F00101D1601B1B774A934229
:10283000E3D90125002D40F0A680724B1A68D368B9
:1028400023F00103D360704B1B68516A42F2107091
:1028500000FB0313D16841F00101D1609E1B039678
:1028600003986B4BA3FB00304009FDF70BFECDE94D
:1028700004010022674BDDE90401FDF7F1FE40B1E0
:102880000022654BDDE90401FDF7E0FE002840F081
:10289000C78000225F4BDDE90401FDF7CDFE002873
:1028A00040F0E98000225D4BDDE90401FDF7E2FE26
:1028B00000283FF422AE4E4C04F5057523462A4607
:1028C00000210846FFF782F94A4B1868FDF7FCFD26
:1028D000CDE90001484A01212046FFF7C5F923460A
:1028E0002A4614210020FFF771F9444A01212046AD
:1028F000FFF7BAF92046FFF7F0FA4FF47A7000F0CC
:1029000059FB2046FFF7D2F923462A460021084604
:10291000FFF75CF9F1E5364C04F5057523462A46C8
:1029200000210846FFF752F9324B1868FDF7CCFD3D
:10293000CDE90001304A01212046FFF795F92346F1
:102940002A4614210020FFF741F92C4A0121204694
:10295000FFF78AF92046FFF7C0FA4FF47A7000F0CB
:1029600029FB4FF4FA7000F025FB2046FFF79EF993
:1029700023462A4600210846FFF728F94FF49670AF
:1029800000F018FBB9E51A4C04F5057523462A46F4
:1029900000210846FFF71AF9164B1868FDF794FD59
:1029A000CDE90001144A01212046FFF75DF92346D5
:1029B0002A4614210020FFF709F9104A0121204678
:1029C000FFF752F92046FFF788FA4FF47A7000F0CB
:1029D000F1FA2046FFF76AF923462A460021084605
:1029E000FFF7F4F84FF4967000F0E4FA85E500BFC5
:1029F000200B0020480D002064CF000874CF000891
:102A000000100240040E00204C0D002020A1070001
:102A100009CB3D8D000008400000244000407F406D
:102A2000DDE9042300202749FDF7EEFBCDE906018F
:102A3000254C04F5057523462A4600210846FFF774
:102A4000C5F8DDE90623CDE90023204A012120460F
:102A5000FFF70AF92046FFF740FA4FF47A7000F0CA
:102A6000A9FA2046FFF722F923462A460021084604
:102A7000FFF7ACF841E5DDE9042300201149FDF73B
:102A8000C3FBCDE90801104C04F5057523462A4621
:102A900000210846FFF79AF80D4A01212046FFF76A
:102AA000E3F82046FFF719FA4FF47A7000F082FA43
:102AB0002046FFF7FBF823462A4600210846FFF789
:102AC00085F81AE500002840200B002080CF000880
:102AD00094CF00087047704708B50D480D4B036050
:102AE0004FF48273436000238360C36003614361DA
:102AF0004FF400728261C3610362436283620A23FE
:102B0000C36202F09BFE00B908BDFFF7E3FFFBE7DD
:102B1000500D00200030014008B50E480E4B0360F8
:102B20004FF48273436000238360C3600361436199
:102B30004FF4007282611822C261036243628362B1
:102B40000A23C36202F07AFE00B908BDFFF7C2FF94
:102B5000FBE700BFA80D00200038004000B58BB097
:102B60000023059306930793089309930368294A62
:102B7000934205D0284A934226D00BB05DF804FB5F
:102B800000220192254B596C41F480515964596CD3
:102B900001F48051019101990292196B41F00101F8
:102BA00019631B6B03F001030293029BE02305935F
:102BB000022306930792032308930523099305A98B
:102BC000174801F0B7F9D8E700220392134B196CAC
:102BD00041F480411964196C01F480410391039917
:102BE0000492196B41F0020119631B6B03F002039D
:102BF0000493049B4FF4204305930223069307920A
:102C0000032308930523099305A9064801F092F9C7
:102C1000B3E700BF003001400038004000380240F8
:102C2000000002400004024000B583B00021009182
:102C30000C4B5A6C42F480425A645A6C02F4804243
:102C40000092009A01911A6C42F080521A641B6C37
:102C500003F080530193019B072000F08FFD03B028
:102C60005DF804FB003802407047FEE7FEE7FEE730
:102C7000FEE770477047704708B500F089F908BD56
:102C800008B5024803F0DFF808BD00BF040E0020BD
:102C900008B5024801F060F808BD00BF1C0A00201A
:102CA0000120704708B503F0DBFE162303604FF0E8
:102CB000FF3008BD08B54FF0FF31FFF7F3FFFEE727
:102CC00070B50C4616460025B54207DAAFF3008012
:102CD000214601F8010B01350C46F5E7304670BD81
:102CE00070B50C4616460025B54205DA14F8010BFE
:102CF000AFF300800135F7E7304670BD08B50346F5
:102D00000B4A126842B10A4A106803446A46934269
:102D100006D8074A136008BD054A06491160F2E764
:102D200003F09EFE0C2303604FF0FF30F3E700BF7B
:102D3000000E0020E80E00204FF0FF3070474FF4E7
:102D400000534B60002070470120704700207047FF
:102D5000024B4FF000629A60704700BF00ED00E048
:102D600000B587B000230293039304930593009367
:102D700001931448144A0260436083604FF6FF7267
:102D8000C2600361836103F069F990B94FF4805325
:102D9000029302A90B4803F0B5FB68B90023009326
:102DA00001936946074803F0B7FD40B907B05DF8E5
:102DB00004FBFFF78FFEE9E7FFF78CFEEEE7FFF776
:102DC00089FEF3E7440E00200004004000B583B004
:102DD0000368154A934205D0144A93420FD003B0BA
:102DE0005DF804FB00230093114B1A6C42F00202C1
:102DF0001A641B6C03F002030093009BEFE70021B1
:102E000001910B4B5A6C42F400325A645B6C03F430
:102E100000330193019B0A46192000F0CDFC1920D4
:102E200000F010FDDBE700BF00040040004401405B
:102E30000038024000B587B000230193029303934A
:102E4000049305930268104B9A4202D007B05DF8D4
:102E500004FB002300930D4A116B41F00201116342
:102E6000126B02F002020092009A4FF480720192FB
:102E700002220292039304930323059301A90448B9
:102E800001F058F8E2E700BF00440140003802407A
:102E90000004024000B589B000230193029303931C
:102EA00004930593069307931648174A02605F221E
:102EB0004260836042F21072C2600361836103F07A
:102EC000CDF8A8B90F4803F035F9A0B960230193F4
:102ED0000F23029300220392059201A9094803F0EF
:102EE000EFF958B90748FFF7A5FF09B05DF804FBF3
:102EF000FFF7F0FDE6E7FFF7EDFDE7E7FFF7EAFD97
:102F0000F0E700BF040E00200044014070470000BD
:102F100010B504460E4B18784FF47A73B3FBF0F3F8
:102F20000C4A1068B0FBF3F000F0A4FC68B90F2C59
:102F300001D901200AE0002221464FF0FF3000F0C5
:102F40003BFC054B1C60002000E0012010BD00BFD1
:102F500004000020000000200800002008B50B4BF2
:102F60001A6842F400721A601A6842F480621A60A9
:102F70001A6842F480721A60032000F0FFFB002000
:102F8000FFF7C6FFFFF750FE002008BD003C0240DF
:102F9000034A1168034B1B780B441360704700BF52
:102FA000840E002004000020014B1868704700BF09
:102FB000840E002038B50446FFF7F6FF0546B4F14D
:102FC000FF3F02D0044B1B781C44FFF7EDFF401B72
:102FD000A042FAD338BD00BF0400002010B504465B
:102FE0004F4B5A6822F440325A605A6841680A438B
:102FF0005A600268536823F4807353600268536810
:10300000016943EA012353600268536823F0407367
:1030100053600268536881680B4353600268936889
:1030200023F40063936002689368C1680B43936064
:10303000826A3C4B9A425BD00268936823F07063CB
:10304000936002689368816A0B4393600268936897
:1030500023F04053936002689368C16A0B43936006
:103060002268936823F00203936022689368217EAC
:1030700043EA4103936094F82030002B49D0636AFF
:10308000013B072B3FD82268536843F40063536029
:103090002268536823F46043536021684B68626A76
:1030A000013A43EA42334B602268D36A23F4700347
:1030B000D3622168CB6AE269013A43EA0253CB62E8
:1030C0002268936823F4007393602268936894F8ED
:1030D000301043EA412393602268936823F48063AD
:1030E000936022689368616943EA8123936010BD0D
:1030F0000268936823F0706393600268936823F01A
:1031000040539360ACE740F275710748FFF7E3FC6A
:10311000B9E72268536823F400635360C4E700BF33
:10312000002301400100000FB8CF0008002800F084
:10313000E68010B504460268724B9A4204D040F211
:1031400043117148FFF7C7FC636843B1B3F5803F93
:1031500005D0B3F5003F02D0B3F5403F71D1A3686D
:1031600043B1B3F1807F05D0B3F1007F02D0B3F15A
:10317000407F6CD12369012B6FD8237E012B72D83D
:10318000A36A7BB3B3F1807F2CD0B3F1007F29D049
:10319000B3F1407F26D0B3F1806F23D0B3F1A06F9D
:1031A00020D0B3F1C06F1DD0B3F1E06F1AD0B3F1EE
:1031B000006F17D0B3F1106F14D0B3F1206F11D09E
:1031C000B3F1306F0ED0B3F1406F0BD0B3F1506F4D
:1031D00008D0B3F1606F05D0B3F1706F02D04B4AE5
:1031E000934246D1E36813B1B3F5006F47D1E36969
:1031F000013B0F2B49D894F83030012B4BD8636931
:10320000022B4ED894F82030012B50D8A26A3F4BA5
:103210009A420AD0E36A43B1B3F1805F05D0B3F1BB
:10322000005F02D0B3F1405F47D1236C002B4AD03E
:10323000236C13F0100F4ED00120002384F83C3093
:1032400010BD4FF4A2713048FFF745FC87E740F20C
:1032500045112D48FFF73FFC8CE74FF4A3712A4836
:10326000FFF739FC89E740F247112748FFF733FCA5
:1032700086E74FF4A4712448FFF72DFCB2E740F233
:1032800049112148FFF727FCB1E74FF4A5711E480B
:10329000FFF721FCAFE740F24B111B48FFF71BFC87
:1032A000ADE74FF4A6711848FFF715FCAAE740F206
:1032B0004D111548FFF70FFCA8E740F251111248D5
:1032C000FFF709FCB1E72046FEF73AFA00236364F2
:1032D00084F83C30ACE7236C23F4885323F00203DA
:1032E00043F0020323642046FFF778FE0020606469
:1032F000236C23F0030343F0010323649DE70120C3
:10330000704700BF00200140B8CF00080100000F47
:1033100070B582B004460D46164600230193037E25
:10332000012B2AD8E36A43B1B3F1805F05D0B3F132
:10333000005F02D0B3F1405F25D194F83C30012BFF
:1033400000F08A80012384F83C3023689A6812F0E8
:10335000010F1ED19A6842F001029A60434B1B682C
:10336000434AA2FB03239B0C03EB43030193019B02
:103370007BB1019B013B0193F9E74FF4A8613D4804
:10338000FFF7A9FBCEE740F241513A48FFF7A3FB14
:10339000D3E72268936813F0010F5FD0236C23F406
:1033A000E06323F0010343F480732364536813F450
:1033B000806F05D0236C23F4405343F4805323647F
:1033C000236C13F4805F34D0636C23F006036364D2
:1033D000002384F83C30A36B274ADA63A36B274AA7
:1033E0001A64A36B264ADA6423686FF022021A601B
:1033F0002268536843F0806353602268936843F403
:1034000080739360216833462A464C31A06B00F0EC
:103410000DFC1C4B5B6813F01F0F0DD123689A68DD
:1034200012F0405F1DD19A6842F080429A600020FD
:1034300015E000236364CBE72368134A934201D06D
:1034400000200CE09A6812F0405F0CD19A6842F0BC
:1034500080429A60002002E0022000E0002002B0DA
:1034600070BD0020FBE70020F9E700BF000000204E
:1034700083DE1B43B8CF0008293500080735000854
:1034800013350008002301400020014010B5044618
:1034900002681A4B9A4204D040F2C4511848FFF710
:1034A0001AFB94F83C30012B26D0012384F83C30E1
:1034B0002268936823F00103936023689A6812F0EE
:1034C000010F04D00020002384F83C3010BD9A681E
:1034D00022F480729A60A06B00F0F4FB22685368BB
:1034E00023F080635360236C23F4885323F001039B
:1034F00043F001032364E6E70220E7E700200140F0
:10350000B8CF0008704708B5806BFFF7FBFF08BD18
:10351000704708B5806B40230364436C43F0040399
:103520004364FFF7F5FF08BD08B50346806B026CE6
:1035300012F0500F25D1036C43F400730364036849
:103540009A6812F0405F19D1027EBAB9DA6A12F4B1
:10355000700F03D09A6812F4806F0FD15A6822F06E
:1035600020025A60036C23F480730364036C13F429
:10357000805F03D1036C43F001030364FEF7E0FCBA
:1035800008BD026C12F0100F04D1826BD26C184689
:103590009047F5E7FFF7BCFFF2E7000030B583B0D6
:1035A00005460C46002301930B68122B4ED8636826
:1035B000013B0F2B50D8A368072B53D895F83C300C
:1035C000012B00F0CD80012385F83C302368092BC6
:1035D0004ED92868C2689BB203EB43031E3B072108
:1035E00001FA03F322EA0303C3602868C268A168F2
:1035F000238803EB43031E3B01FA03F31343C36029
:103600006368062B4AD82868426B03EB8303053BAB
:103610001F2101FA03F322EA030343632868426B84
:10362000636803EB8303053B218801FA03F313432B
:1036300043632A684B4B9A4260D02A68494B9A42AE
:1036400069D0002085F83C0003B030BD4FF4CB6159
:103650004548FFF740FAAAE740F259614248FFF7B0
:103660003AFAA8E740F25A613F48FFF734FAA5E773
:10367000286802699BB203EB4303072101FA03F3B5
:1036800022EA0303036128680269A168238803EB27
:10369000430301FA03F313430361B1E70C2B16D87C
:1036A0002868026B03EB8303233B1F2101FA03F31A
:1036B00022EA030303632868026B636803EB830356
:1036C000233B218801FA03F313430363B1E728681E
:1036D000C26A03EB8303413B1F2101FA03F322EA91
:1036E0000303C3622868C26A636803EB8303413B38
:1036F000218801FA03F31343C3629AE72368122B6C
:103700009BD11A4B5A6822F400025A605A6842F45C
:1037100080025A6091E72368154A934201D0112B29
:103720008FD1124B5A6822F480025A605A6842F4D0
:1037300000025A6022680E4B9A4282D10D4B1B68E0
:103740000D4AA2FB03239B0C03EB83035B00019355
:1037500002E0019B013B0193019B002BF9D170E733
:10376000022071E700200140B8CF0008002301408B
:10377000120000100000002083DE1B4310B5044639
:10378000C31E042B0FD80A4AD36823F4E0631B043A
:103790001B0C240204F4E064234343F0BF6343F4AE
:1037A0000033D36010BD92210248FFF794F9EAE795
:1037B00000ED00E024D0000870B505460C46164622
:1037C0000F2A25D80F2C28D81B4BDB68C3F3022304
:1037D000C3F10701042928BF04211A1D062A21D993
:1037E000033B4FF0FF3202FA01F124EA01049C404E
:1037F00002FA03F326EA03063443002D14DB240106
:10380000E4B205F1604505F5614585F8004370BDFA
:10381000AA210A48FFF75FF9D4E7AB210748FFF771
:103820005AF9D1E70023DCE705F00F052401E4B2E3
:10383000034B5C55EBE700BF00ED00E024D000082F
:1038400014ED00E010B5041E0ADB002C07DB04F0C9
:103850001F02640901239340044A42F8243010BD3A
:10386000BE210348FFF737F9EFE700BF00E100E0B2
:1038700024D000080138B0F1807F0AD2064B58608E
:10388000064AF02182F823100020986007221A606F
:1038900070470120704700BF10E000E000ED00E03D
:1038A00030B405682C6824F480242C6004686360BC
:1038B0008368402B05D0036899600368DA6030BCE8
:1038C000704703689A600368D960F8E710B403682A
:1038D000D9B210390B4AA2FB014212090A4CA25C70
:1038E000C2655F2908D923F47F7323F003030433EF
:1038F0008365806D10BC704723F47F7323F003034E
:103900008365F6E7ABAAAAAA00D10008836A826998
:1039100092B9012B0AD0022B02D00BB100207047C4
:10392000C36A13F0807F28D100207047C36AB3F1C7
:10393000C07F24D000207047B2F5005F09D0022B71
:1039400025D9032B25D1C36A13F0807F23D1002012
:103950007047032B03D8DFE803F01404140A002097
:103960007047C36A13F0807F0DD100207047C36A8F
:10397000B3F1C07F09D000207047012070470120BB
:1039800070470120704701207047012070470120D7
:1039900070470020704701207047000070B5044652
:1039A000FFF702FB002C00F03881054623689C4A93
:1039B000934231D0183293422ED0183293422BD0FA
:1039C0001832934228D01832934225D018329342AD
:1039D00022D0183293421FD0183293421CD002F5E5
:1039E0005672934218D01832934215D0183293422F
:1039F00012D0183293420FD0183293420CD01832A2
:103A0000934209D01832934206D01832934203D021
:103A1000B8218448FFF75FF86368A3B1B3F1007F72
:103A200011D0B3F1806F0ED0B3F1C06F0BD0B3F1F2
:103A3000006F08D0B3F1206F05D0B3F1406F02D012
:103A4000B3F1606F6DD1A3681BB1402B01D0802B07
:103A50006CD1E368B3F5007F01D0002B6BD12369F3
:103A6000B3F5806F01D0002B6AD163692BB1B3F538
:103A7000006F02D0B3F5805F67D1A3692BB1B3F5B6
:103A8000005F02D0B3F5804F64D1E36923B1B3F591
:103A9000807F01D0202B62D1236A43B1B3F5803FF0
:103AA00005D0B3F5003F02D0B3F5403F5CD1636A67
:103AB0000BB1042B5DD1636AC3B1A36A032B5DD83C
:103AC000E36A43B1B3F5000F05D0B3F1807F02D0B4
:103AD000B3F1C07F57D1236B43B1B3F5001F05D0BD
:103AE000B3F5800F02D0B3F5C00F51D1002384F895
:103AF0003430022384F835302268136823F0010340
:103B0000136023681A6812F0010F46D0FFF74CFAD1
:103B1000401B0528F5D920236365032084F8350070
:103B200070BDB9213F48FEF7D6FF8CE7BA213D486A
:103B3000FEF7D1FF8DE7BB213A48FEF7CCFF8EE7B9
:103B4000BC213848FEF7C7FF8FE7BD213548FEF797
:103B5000C2FF92E7BE213348FEF7BDFF95E7BF21C4
:103B60003048FEF7B8FF97E7C0212E48FEF7B3FFB5
:103B70009DE7C1212B48FEF7AEFF9CE7C6212948EF
:103B8000FEF7A9FF9CE7C7212648FEF7A4FFA2E79E
:103B9000C8212448FEF79FFFA8E71A682248104072
:103BA0006168A2680A43E1680A4321690A436169BE
:103BB0000A43A1690A43E1690A43216A0A430243AD
:103BC000616A04291ED01A602668756925F0070508
:103BD000636A1D43042B07D1A36A1D43E36A1BB12B
:103BE0002046FFF793FE90B975612046FFF76EFE01
:103BF000E26D3F239340836000206065012384F8D9
:103C000035308DE7E16A206B01430A43DBE740234F
:103C10006365012084F8350082E7012080E700BF5A
:103C20001060024094D000083F8010F02DE9F04170
:103C300004460E4617461D46D0F858805A1E4FF6C9
:103C4000FE739A4211D894F83430012B36D00123F8
:103C500084F8343094F83530DBB2012B0BD00023DC
:103C600084F834300220BDE8F0814FF4E671144846
:103C7000FEF731FFE7E7022384F835300023636560
:103C80002B463A4631462046FFF70AFEE26D3F23B7
:103C90009340C8F808302268136843F01603136095
:103CA000236C23B12268136843F008031360226871
:103CB000136843F0010313600020D4E70220D2E729
:103CC00094D0000870B50446866DFFF76DF994F83E
:103CD0003530DBB2022B06D080236365002384F8E5
:103CE0003430012070BD05462268136823F01603A6
:103CF00013602268536923F080035361236CE3B19E
:103D00002268136823F0080313602268136823F005
:103D10000103136023681B6813F0010F11D0FFF734
:103D200043F9431B052BF5D920236365002384F851
:103D30003430032084F83500D4E7A36C002BDFD1A6
:103D4000E3E7E26D3F239340B360002084F8340042
:103D5000012384F83530C5E7F0B583B0044600236D
:103D60000193724B1D68724BA3FB0535AD0A876D3D
:103D70003E68C26D08239340334210D003681A682E
:103D800012F0040F0BD01A6822F004021A60C26D00
:103D900008239340BB60436D43F001034365E26D2C
:103DA00001239340334209D02268526912F0800FF8
:103DB00004D0BB60636D43F002036365E26D0423CE
:103DC0009340334209D02268126812F0020F04D0E7
:103DD000BB60636D43F004036365E26D10239340A1
:103DE000334224D02268126812F0080F1FD0BB6043
:103DF00023681A6812F4802F0DD01B6813F4002F6B
:103E000004D1236C9BB12046984710E0A36C73B19A
:103E1000204698470BE01A6812F4807F03D11A6895
:103E200022F008021A60236C0BB120469847E26D1D
:103E300020239340334255D02268126812F0100FAD
:103E400050D0BB6094F83530DBB2052B0ED0236820
:103E50001A6812F4802F33D01B6813F4002F2AD174
:103E6000636C002B3ED0204698473BE022681368E5
:103E700023F0160313602268536923F08003536113
:103E8000236CA3B12268136823F008031360E26D6A
:103E90003F239340BB60002384F83430012384F82F
:103EA0003530236D002B3FD0204698473CE0A36C73
:103EB000002BE7D1EBE7E36BA3B12046984711E075
:103EC0001A6812F4807F09D11A6822F010021A6071
:103ED000002384F83430012384F83530E36B0BB1D0
:103EE00020469847636DFBB1636D13F0010F17D047
:103EF000052384F835302268136823F0010313602A
:103F0000019B01330193AB4204D823681B6813F073
:103F1000010FF5D1002384F83430012384F83530C3
:103F2000E36C0BB12046984703B0F0BD00000020C1
:103F3000B5814E1B2DE9F04383B007460E46A04BDA
:103F4000984217D003F58063984213D003F580633D
:103F500098420FD003F5806398420BD003F580633D
:103F6000984207D003F54063984203D0B3219548A7
:103F7000FEF7B1FD33689AB212B11B0C1B041BB1E2
:103F8000B4219048FEF7A7FD7368012B1ED9112BB1
:103F90001CD0022B1AD0122B18D08B4A934215D06A
:103FA00002F58012934211D002F5801293420DD097
:103FB000A2F5F812934209D002F58012934205D07F
:103FC00002F58012934201D0032B04D1B368022B77
:103FD00006D800244BE0B5217A48FEF77CFDF5E7D2
:103FE000B6217848FEF777FDF3E7C8217548FEF75C
:103FF00072FD52E0E0217348FEF76DFD8AE0042374
:1040000000E000238B4003430232704941F8223024
:104010006F4B1A686FEA080322EA0801706810F40F
:10402000803F01D048EA0201694A1160526803EA00
:104030000201706810F4003F01D048EA0201644AAE
:104040005160926803EA0201706810F4801F01D089
:1040500048EA02015E4A9160D2681340716811F427
:10406000001F01D048EA0203594AD36001340F2CE3
:1040700000F2A3800125A540336803EA050835EA6C
:104080000303F3D173685A1E012A03D9112B01D0FF
:10409000122B15D1F368032BA7D8BA68610003234C
:1040A0008B4022EA0302F3688B401343BB607A68BB
:1040B00022EA05027368C3F30015A54015437D602D
:1040C000FA6865000323AB406FEA030922EA0302A2
:1040D000B368AB401343FB607368022B01D0122B13
:1040E00028D13369B3B1092B14D0012B12D0022B84
:1040F00010D0042B0ED0052B0CD0062B0AD0072B8A
:1041000008D0082B06D00A2B04D00C2B02D00F2B82
:104110007FF470AFE208083257F8220004F007037A
:1041200099000F238B4020EA030033698B4003433F
:1041300047F822303B6809EA0309736803F0030378
:10414000AB4043EA09033B60736813F0805F8DD096
:10415000002301931F4B5A6C42F480425A645B6CFB
:1041600003F480430193019BA208911C174B53F861
:10417000210004F0030399000F238B4020EA030081
:104180000F4B9F423FF43DAF03F580639F420ED03B
:1041900003F580639F420CD003F580639F420AD0F1
:1041A00003F580639F423FF42AAF07232AE70123E8
:1041B00028E7022326E7032324E703B0BDE8F083C2
:1041C0000000024008D10008000011100038014032
:1041D000003C01400038024038B504460D4621B18C
:1041E00023691D4207D0012038BD4FF4BF71034839
:1041F000FEF771FCF4E70020F6E700BF08D10008E5
:1042000070B5054614460E4621B1012C08D86CB194
:10421000AE6170BD40F29F110648FEF75CFCF4E70A
:104220004FF4D0710348FEF756FCF0E73604AE6158
:10423000EFE700BF08D10008002800F04181F8B581
:1042400004460368A04A93420CD002F58062934270
:1042500008D002F58062934204D040F2BF119B481F
:10426000FEF739FC6368013B994A934200F2A9804A
:10427000A3681BB1B3F5804F40F0A980E36823F435
:104280007F7323F00303002B40F0A7802369B3F56D
:10429000804F03D0B3F5404F40F0A5806369012BF8
:1042A00000F2A780A36933F0FE0340F0A880E36921
:1042B00013B1402B40F0A980236A13B1802B40F04A
:1042C000AA8094F83D30002B00F0AB80242384F8C2
:1042D0003D302268136823F00103136022681368DD
:1042E00043F4004313602268136823F4004313600F
:1042F00001F074F86268774B9A4200F29880764B2E
:1043000098428CBF00230123002B40F0DB80734DCB
:10431000A5FB0035AF0C2668716821F03F0141EA2A
:104320009541716021680B6A23F03F036568694A13
:10433000954200F282807A1C13430B622568E9697A
:1043400021F44F4121F0FF016368624A93427ED815
:1043500001385B00B0FBF3F0013040F6FC7318420B
:1043600000F0AA80C0F30B030B43EB6121680B68DC
:1043700023F0C003E269206A024313430B60216803
:104380008B6823F4034323F0FF032269E0680243B0
:1043900013438B602168CB6823F0FF036269A06937
:1043A00002431343CB602268136843F00103136098
:1043B00000202064202384F83D30206384F83E00F0
:1043C000F8BD4FF4E0714148FEF785FB50E740F23D
:1043D000C1113E48FEF77FFB50E74FF4E1713B48C7
:1043E000FEF779FB52E740F2C3113848FEF773FB42
:1043F00054E74FF4E2713548FEF76DFB52E740F2A7
:10440000C5113248FEF767FB51E74FF4E3712F48BF
:10441000FEF761FB50E740F2C7112C48FEF75BFB4B
:104420004FE784F83C302046FDF7FAFA4EE72C4B74
:1044300098428CBF0023012366E74FF4967202FB7B
:1044400007F2284DA5FB02529209013274E7A268D7
:10445000BAB9461E03EB4307B6FBF7F60136C6F3BF
:104460000B06B6FA86F6760946BBC2B9421E03EBC6
:104470004303B2FBF3F20132C2F30B0242F40043F6
:1044800072E7461E03EB830707EB8707B6FBF7F6D9
:104490000136C6F30B06B6FA86F67609E4E7421E45
:1044A00003EB830303EB8303B2FBF3F20132C2F3AA
:1044B0000B0242F4404357E7042355E7012353E737
:1044C0000120704701207BE70054004074D10008B0
:1044D0007F1A0600A08601007F841E0083DE1B4336
:1044E000FF083D00D34D6210002800F03E8170B5FA
:1044F000044603689E4A934214D0A2F57842934240
:1045000010D002F5806293420CD002F578429342BB
:1045100008D002F5E052934204D040F21B119548B6
:10452000FEF7D9FA636843B1B3F5807F05D0B3F5E0
:10453000007F02D0B3F5407F7FD1A3683BB1102B41
:1045400005D0202B03D0302B01D0B02B7BD1E368DA
:10455000012B03D9032B01D0052B7AD12369B3F5A5
:10456000007F01D0002B7AD16369A3F5FA51824A0A
:10457000914201D9022B78D1A3690BB1082B7AD1D2
:10458000E369012B7DD894F84130002B7FD00222C3
:1045900084F841202168CB6923F47B6323F00F0367
:1045A000CB6123681A626369934200F09280E368EA
:1045B000002B74D11025A368202B00D86D0001209A
:1045C00001F082F82369B3F5007F6AD0B0FBF5F003
:1045D00000EB800043006069B3FBF0F30533674AEA
:1045E000A2FB0323C3F3C002C2EBD3035B08110297
:1045F0009A1EFD2A6FD822690A43216813430B6271
:104600002168CB6923F47B6323F00F036268A06801
:104610000243E0680243A0690243134343F400638A
:10462000CB61236A012B5CD8236A012B5FD0002069
:104630006064012384F8413070BD4FF48E714D48A1
:10464000FEF749FA79E740F21D114A48FEF743FAAE
:104650007DE74FF48F714748FEF73DFA7EE740F261
:104660001F114448FEF737FA7EE74FF49071414836
:10467000FEF731FA80E740F221113E48FEF72BFAAF
:104680007EE74FF491713B48FEF725FA7BE784F80B
:1046900040303B4B63632046FDF71AFA77E720254D
:1046A00089E7E36853B1AD00B0FBF5F000EB8000A3
:1046B00043006069B3FBF0F3053390E7ED00B0FB16
:1046C000F5F000EB800043006069B3FBF0F30533C5
:1046D00085E700218CE7636C43F0100363640120DD
:1046E000AAE740F2BD112348FEF7F5F99CE7254BF8
:1046F00063632268244B9A421FD04FF04022D36953
:1047000023F47B6323F00F03D36122681E4B9A428C
:1047100015D04FF0402302221A6222681A4B9A42A7
:1047200010D04FF04021CA6992B26368B3F5007FA0
:104730000AD0C3B94FF4807608E0144ADFE7A3F546
:104740008063E8E71149EEE74FF48076A068E568FA
:10475000238B2B439BB203439BB23343134343F45A
:104760000063CB6163E70026F0E70120704700BFDC
:1047700000300140E0D10008C0CE0200CDCCCCCC4E
:1047800007480008194A000800380040003400407B
:10479000704708B5426A03681288DA60436A0233D8
:1047A0004362438D9BB2013B9BB24385438D9BB2D9
:1047B00003B108BD0268536823F0A00353600123CE
:1047C00080F84130FFF7E4FFF3E7704708B503686E
:1047D000DA68C36A1A80C36A0233C362438E9BB22B
:1047E000013B9BB24386438E9BB203B108BD026876
:1047F000536823F060035360012380F84130FFF7D2
:10480000E4FFF3E7704710B584B00446026893688C
:10481000039390F84130DBB2042B06D094F841307A
:10482000DBB2032B2CD004B010BD039B13F0010F9F
:1048300003D0536813F0400F1FD1039B13F0400FB8
:10484000ECD023685A6812F0200FE7D05A6822F0A3
:1048500060025A60002301932368DA6801929B6822
:104860000193019B012384F84130636C43F0020300
:1048700063642046FFF7C6FFD0E7FFF7A7FFDCE73A
:10488000039B13F0020F04D023685B6813F0800FC2
:104890001DD1039B13F0080FC5D023685A6812F08E
:1048A000200FC0D05A6822F0A0025A600023029361
:1048B00023689B680293029B012384F84130636C58
:1048C00043F0040363642046FFF79CFFABE72046F8
:1048D000FFF75FFFDDE7704708B5436A9A1C426245
:1048E00002681B88D360438D9BB2013B9BB243851A
:1048F000438D9BB23BB90268536823F0A003536019
:10490000438E9BB203B108BD012380F84130FFF70D
:10491000E2FFF8E708B50268154B9A421CD04FF049
:104920004023DA68C36A991CC1621A80438E9BB225
:10493000013B9BB24386438E9BB263B902680C4B2A
:104940009A420CD04FF04022536823F0600353602A
:10495000438D9BB22BB108BDA3F58063E1E7054A07
:10496000F2E7012380F84130FFF7B5FFF3E700BF1E
:10497000003800400034004008B5436A9A1C426287
:104980001A880168134B994218D04FF04023DA601F
:10499000438D9BB2013B9BB24385438D9BB263B970
:1049A00002680C4B9A420CD04FF04022536823F01F
:1049B000A0035360438E9BB22BB108BDA3F5806367
:1049C000E5E7054AF2E7012380F84130FFF783FF6E
:1049D000F3E700BF003800400034004008B503682A
:1049E000DA68C36A991CC1621A80438E9BB2013B8C
:1049F0009BB24386438E9BB23BB90268536823F057
:104A000060035360438D9BB203B108BD012380F85E
:104A10004130FFF760FFF8E710B586B00446036841
:104A20009A680592704A93426FD04FF04022916885
:104A300004915B680393536802936368B3F5007F46
:104A400001D0002B70D1059B13F0020F03D0039B04
:104A500013F0800F5CD1049B13F0010F03D0029B75
:104A600013F0400F58D1049B13F0400F24D0029B49
:104A700013F0200F20D022685B4B9A4250D04FF0A9
:104A80004022536823F0600353602268536823F088
:104A9000A0035360002300932368DA6800929B68A8
:104AA0000093009B012384F84130636C43F00203C0
:104AB00063642046FFF7A6FE059B13F0080F22D083
:104AC000039B13F0200F1ED02268536823F0A0032D
:104AD00053602268444B9A4224D04FF040225368DE
:104AE00023F0600353600023019323689B680193C4
:104AF000019B012384F84130636C43F00403636439
:104B00002046FFF77FFE06B010BDA2F580628EE75B
:104B10002046FFF7E1FE9EE72046FFF7FBFEA2E7F7
:104B2000324AAEE7314ADAE7049B13F0020F03D0B2
:104B3000029B13F0800F4AD1059B13F0010F03D0A5
:104B4000039B13F0400F46D1059B13F0400F1CD080
:104B5000039B13F0200F18D02268536823F06003E2
:104B600053602268204B9A4239D04FF0402253685C
:104B700023F0A0035360012384F84130636C43F0B9
:104B8000020363642046FFF73DFE049B13F0080F09
:104B9000B9D0029B13F0200FB5D02268124B9A4275
:104BA0001FD04FF04022536823F0A00353602268C7
:104BB000536823F060035360012384F84130636C31
:104BC00043F0040363642046FFF71CFE9BE7204686
:104BD000FFF7D2FEB0E72046FFF700FFB4E7034A35
:104BE000C5E7024ADFE700BF00380040003400405C
:104BF000002800F05B8270B582B0044603680F2B7A
:104C000039D8236813F0010F4DD063682BB1B3F589
:104C1000803F02D0B3F5A02F32D1A54B9B6803F0A3
:104C20000C03042B36D0A24B9B6803F00C03082B1B
:104C30002BD06368B3F5803F5FD0B3F5A02F62D06F
:104C40009B4B1A6822F480321A601A6822F4802280
:104C50001A606368002B60D0FEF7A6F90546944BF6
:104C60001B6813F4003F1ED1FEF79EF9401B642819
:104C7000F5D9032021E2E8218E48FDF72CFFC0E79B
:104C8000ED218C48FDF727FFC7E7894B5B6813F4DC
:104C9000800FCED0864B1B6813F4003F03D06368AF
:104CA000002B00F00582236813F0020F66D0E36842
:104CB000012B41D823691F2B44D87D4B9B6813F0EF
:104CC0000C0F4AD07A4B9B6803F00C03082B3FD0A3
:104CD000E368002B76D0784B01221A60FEF764F966
:104CE0000546734B1B6813F0020F62D1FEF75CF9A7
:104CF000401B0228F5D90320DFE16D4A136843F415
:104D000080331360A5E76A4B1A6842F480221A6068
:104D10001A6842F480321A609BE7FEF745F90546AF
:104D2000634B1B6813F4003FBDD0FEF73DF9401BF9
:104D30006428F5D90320C0E140F21F115D48FDF75A
:104D4000CAFEB7E74FF490715A48FDF7C4FEB4E7C6
:104D5000574B5B6813F4800FBAD1554B1B6813F0A7
:104D6000020F03D0E368012B40F0A481504A13687E
:104D700023F0F803216943EAC1031360236813F0A9
:104D8000080F49D06369012B2ED8636993B34B4B4D
:104D900001221A60FEF708F90546454B5B6F13F0D8
:104DA000020F39D1FEF700F9401B0228F5D9032084
:104DB00083E13F4A136823F0F803216943EAC10302
:104DC0001360DBE73C4B00221A60FEF7EDF8054666
:104DD000374B1B6813F0020FD0D0FEF7E5F8401BED
:104DE0000228F5D9032068E14FF4B0713148FDF78E
:104DF00072FECAE7314B00221A60FEF7D5F805466D
:104E00002B4B5B6F13F0020F06D0FEF7CDF8401B63
:104E10000228F5D9032050E1236813F0040F00F0B5
:104E20008880A368012B01D9052B12D1204B1B6C64
:104E300013F0805F13D1002301931D4B1A6C42F0D5
:104E400080521A641B6C03F080530193019B01256F
:104E500006E04FF4C6711748FDF73DFEE6E7002572
:104E6000174B1B6813F4807F2CD0A368012B3DD017
:104E7000052B41D00E4B1A6F22F001021A671A6FF0
:104E800022F004021A67A368002B3FD0FEF78CF8CB
:104E90000646074B1B6F13F0020F48D1FEF784F84C
:104EA000801B41F288339842F3D9032005E100BF0B
:104EB000003802404CD2000800004742800E4742B2
:104EC00000700040844A136843F480731360FEF757
:104ED0006BF80646804B1B6813F4807FC5D1FEF744
:104EE00063F8801B0228F5D90320E6E07B4A136FA4
:104EF00043F001031367C6E7784B1A6F42F00402D0
:104F00001A671A6F42F001021A67BCE7FEF74CF805
:104F10000646724B1B6F13F0020F08D0FEF744F8E1
:104F2000801B41F288339842F3D90320C5E0002D5D
:104F30003AD1A369022B3DD8A369002B00F0BC80B5
:104F4000664A926802F00C02082A00F08F80022B59
:104F500078D1E36913B1B3F5800F31D1236A3F2BC8
:104F600034D8636AC03BF02B36D8A36A022B05D035
:104F7000042B03D0062B01D0082B33D1E36A023B6C
:104F80000D2B35D8564B00221A60FEF70DF805465A
:104F9000524B1B6813F0007F30D0FEF705F8401B22
:104FA0000228F5D9032088E04C4A136C23F0805383
:104FB0001364BEE740F2CF114A48FDF78CFDBBE712
:104FC0004FF4EC714748FDF786FDC7E740F2D91171
:104FD0004448FDF780FDC4E74FF4ED714148FDF70B
:104FE0007AFDC2E740F2DB113E48FDF774FDC5E7EC
:104FF0004FF4EE713B48FDF76EFDC3E7E369226AAB
:105000001343626A43EA8213A26A5208013A43EAEE
:105010000243E26A43EA0263304A5360304B0122A2
:105020001A60FDF7C1FF04462C4B1B6813F0007F8C
:1050300006D1FDF7B9FF001B0228F5D903203CE09B
:1050400000203AE0264B00221A60FDF7ADFF04462F
:10505000224B1B6813F0007F06D0FDF7A5FF001B55
:105060000228F5D9032028E0002026E0012B26D0D5
:105070001A4B5B6803F48001E269914221D103F08D
:105080003F02216A8A421ED1616A47F6C0721A4005
:105090008A421AD103F44032A16A8A4217D103F03E
:1050A0007063E26A934214D1002006E00120704749
:1050B000012002E0012000E0002002B070BD0120CC
:1050C000FBE70120F9E70120F7E70120F5E70120E0
:1050D000F3E70120F1E700BF007000400038024014
:1050E000600047424CD20008F8B52F4B9B6803F094
:1050F0000C03042B53D0082B53D12B4B5A6802F0CE
:105100003F025B6813F4800F28D0274B5B68C3F322
:10511000881358010021C01A61F100018E0146EA8E
:10512000906687013C1A66EB0105E90041EA54717B
:10513000E000C01841F100014B0243EAD0534402A1
:10514000204619460023FBF773FD174B5B68C3F33A
:10515000014301335B00B0FBF3F023E0124B5B68CB
:10516000C3F388135C010025E41A65F10005AE0164
:1051700046EA9466A701381B66EB0501CC0044EAB9
:105180005074C500E81844F100018B0243EA9053C3
:105190008402204619460023FBF74AFDD5E7034861
:1051A00000E00348F8BD00BF0038024000127A005A
:1051B0000024F400002800F0F78070B50D46044686
:1051C0000368013B0E2B6BD8072D6FD87A4B1B68F9
:1051D00003F00F03AB4208D2EBB2774A13701368A7
:1051E00003F00F03AB4240F0E180236813F0020F9D
:1051F00029D013F0040F04D0704A936843F4E053AD
:105200009360236813F0080F04D06C4A936843F44A
:1052100060439360A3687BB1802B0DD0902B0BD0A3
:10522000A02B09D0B02B07D0C02B05D0D02B03D09A
:10523000E02B01D0F02B3FD1604A936823F0F003BC
:10524000A1680B439360236813F0010F4ED063688D
:10525000032B37D86368012B3AD09A1E012A3ED916
:10526000564A126812F0020F00F0A28053498A6871
:1052700022F0030213438B60FDF796FE06464F4B68
:105280009B6803F00C036268B3EB820F2ED0FDF72E
:105290008BFE801B41F288339842F0D9032076E0E0
:1052A00040F251214648FDF716FC8DE740F25221AD
:1052B0004348FDF710FC89E740F275214048FDF7AF
:1052C0000AFCB9E74FF41F713D48FDF704FCC1E744
:1052D0003A4A126812F4003FC8D1012057E0374A19
:1052E000126812F0007FC1D1012050E0324B1B68E0
:1052F00003F00F03AB4207D9EAB22F4B1A701B68B9
:1053000003F00F03AB4255D1236813F0040F14D000
:10531000E3685BB1B3F5805F08D0B3F5A05F05D05B
:10532000B3F5C05F02D0B3F5E05F31D1234A936893
:1053300023F4E053E1680B439360236813F0080FF4
:1053400015D023695BB1B3F5805F08D0B3F5A05FDA
:1053500005D0B3F5C05F02D0B3F5E05F1ED1174AA8
:10536000936823F46043216943EAC1039360FFF724
:10537000BBFE124B9B68C3F30313124AD35CD840A5
:10538000114B1860114B1868FDF7C2FD002070BD6D
:1053900040F2BA210A48FDF79EFBC7E740F2C1215F
:1053A0000748FDF798FBDAE7012070470120EEE798
:1053B0000120ECE70120EAE7003C0240003802400F
:1053C0004CD20008A0CF00080000002008000020F8
:1053D000014B1868704700BF0000002008B5FFF7B8
:1053E000F7FF044B9B68C3F38223034AD35CD84086
:1053F00008BD00BF00380240B0CF000830B583B010
:1054000004460368013B0E2B22D8236813F0050FD6
:1054100052D0E368023B052B20D8A368C03BF02B99
:1054200022D86368023B3D2B24D8A04B00221A608F
:10543000FDF7BAFD05469E4B1B6813F0006F1FD0A9
:10544000FDF7B2FD431B022BF5D9032003B030BD9D
:1054500040F6D9119748FDF73EFBD6E74FF41E61A1
:105460009448FDF738FBD8E740F6E1119148FDF785
:1054700032FBD6E740F6E3118E48FDF72CFBD4E76C
:105480006368A26843EA8213E26843EA0273884AC7
:10549000C2F88430854B01221A60FDF785FD054670
:1054A000834B1B6813F0006F06D1FDF77DFD401B99
:1054B0000228F5D90320C9E7236813F0020F00F092
:1054C000CE802369B3F5807F79D0B3F5007F76D0A5
:1054D000794A934273D002F5803293426FD002F53D
:1054E000803293426BD002F58032934267D002F54E
:1054F0008032934263D002F5803293425FD002F54E
:10550000803293425BD002F58032934257D002F54D
:105510008032934253D002F5803293424FD002F54D
:10552000803293424BD002F58032934247D002F54D
:105530008032934243D002F5803293423FD002F54D
:10554000803293423BD002F58032934237D002F54D
:105550008032934233D002F5803293422FD002F54D
:10556000803293422BD002F58032934227D002F54D
:105570008032934223D002F5803293421FD002F54D
:10558000803293421BD002F58032934217D002F54D
:105590008032934213D002F5803293420FD002F54D
:1055A000803293420BD002F58032934207D002F54D
:1055B0008032934203D002F5803293421FD1002300
:1055C00001933B4B1A6C42F080521A641B6C03F03F
:1055D00080530193019B394A136843F4807313602D
:1055E000FDF7E2FC0546354B1B6813F4807F0CD1B8
:1055F000FDF7DAFC431B022BF5D9032026E740F622
:1056000012212C48FDF767FAD9E7294B1B6F13F4D9
:10561000407312D0226902F440729A420DD0244B9A
:105620001A6F22F4407226490120086000200860A9
:105630001A671B6F13F0010F1AD1236903F440722C
:10564000B2F5407F25D01A4A936823F4F81393608B
:1056500017490B6F2269C2F30B0213430B672368D0
:1056600013F0080F20D0227D164B1A600020EDE6C3
:10567000FDF79AFC05460E4B1B6F13F0020FDCD1B1
:10568000FDF792FC401B41F288339842F3D9032086
:10569000DCE607498A6822F4F81223F0704323F409
:1056A000407313438B60D3E70020CFE66800474286
:1056B00000380240B8D20008000302000070004029
:1056C000400E4742E0114742012801D000207047B8
:1056D000174B9B6813F4000303D0012B25D1154809
:1056E0007047134B5B6813F4800F15D0104BD3F841
:1056F000843003F03F031048B0FBF3F00C4AD2F8BB
:105700008430C3F3881300FB03F0D2F88430C3F372
:105710000273B0FBF3F07047054BD3F8843003F00D
:105720003F030648B0FBF3F0E8E70020704700BFF6
:10573000003802400080BB0000127A000024F40010
:105740002DE9F0410646884617461D463468A46890
:1057500038EA04030CBF01240024BC4237D0B5F161
:10576000FF3FF3D0FDF720FC069BC01AA84201D2F0
:10577000002DEBD13268536823F0E0035360736867
:10578000B3F5827F0BD0B36AB3F5005F14D0012369
:1057900086F85130002386F85030032018E0B368B3
:1057A000B3F5004F02D0B3F5806FECD132681368C7
:1057B00023F040031360E6E73268136823F40053D4
:1057C00013603268136843F400531360DFE700206E
:1057D000BDE8F08130B585B00446164B1868164B0D
:1057E000A3FB0030400D4FF47A7505FB00F00390E9
:1057F0006368B3F5827F0BD0039BBBB1039B013B76
:10580000039323689B6813F0800FF5D100200EE00E
:1058100000920B46002280212046FFF791FF30B115
:10582000636D43F020036365032000E0002005B0B2
:1058300030BD00BF00000020819F5E16002800F0F0
:10584000C88010B504460368634A934214D0A2F599
:105850007842934210D002F5806293420CD002F558
:105860007842934208D002F5E052934204D04FF4BC
:10587000A1715A48FDF72FF9636813B1B3F5827F20
:105880006BD1A3682BB1B3F5806F02D0B3F5004F95
:1058900069D1E368B3F5006F01D0002B69D1A3692A
:1058A000B3F5007F03D013B1B3F5802F67D1E3695F
:1058B0006BB1082B0BD0102B09D0182B07D0202B45
:1058C00005D0282B03D0302B01D0382B5DD1236A93
:1058D0000BB1802B5FD1636A0BB1102B61D1636A6E
:1058E00033B923690BB1022B61D16369012B64D8F1
:1058F0000023A36294F85130002B64D0022384F873
:1059000051302268136823F0400313606368A26873
:105910001343E26813432269134362691343A26984
:1059200002F400721343E2691343226A1343A16A2B
:1059300022680B431360638B03F00403616A2268DF
:105940000B4353602268D36923F40063D3610020C2
:105950006065012384F8513010BD40F243111F48A7
:10596000FDF7B9F88DE74FF4A2711C48FDF7B3F8C5
:105970008FE740F245111948FDF7ADF88FE74FF476
:10598000A3711648FDF7A7F891E740F247111348B5
:10599000FDF7A1F89BE74FF4A4711048FDF79BF8C1
:1059A00099E740F249110D48FDF795F897E74FF454
:1059B000A6710A48FDF78FF897E740F24D110748A6
:1059C000FDF789F894E784F850302046FDF7C6F8D3
:1059D00094E70120704700BF0030014028D3000841
:1059E0002DE9F04383B00446894690461D468368FE
:1059F00013B1B3F5004F4BD194F85030012B00F0A8
:105A0000CA80012384F85030FDF7CEFA074694F897
:105A10005160F6B2012E40F0AB80B9F1000F00F0FA
:105A2000A880B8F1000F00F0A480032384F851305F
:105A300000236365C4F83090A4F83480A4F836805D
:105A4000A363A387E38763642364A368B3F5004F6C
:105A500024D023681A6812F0400F03D11A6842F06C
:105A600040021A60E368B3F5006F1DD0636813B19C
:105A7000B8F1010F53D1226B236812781A73236B8C
:105A800001332363E38E9BB2013B9BB2E38646E086
:105A900040F2F2214148FDF71EF8ADE72268136895
:105AA00043F480431360D4E7636813B1B8F1010F86
:105AB00016D1226B23681288DA60236B02332363CA
:105AC000E38E9BB2013B9BB2E38609E0FDF76CFAE3
:105AD000C01BA84202D3B5F1FF3F54D1002D54D0D2
:105AE000E38E9BB2002B2ED023689A6812F0020F2F
:105AF000ECD0226B1288DA60236B02332363E38ECF
