:020000040800F2
:100000000000022081540008491A00084B1A000819
:100010004D1A00084F1A0008511A0008000000008D
:10002000000000000000000000000000531A00085B
:10003000551A000800000000571A0008591A000855
:10004000D1540008D1540008D1540008D1540008FC
:10005000D1540008D1540008D1540008D1540008EC
:10006000D1540008D1540008D1540008D1540008DC
:10007000D1540008D1540008D1540008D1540008CC
:10008000D1540008D1540008D154000800000000E9
:10009000000000000000000000000000D154000833
:1000A000D1540008611A0008D1540008D154000846
:1000B000D1540008D1540008D1540008D15400088C
:1000C000D1540008D1540008D1540008D15400087C
:1000D000D1540008D1540008D15400080000000099
:1000E000D1540008D1540008D15400080000000089
:1000F000000000000000000000000000D1540008D3
:1001000000000000D1540008D1540008D154000868
:1001100000000000000000000000000000000000DF
:10012000711A0008D1540008D1540008D1540008B5
:10013000D154000800000000000000000000000092
:10014000000000000000000000000000D154000882
:10015000D1540008D1540008D1540008D1540008EB
:10016000D1540008D1540008000000000000000035
:10017000000000000000000000000000000000007F
:1001800000000000D1540008000000000000000042
:08019000D1540008D15400080D
:1001980010B5054C237833B9044B13B10448AFF3B9
:1001A80000800123237010BD3C04002000000000E3
:1001B8009C56000808B5034B1BB103490348AFF32D
:1001C800008008BD00000000400400209C56000884
:1001D80081F0004102E000BF83F0004330B54FEAF0
:1001E80041044FEA430594EA050F08BF90EA020F5D
:1001F8001FBF54EA000C55EA020C7FEA645C7FEAF0
:10020800655C00F0E2804FEA5454D4EB5555B8BF12
:100218006D420CDD2C4480EA020281EA030382EA83
:10022800000083EA010180EA020281EA0303362D15
:1002380088BF30BD11F0004F4FEA01314FF4801CE8
:100248004CEA113102D0404261EB410113F0004FFA
:100258004FEA03334CEA133302D0524263EB4303B1
:1002680094EA050F00F0A780A4F10104D5F1200E4F
:100278000DDB02FA0EFC22FA05F2801841F10001AA
:1002880003FA0EF2801843FA05F359410EE0A5F17E
:1002980020050EF1200E012A03FA0EFC28BF4CF0AF
:1002A800020C43FA05F3C01851EBE37101F0004565
:1002B80007D54FF0000EDCF1000C7EEB00006EEB72
:1002C8000101B1F5801F1BD3B1F5001F0CD34908FC
:1002D8005FEA30004FEA3C0C04F101044FEA445253
:1002E80012F5800F80F09A80BCF1004F08BF5FEADA
:1002F800500C50F1000041EB045141EA050130BDBA
:100308005FEA4C0C404141EB0101013C28BFB1F5CB
:10031800801FE9D291F0000F04BF01460020B1FA16
:1003280081F308BF2033A3F10B03B3F120020CDAE9
:100338000C3208DD02F1140CC2F10C0201FA0CF0C7
:1003480021FA02F10CE002F11402D8BFC2F1200C2C
:1003580001FA02F120FA0CFCDCBF41EA0C019040E2
:10036800E41AA2BF01EB0451294330BD6FEA04042B
:100378001F3C1CDA0C340EDC04F11404C4F1200216
:1003880020FA04F001FA02F340EA030021FA04F328
:1003980045EA030130BDC4F10C04C4F1200220FA7F
:1003A80002F001FA04F340EA0300294630BD21FABD
:1003B80004F0294630BD94F0000F83F4801306BF83
:1003C80081F480110134013D4EE77FEA645C18BF77
:1003D8007FEA655C29D094EA050F08BF90EA020F0E
:1003E80005D054EA000C04BF1946104630BD91EA06
:1003F800030F1EBF0021002030BD5FEA545C05D109
:100408004000494128BF41F0004130BD14F5800447
:100418003CBF01F5801130BD01F0004545F0FE41BB
:1004280041F470014FF0000030BD7FEA645C1ABFF0
:10043800194610467FEA655C1CBF0B46024650EA27
:10044800013406BF52EA033591EA030F41F4002153
:1004580030BD00BF90F0000F04BF0021704730B5D9
:100468004FF4806404F132044FF000054FF00001AE
:1004780050E700BF90F0000F04BF0021704730B56F
:100488004FF4806404F1320410F0004548BF404244
:100498004FF000013EE700BF42004FEAE2014FEA99
:1004A80031014FEA02701FBF12F07F4393F07F4F74
:1004B80081F06051704732F07F4208BF704793F077
:1004C8007F4F04BF41F40021704730B54FF460748A
:1004D80001F0004521F000411CE700BF50EA01028D
:1004E80008BF704730B54FF000050AE050EA010236
:1004F80008BF704730B511F0004502D5404261EBA6
:1005080041014FF4806404F132045FEA915C3FF4E6
:10051800D8AE4FF003025FEADC0C18BF03325FEA83
:10052800DC0C18BF033202EBDC02C2F1200300FA34
:1005380003FC20FA02F001FA03FE40EA0E0021FA59
:1005480002F11444BDE600BF4FF0FF3C06E000BFD7
:100558004FF0010C02E000BF4FF0010C4DF804CD44
:100568004FEA410C7FEA6C5C4FEA430C18BF7FEA04
:100578006C5C1BD001B050EA410C0CBF52EA430C32
:1005880091EA030F02BF90EA020F0020704710F1B2
:10059800000F91EA030F58BF994208BF90422CBF41
:1005A800D8176FEAE37040F0010070474FEA410C3A
:1005B8007FEA6C5C02D150EA013C07D14FEA430C58
:1005C8007FEA6C5CD6D152EA033CD3D05DF8040BC9
:1005D800704700BF8446104662468C4619466346FB
:1005E80000E000BF01B5FFF7B7FF002848BF10F1D2
:1005F800000F01BD4DF808EDFFF7F4FF0CBF012017
:1006080000205DF808FB00BF4DF808EDFFF7EAFF92
:1006180034BF012000205DF808FB00BF4DF808ED4D
:10062800FFF7E0FF94BF012000205DF808FB00BF42
:100638004DF808EDFFF7CEFF94BF012000205DF8CC
:1006480008FB00BF4DF808EDFFF7C4FF34BF0120D9
:1006580000205DF808FB00BF80F0004002E000BF0A
:1006680081F0004142001FBF5FEA410392EA030F95
:100678007FEA226C7FEA236C6AD04FEA1262D2EBDF
:100688001363C1BFD218414048404140B8BF5B42E4
:10069800192B88BF704710F0004F40F4000020F07D
:1006A8007F4018BF404211F0004F41F4000121F093
:1006B8007F4118BF494292EA030F3FD0A2F10102DD
:1006C80041FA03FC10EB0C00C3F1200301FA03F11B
:1006D80000F0004302D5494260EB4000B0F5000F3E
:1006E80013D3B0F1807F06D340084FEA310102F1FD
:1006F8000102FE2A51D2B1F1004F40EBC25008BFAF
:1007080020F0010040EA03007047490040EB000078
:10071800013A28BFB0F5000FEDD2B0FA80FCACF179
:10072800080CB2EB0C0200FA0CF0AABF00EBC250A6
:1007380052421843BCBFD0401843704792F0000F94
:1007480081F4000106BF80F400000132013BB5E7E7
:100758004FEA41037FEA226C18BF7FEA236C21D05D
:1007680092EA030F04D092F0000F08BF08467047C2
:1007780090EA010F1CBF0020704712F07F4F04D190
:10078800400028BF40F00040704712F100723CBFA3
:1007980000F50000704700F0004343F0FE4040F4CD
:1007A800000070477FEA226216BF08467FEA23638B
:1007B8000146420206BF5FEA412390EA010F40F476
:1007C800800070474FF0000304E000BF10F00043C2
:1007D80048BF40425FEA000C08BF704743F09643A9
:1007E80001464FF000001CE050EA010208BF7047C4
:1007F8004FF000030AE000BF50EA010208BF70474B
:1008080011F0004302D5404261EB41015FEA010C5F
:1008180002BF84460146002043F0B64308BFA3F157
:100828008053A3F50003BCFA8CF2083AA3EBC25339
:1008380010DB01FA02FC634400FA02FCC2F1200258
:10084800BCF1004F20FA02F243EB020008BF20F08F
:100858000100704702F1200201FA02FCC2F12002F5
:1008680050EA4C0021FA02F243EB020008BF20EAEA
:10087800DC7070474FF0FF0C1CEAD0521EBF1CEA18
:10088800D15392EA0C0F93EA0C0F6FD01A4480EA06
:10089800010C400218BF5FEA41211ED04FF00063EF
:1008A80043EA501043EA5111A0FB01310CF000401B
:1008B800B1F5000F3EBF490041EAD3715B0040EA41
:1008C800010062F17F02FD2A1DD8B3F1004F40EB11
:1008D800C25008BF20F00100704790F0000F0CF0E4
:1008E800004C08BF49024CEA502040EA51207F3AA8
:1008F800C2BFD2F1FF0340EAC250704740F4000083
:100908004FF00003013A5DDC12F1190FDCBF00F073
:1009180000407047C2F10002410021FA02F1C2F121
:10092800200200FA02FC5FEA310040F1000053EABD
:100938004C0308BF20EADC70704792F0000F00F00B
:10094800004C02BF400010F4000F013AF9D040EA11
:100958000C0093F0000F01F0004C02BF490011F4A5
:10096800000F013BF9D041EA0C018FE70CEAD153A3
:1009780092EA0C0F18BF93EA0C0F0AD030F0004C23
:1009880018BF31F0004CD8D180EA010000F00040D7
:10099800704790F0000F17BF90F0004F084691F095
:1009A800000F91F0004F14D092EA0C0F01D14202CF
:1009B8000FD193EA0C0F03D14B0218BF084608D198
:1009C80080EA010000F0004040F0FE4040F40000E2
:1009D800704740F0FE4040F4400070474FF0FF0C75
:1009E8001CEAD0521EBF1CEAD15392EA0C0F93EABC
:1009F8000C0F69D0A2EB030280EA010C49024FEA0E
:100A0800402037D04FF0805343EA111143EA1013C6
:100A18000CF000408B4238BF5B0042F17D024FF47E
:100A2800000C8B4224BF5B1A40EA0C00B3EB510F59
:100A380024BFA3EB510340EA5C00B3EB910F24BF42
:100A4800A3EB910340EA9C00B3EBD10F24BFA3EBC7
:100A5800D10340EADC001B0118BF5FEA1C1CE0D18F
:100A6800FD2A3FF650AF8B4240EBC25008BF20F042
:100A7800010070470CF0004C4CEA50207F32C2BF96
:100A8800D2F1FF0340EAC250704740F400004FF033
:100A98000003013A37E792F0000F00F0004C02BF64
:100AA800400010F4000F013AF9D040EA0C0093F02E
:100AB800000F01F0004C02BF490011F4000F013B88
:100AC800F9D041EA0C0195E70CEAD15392EA0C0FF0
:100AD80008D142027FF47DAF93EA0C0F7FF470AF28
:100AE800084676E793EA0C0F04D14B023FF44CAF6B
:100AF80008466EE730F0004C18BF31F0004CCAD100
:100B080030F000427FF45CAF31F000437FF43CAF3B
:100B18005FE700BF4FF0FF3C06E000BF4FF0010C5D
:100B280002E000BF4FF0010C4DF804CD4FEA40023F
:100B38004FEA41037FEA226C18BF7FEA236C11D089
:100B480001B052EA530C18BF90EA010F58BFB2EB3C
:100B5800030088BFC81738BF6FEAE17018BF40F0BC
:100B6800010070477FEA226C02D15FEA402C05D170
:100B78007FEA236CE4D15FEA412CE1D05DF8040BF5
:100B8800704700BF844608466146FFE70FB5FFF788
:100B9800C9FF002848BF10F1000F0FBD4DF808ED40
:100BA800FFF7F4FF0CBF012000205DF808FB00BF31
:100BB8004DF808EDFFF7EAFF34BF012000205DF88B
:100BC80008FB00BF4DF808EDFFF7E0FF94BF0120D8
:100BD80000205DF808FB00BF4DF808EDFFF7D2FFD5
:100BE80094BF012000205DF808FB00BF4DF808ED18
:100BF800FFF7C8FF34BF012000205DF808FB00BFE5
:100C080053B94AB9002908BF00281CBF4FF0FF316B
:100C18004FF0FF3000F06CB9ADF1080C6DE904CE6F
:100C280000F006F8DDF804E0DDE9022304B07047BF
:100C38002DE9F047089E0D4604468E46002B40F0ED
:100C480082808A42174646D9B2FA82F24AB1C2F184
:100C5800200105FA02F320FA01F1974041EA030E58
:100C680094404FEA1748230CBEFBF8FCB9B208FBC6
:100C78001CEE43EA0E430CFB01F098420AD9FB181C
:100C88000CF1FF3580F01681984240F21381ACF1E7
:100C9800020C3B441B1AA4B2B3FBF8F008FB103358
:100CA80044EA034400FB01F1A14209D93C1900F1CF
:100CB800FF3380F00181A14240F2FE8002383C44BB
:100CC800641A40EA0C4000211EB1D4400023C6E952
:100CD8000043BDE8F08702B9FFDEB2FA82F2002ACB
:100CE8004FD1CB1B4FEA174E1FFA87F80121B3FBF0
:100CF800FEFC250C0EFB1C3345EA034508FB0CF3F0
:100D0800AB4207D97D190CF1FF3002D2AB4200F299
:100D1800E7808446ED1AA3B2B5FBFEF00EFB105532
:100D280043EA054408FB00F8A04507D93C1900F13F
:100D3800FF3302D2A04500F2D7801846A4EB08047E
:100D480040EA0C40C0E78B4208D9002E00F0AF8083
:100D58000021C6E900050846BDE8F087B3FA83F12B
:100D680000294BD1AB4202D3824200F2B780841AE9
:100D780065EB030301209E46002EAAD0C6E9004E6B
:100D8800A7E7C2F1200C01FA02F3974020FA0CF011
:100D98004FEA174E21FA0CFC1843BCFBFEF1050C78
:100DA8000EFB11CC1FFA87F845EA0C4501FB08F346
:100DB800AB4204FA02F409D97D1901F1FF3C80F035
:100DC8008B80AB4240F2888002393D44EB1A85B2F1
:100DD800B3FBFEF00EFB103345EA034500FB08F3B6
:100DE800AB4207D97D1900F1FF3C71D2AB426FD9F4
:100DF80002383D44EB1A40EA014178E7C1F1200C82
:100E08008B4022FA0CF71F4320FA0CF405FA01F381
:100E18004FEA174E25FA0CF51C43230CB5FBFEF9D7
:100E28001FFA87F80EFB195543EA054509FB08FA2E
:100E3800AA4502FA01F200FA01F308D97D1909F16D
:100E4800FF3047D2AA4545D9A9F102093D44A5EB8F
:100E58000A05A4B2B5FBFEF00EFB105544EA0544A2
:100E680000FB08F8A04507D93C1900F1FF352DD241
:100E7800A0452BD902383C4440EA0940A4EB0804B9
:100E8800A0FB02894C45C6464D4619D316D05EB123
:100E9800B3EB0E0264EB050404FA0CFCCA404CEAFE
:100EA8000202CC40C6E900240021BDE8F0873146A3
:100EB80030460EE7AC46EDE6184601E74345E6D274
:100EC800B8EB020E69EB07050138E0E72846D3E7DF
:100ED80060468FE78146BAE7614677E708464BE701
:100EE800ACF1020C3D4415E702383C4426E700BF4C
:100EF800704700BF00B585B00023009301930293AB
:100F080003931A481A4A02604FF4803242608360A1
:100F180001220261037680F82030C362154981629C
:100F2800C3600221C16180F83030426100F092FF55
:100F380098B9012300930193029369460B4801F085
:100F4800C1F968B90223009301936946074801F083
:100F5800B9F940B905B05DF804FB00F0A9FCE8E771
:100F680000F0A6FCEEE700F0A3FCF3E7580400202D
:100F7800002001400100000F30B589B00023039321
:100F88000493059306930793026803F1804303F5DE
:100F980090339A4201D009B030BD0446002501952E
:100FA80003F58C335A6C42F480725A645A6C02F41A
:100FB80080720192019A02951A6B42F001021A633B
:100FC8001B6B03F001030293029B06230393032385
:100FD8000493059503A90F4801F040FE0E480F4BF6
:100FE800036045608560C5604FF4806303614FF41A
:100FF800006343614FF400538361C5610562456234
:1010080001F060FB18B9044BA3639C63C3E700F0CD
:101018004FFCF8E700000240A004002010640240E2
:1010280000B583B000210191094B1A6B42F480028C
:101038001A631B6B03F480030193019B0A46382053
:1010480001F04EFA382001F091FA03B05DF804FB84
:10105800003802402DE9F04F8DB000240794089421
:1010680009940A940B9401946A4B1A6B42F010028B
:101078001A631A6B02F010020192019A02941A6B19
:1010880042F004021A631A6B02F004020292029AF6
:1010980003941A6B42F080021A631A6B02F0800202
:1010A8000392039A04941A6B42F001021A631A6BB2
:1010B80002F001020492049A05941A6B42F00202AB
:1010C8001A631A6B02F002020592059A06941A6BCB
:1010D80042F008021A631B6B03F008030693069B91
:1010E8004D4E22464FF48471304601F01DFFDFF863
:1010F8003C8101221146404601F016FFDFF830A17D
:1011080022464FF4A841504601F00EFF434F2246B5
:101118004FF61071384601F007FF0423079308942F
:10112800099407A9304601F099FD4FF48473079399
:101138000125089509940A9407A9304601F08EFD07
:1011480032230793364B0893099407A9304601F0D8
:1011580085FD0795089509940A9407A9404601F06A
:101168007DFD082307934FF00209CDF820900994DC
:101178000A9405230B9307A9404601F06FFD0795D4
:10118800284B08930994A8F5006807A9404601F080
:1011980065FD4FF4007BCDF81CB0234B08930994F0
:1011A80007A9304601F05AFD4FF4A8430793089564
:1011B80009940A9407A9504601F050FD4FF61073A0
:1011C8000793089509940A9407A9384601F046FD43
:1011D800CDF81CB00894099407A9404601F03EFDDB
:1011E8004FF4E0530793CDF82090099403230A9312
:1011F8000A230B9307A9404601F030FD20230793EB
:101208000894099407A9384601F028FD0DB0BDE8F7
:10121800F08F00BF0038024000100240000C02406E
:1012280000001210000011100000311000080240E8
:101238000004024008B50B480B4B03600B4B43609E
:1012480000238360C3604FF480420261436183617D
:10125800C361036201F084FE00B908BD00F028FBF9
:10126800FBE700BF0005002000540040A0860100F5
:1012780030B589B00023039304930593069307932D
:101288000268154B9A4201D009B030BD002501957E
:10129800124C236B43F002032363236B03F0020316
:1012A8000193019B4FF410730393122304930123BA
:1012B800059306950423079303A9094801F0CEFC7A
:1012C8000295236C43F400132364236C03F4001386
:1012D8000293029BD8E700BF005400400038024048
:1012E8000004024008B50B480B4B03604FF4007232
:1012F800426000238360C3600261084A42618361DF
:10130800C361036201F084FF00B908BD00F0D0FAA0
:10131800FBE700BF54050020003C004000770100B7
:1013280070B588B00023039304930593069307933D
:1013380002681F4B9A4201D008B070BD0024009487
:1013480003F5FE331A6C42F400421A641A6C02F474
:1013580000420092009A01941A6B42F001021A634B
:101368001A6B02F001020192019A02941A6B42F080
:1013780004021A631B6B03F004030293029B1023FD
:10138800039302260496059406940625079503A957
:10139800084801F063FC4FF4A453039304960594A2
:1013A8000694079503A9044801F058FCC4E700BF58
:1013B800003C0040000002400008024002680A4B5E
:1013C8009A4200D0704710B5084B01221A70084C99
:1013D800204600F0EFFE074900230B804B800222D5
:1013E800204600F029FE10BD00200140A005002085
:1013F800580400209C0500200268044B9A4200D043
:101408007047034A136801331360F9E70044014049
:10141800A405002070B59AB0302200210EA804F06F
:1014280079F8002409940A940B940C940D9403946D
:101438000494059406940794089401941F4B1A6C1D
:1014480042F080521A641B6C03F080530193019B95
:1014580002941B4B1A6842F440421A601B6803F45A
:1014680040430293029B01260E964FF480330F935C
:10147800022514954FF48003159304231693C02274
:1014880017921893082319930EA802F045FA0F2310
:1014980009930A950B944FF4A0530C930D940321D0
:1014A80009A802F01BFD0396C8230593052304939E
:1014B800069503A802F036FE1AB070BD0038024047
:1014C8000070004070B584B000F0DCFBFFF7A2FFAD
:1014D800FFF7C0FDFFF7A4FDFFF70CFDFFF7AAFE1D
:1014E800FFF700FF00F0E6F900F004FA00F0CCFA8C
:1014F80000F0A0FB00F062FBA24803F099F9022279
:10150800A149A24800F098FD00224FF48071A0483C
:1015180001F00AFD51E001224FF480519D4801F08D
:1015280003FD9D492046FFF761FB002878D09A4CBF
:1015380076E0984C01224FF40051204601F0F4FC6B
:1015480001224FF48071204601F0EEFC642000F087
:10155800C5FB00224FF48071204601F0E5FC65E0F0
:1015680001224FF400618B4801F0DEFC06E0BDF873
:1015780002309BB240F6B83293427CD84FF4807167
:10158800834801F0BDFC0128FDD0814C01224FF4B5
:101598008071204601F0C8FC4FF48071204601F0AC
:1015A800AFFC012875D000224FF48071204601F06D
:1015B800BBFC4FF4967000F091FB01224FF40071D0
:1015C800744801F0B1FC754B1B78002BF5D0734BB8
:1015D80000221A706D4D284600F0ECFD6A4E02227A
:1015E8003146284600F028FD3488A4B273889BB29F
:1015F800ADF80230284600F0DDFD2046FFF7E2F89E
:101608006749FFF72DF86449FFF734F96549FFF793
:10161800E5F904466449FFF7DFFA00287FF47BAF59
:1016280062492046FFF7CEFA002882D1BDF8023081
:101638009BB2B3F57A7F05D9BDF802309BB2B3F5FA
:10164800FA6F8DD3BDF802309BB2B3F57A7F8ED294
:10165800BDF802309BB2002B89D04E4C01224FF4CA
:101668000061204601F060FC01224FF480612046B1
:1016780001F05AFC82E7474C00224FF400612046F3
:1016880001F052FC00224FF48061204601F04CFC2E
:1016980074E73C4B1B68DA6822F00102DA60444ABE
:1016A80014685A6A42F2107101FB0424DA6842F0A5
:1016B8000102DA60DA6822F00102DA603C4A126854
:1016C800596A42F2107000FB0212D96841F0010118
:1016D800D96004F110018A42ECD32D4C00224FF45A
:1016E8008071204601F020FC4FF48071204601F003
:1016F80007FC002835D14FF40071254801F000FCA3
:10170800012839D01F4B1B68DA6822F00102DA6021
:10171800274A14685A6A42F2107101FB0424DA68F5
:1017280042F00102DA604FF40071194801F0E8FB59
:10173800002841D1134B1A68D36823F00103D36002
:101748001B4B1B68516A42F2107000FB0313D168EF
:1017580041F00101D1601B1B164A9342E3D90125D0
:101768002BE000224FF48071204601F0DDFB4FF49E
:10177800967000F0B3FA20E74FF4967000F0AEFAD6
:101788001BE700BF580600209C05002058040020D5
:1017980000100240000C02400000C842A0050020D2
:1017A80000A06B4500E0A8C40000AA420000A842BF
:1017B800A405002020A107000025002D5DD1344B91
:1017C8001B68DA6822F00102DA60324A16685A6A3F
:1017D80042F2107101FB0626DA6842F00102DA6073
:1017E8004FF400712C4801F08BFB012815D1284BD0
:1017F8001A68D36823F00103D360264B1B68516A2B
:1018080042F2107000FB0313D16841F00101D1606E
:101818001B1B224A9342E3D90125002D32D11C4BD0
:101828001A68D36823F00103D3601A4B1B68516A06
:1018380042F2107000FB0313D16841F00101D1603E
:101848009E1B01960198164BA3FB00304009FEF73A
:1018580001FECDE902010022124BDDE90201FEF78B
:10186800D3FE08B9DDE902230F4900230B804B8022
:1018780002220E4800F0E0FB9FE64FF4967000F05D
:101888002DFA9AE64FF4967000F028FA95E600BF14
:1018980058060020A40500200010024020A10700DF
:1018A80009CB3D8D00407F409C0500205804002056
:1018B8007047704708B50D480D4B03604FF48273AD
:1018C800436000238360C360036143614FF4007287
:1018D8008261C3610362436283620A23C36202F0C6
:1018E800C3FD00B908BDFFF7E3FFFBE7A80500202B
:1018F8000030014008B50D480D4B03604FF482736A
:10190800436000238360C360036143614FF4007246
:101918008261C3610362436283620A23C36202F085
:10192800A3FD00B908BDFFF7C3FFFBE700060020D1
:101938000038004000B58BB0002305930693079349
:10194800089309930368294A934205D0284A934289
:1019580026D00BB05DF804FB00220192254B596C90
:1019680041F480515964596C01F4805101910199F5
:101978000292196B41F0010119631B6B03F001031B
:101988000293029BE0230593022306930792032305
:1019980008930523099305A9174801F05FF9D8E7CB
:1019A80000220392134B196C41F480411964196C9D
:1019B80001F48041039103990492196B41F00201EB
:1019C80019631B6B03F002030493049B4FF4204339
:1019D800059302230693079203230893052309938B
:1019E80005A9064801F03AF9B3E700BF0030014005
:1019F8000038004000380240000002400004024065
:101A080000B583B0002100910C4B5A6C42F480421F
:101A18005A645A6C02F480420092009A01911A6C3E
:101A280042F080521A641B6C03F080530193019BAF
:101A3800072000F037FD03B05DF804FB00380240D2
:101A48007047FEE7FEE7FEE7FEE77047704770471E
:101A580008B500F031F908BD08B5024802F029FFC1
:101A680008BD00BF5806002008B5024801F008F874
:101A780008BD00BFA0040020024B4FF000629A602E
:101A8800704700BF00ED00E000B587B00023029367
:101A9800039304930593009301931448144A026036
:101AA800436083604FF6FF72C2600361836103F095
:101AB8000BF890B94FF48053029302A90B4803F036
:101AC80057FA68B90023009301936946074803F061
:101AD80059FC40B907B05DF804FBFFF7E9FEE9E7F8
:101AE800FFF7E6FEEEE7FFF7E3FEF3E798060020D0
:101AF8000004004000B583B00368154A934205D03E
:101B0800144A93420FD003B05DF804FB00230093FE
:101B1800114B1A6C42F002021A641B6C03F00203A8
:101B28000093009BEFE7002101910B4B5A6C42F4A4
:101B380000325A645B6C03F400330193019B0A463C
:101B4800192000F0CDFC192000F010FDDBE700BFE4
:101B580000040040004401400038024000B587B04E
:101B68000023019302930393049305930268104B97
:101B78009A4202D007B05DF804FB002300930D4A97
:101B8800116B41F002011163126B02F00202009224
:101B9800009A4FF4807201920222029203930493F6
:101BA8000323059301A9044801F058F8E2E700BFB0
:101BB80000440140003802400004024000B589B0EA
:101BC80000230193029303930493059306930793C9
:101BD8001648174A02605F224260836042F2107220
:101BE800C2600361836102F06FFFA8B90F4802F079
:101BF800D7FFA0B9602301930F2302930022039219
:101C0800059201A9094803F091F858B90748FFF768
:101C1800A5FF09B05DF804FBFFF74AFEE6E7FFF70A
:101C280047FEE7E7FFF744FEF0E700BF580600204D
:101C3800004401407047000010B504460E4B187868
:101C48004FF47A73B3FBF0F30C4A1068B0FBF3F06F
:101C580000F0A4FC68B90F2C01D901200AE0002289
:101C680021464FF0FF3000F03BFC054B1C60002084
:101C780000E0012010BD00BF04000020000000208B
:101C88000800002008B50B4B1A6842F400721A606D
:101C98001A6842F480621A601A6842F480721A6004
:101CA800032000F0FFFB0020FFF7C6FFFFF7A8FEA8
:101CB800002008BD003C0240034A1168034B1B7812
:101CC8000B441360704700BFD806002004000020B2
:101CD800014B1868704700BFD806002038B5044685
:101CE800FFF7F6FF0546B4F1FF3F02D0044B1B781F
:101CF8001C44FFF7EDFF401BA042FAD338BD00BFDC
:101D08000400002010B504464F4B5A6822F44032B4
:101D18005A605A6841680A435A600268536823F453
:101D28008073536002685368016943EA0123536072
:101D38000268536823F040735360026853688168EF
:101D48000B4353600268936823F40063936002684E
:101D58009368C1680B439360826A3C4B9A425BD09C
:101D68000268936823F07063936002689368816ADD
:101D78000B4393600268936823F0405393600268B2
:101D88009368C16A0B4393602268936823F0020347
:101D9800936022689368217E43EA4103936094F834
:101DA8002030002B49D0636A013B072B3FD82268BB
:101DB800536843F4006353602268536823F4604314
:101DC800536021684B68626A013A43EA42334B60C8
:101DD8002268D36A23F47003D3622168CB6AE2696C
:101DE800013A43EA0253CB622268936823F40073F2
:101DF80093602268936894F8301043EA4123936013
:101E08002268936823F48063936022689368616909
:101E180043EA8123936010BD0268936823F07063DE
:101E280093600268936823F040539360ACE740F2F4
:101E380075710748FFF73DFDB9E72268536823F439
:101E480000635360C4E700BF002301400100000F96
:101E5800CC560008002800F0E68010B50446026859
:101E6800724B9A4204D040F243117148FFF721FDAA
:101E7800636843B1B3F5803F05D0B3F5003F02D0A6
:101E8800B3F5403F71D1A36843B1B3F1807F05D06A
:101E9800B3F1007F02D0B3F1407F6CD12369012BED
:101EA8006FD8237E012B72D8A36A7BB3B3F1807FEE
:101EB8002CD0B3F1007F29D0B3F1407F26D0B3F105
:101EC800806F23D0B3F1A06F20D0B3F1C06F1DD0C5
:101ED800B3F1E06F1AD0B3F1006F17D0B3F1106F00
:101EE80014D0B3F1206F11D0B3F1306F0ED0B3F12D
:101EF800406F0BD0B3F1506F08D0B3F1606F05D0CD
:101F0800B3F1706F02D04B4A934246D1E36813B1E4
:101F1800B3F5006F47D1E369013B0F2B49D894F81B
:101F28003030012B4BD86369022B4ED894F82030FF
:101F3800012B50D8A26A3F4B9A420AD0E36A43B1B8
:101F4800B3F1805F05D0B3F1005F02D0B3F1405F19
:101F580047D1236C002B4AD0236C13F0100F4ED0BE
:101F68000120002384F83C3010BD4FF4A2713048A2
:101F7800FFF79FFC87E740F245112D48FFF799FCD2
:101F88008CE74FF4A3712A48FFF793FC89E740F2E6
:101F980047112748FFF78DFC86E74FF4A4712448C2
:101FA800FFF787FCB2E740F249112148FFF781FCAF
:101FB800B1E74FF4A5711E48FFF77BFCAFE740F28D
:101FC8004B111B48FFF775FCADE74FF4A671184895
:101FD800FFF76FFCAAE740F24D111548FFF769FCBF
:101FE800A8E740F251111248FFF763FCB1E7204619
:101FF800FEF7C2FF0023636484F83C30ACE7236C2F
:1020080023F4885323F0020343F002032364204699
:10201800FFF778FE00206064236C23F0030343F08D
:10202800010323649DE70120704700BF00200140A1
:10203800CC5600080100000F70B582B004460D466A
:10204800164600230193037E012B2AD8E36A43B185
:10205800B3F1805F05D0B3F1005F02D0B3F1405F08
:1020680025D194F83C30012B00F08A80012384F8B4
:102078003C3023689A6812F0010F1ED19A6842F02A
:1020880001029A60434B1B68434AA2FB03239B0C43
:1020980003EB43030193019B7BB1019B013B01933C
:1020A800F9E74FF4A8613D48FFF703FCCEE740F29B
:1020B80041513A48FFF7FDFBD3E72268936813F0D4
:1020C800010F5FD0236C23F4E06323F0010343F492
:1020D80080732364536813F4806F05D0236C23F452
:1020E800405343F480532364236C13F4805F34D04B
:1020F800636C23F006036364002384F83C30A36B0D
:10210800274ADA63A36B274A1A64A36B264ADA6460
:1021180023686FF022021A602268536843F08063D4
:1021280053602268936843F4807393602168334650
:102138002A464C31A06B00F00DFC1C4B5B6813F079
:102148001F0F0DD123689A6812F0405F1DD19A685D
:1021580042F080429A60002015E000236364CBE7D8
:102168002368134A934201D000200CE09A6812F0C9
:10217800405F0CD19A6842F080429A60002002E0E9
:10218800022000E0002002B070BD0020FBE7002024
:10219800F9E700BF0000002083DE1B43CC5600088F
:1021A8005922000837220008432200080023014072
:1021B8000020014010B5044602681A4B9A4204D028
:1021C80040F2C4511848FFF774FB94F83C30012BD7
:1021D80026D0012384F83C302268936823F0010359
:1021E800936023689A6812F0010F04D0002000233E
:1021F80084F83C3010BD9A6822F480729A60A06B13
:1022080000F0F4FB2268536823F080635360236C6A
:1022180023F4885323F0010343F001032364E6E722
:102228000220E7E700200140CC560008704708B5B7
:10223800806BFFF7FBFF08BD704708B5806B402334
:102248000364436C43F004034364FFF7F5FF08BDE0
:1022580008B50346806B026C12F0500F25D1036C51
:1022680043F40073036403689A6812F0405F19D15D
:10227800027EBAB9DA6A12F4700F03D09A6812F4BF
:10228800806F0FD15A6822F020025A60036C23F441
:1022980080730364036C13F4805F03D1036C43F011
:1022A80001030364FFF78AF808BD026C12F0100FEF
:1022B80004D1826BD26C18469047F5E7FFF7BCFF54
:1022C800F2E7000030B583B005460C4600230193C1
:1022D8000B68122B4ED86368013B0F2B50D8A368AC
:1022E800072B53D895F83C30012B00F0CD80012303
:1022F80085F83C302368092B4ED92868C2689BB200
:1023080003EB43031E3B072101FA03F322EA03030D
:10231800C3602868C268A168238803EB43031E3B97
:1023280001FA03F31343C3606368062B4AD828688D
:10233800426B03EB8303053B1F2101FA03F322EAF7
:10234800030343632868426B636803EB8303053B1D
:10235800218801FA03F3134343632A684B4B9A42DB
:1023680060D02A68494B9A4269D0002085F83C0021
:1023780003B030BD4FF4CB614548FFF79AFAAAE79E
:1023880040F259614248FFF794FAA8E740F25A61CF
:102398003F48FFF78EFAA5E7286802699BB203EB6E
:1023A8004303072101FA03F322EA030303612868C0
:1023B8000269A168238803EB430301FA03F313437B
:1023C8000361B1E70C2B16D82868026B03EB830373
:1023D800233B1F2101FA03F322EA0303036328685E
:1023E800026B636803EB8303233B218801FA03F341
:1023F80013430363B1E72868C26A03EB8303413BD5
:102408001F2101FA03F322EA0303C3622868C26AA0
:10241800636803EB8303413B218801FA03F3134309
:10242800C3629AE72368122B9BD11A4B5A6822F48D
:1024380000025A605A6842F480025A6091E72368A1
:10244800154A934201D0112B8FD1124B5A6822F4AE
:1024580080025A605A6842F400025A6022680E4BA1
:102468009A4282D10D4B1B680D4AA2FB03239B0C99
:1024780003EB83035B00019302E0019B013B0193A3
:10248800019B002BF9D170E7022071E70020014081
:10249800CC56000800230140120000100000002064
:1024A80083DE1B4310B50446C31E042B0FD80A4A0B
:1024B800D36823F4E0631B041B0C240204F4E064D7
:1024C800234343F0BF6343F40033D36010BD92212C
:1024D8000248FFF7EEF9EAE700ED00E03C57000894
:1024E80070B505460C4616460F2A25D80F2C28D855
:1024F8001B4BDB68C3F30223C3F10701042928BF80
:1025080004211A1D062A21D9033B4FF0FF3202FA93
:1025180001F124EA01049C4002FA03F326EA0306C7
:102528003443002D14DB2401E4B205F1604505F5C0
:10253800614585F8004370BDAA210A48FFF7B9F93B
:10254800D4E7AB210748FFF7B4F9D1E70023DCE76C
:1025580005F00F052401E4B2034B5C55EBE700BF1F
:1025680000ED00E03C57000814ED00E010B5041E33
:102578000ADB002C07DB04F01F02640901239340E7
:10258800044A42F8243010BDBE210348FFF791F9F0
:10259800EFE700BF00E100E03C5700080138B0F168
:1025A800807F0AD2064B5860064AF02182F8231031
:1025B8000020986007221A6070470120704700BF0A
:1025C80010E000E000ED00E030B405682C6824F469
:1025D80080242C60046863608368402B05D00368FE
:1025E80099600368DA6030BC704703689A600368D2
:1025F800D960F8E710B40368D9B210390B4AA2FBC6
:10260800014212090A4CA25CC2655F2908D923F469
:102618007F7323F0030304338365806D10BC704718
:1026280023F47F7323F003038365F6E7ABAAAAAA12
:102638001C580008836A826992B9012B0AD0022BC0
:1026480002D00BB100207047C36A13F0807F28D1F5
:1026580000207047C36AB3F1C07F24D000207047C0
:10266800B2F5005F09D0022B25D9032B25D1C36A07
:1026780013F0807F23D100207047032B03D8DFE8B5
:1026880003F01404140A00207047C36A13F0807F13
:102698000DD100207047C36AB3F1C07F09D0002074
:1026A80070470120704701207047012070470120C2
:1026B80070470120704701207047002070470120B3
:1026C8007047000070B50446FFF702FB002C00F0CD
:1026D8003881054623689C4A934231D01832934288
:1026E8002ED0183293422BD01832934228D0183269
:1026F800934225D01832934222D0183293421FD0E9
:10270800183293421CD002F55672934218D01832F0
:10271800934215D01832934212D0183293420FD0F8
:10272800183293420CD01832934209D0183293428F
:1027380006D01832934203D0B8218448FFF7B9F87D
:102748006368A3B1B3F1007F11D0B3F1806F0ED0ED
:10275800B3F1C06F0BD0B3F1006F08D0B3F1206FA5
:1027680005D0B3F1406F02D0B3F1606F6DD1A368AB
:102778001BB1402B01D0802B6CD1E368B3F5007FEF
:1027880001D0002B6BD12369B3F5806F01D0002BEA
:102798006AD163692BB1B3F5006F02D0B3F5805FDE
:1027A80067D1A3692BB1B3F5005F02D0B3F5804FB1
:1027B80064D1E36923B1B3F5807F01D0202B62D1C6
:1027C800236A43B1B3F5803F05D0B3F5003F02D08B
:1027D800B3F5403F5CD1636A0BB1042B5DD1636AEA
:1027E800C3B1A36A032B5DD8E36A43B1B3F5000F05
:1027F80005D0B3F1807F02D0B3F1C07F57D1236BEE
:1028080043B1B3F5001F05D0B3F5800F02D0B3F57F
:10281800C00F51D1002384F83430022384F83530B6
:102828002268136823F00103136023681A6812F002
:10283800010F46D0FFF74CFA401B0528F5D9202395
:102848006365032084F8350070BDB9213F48FFF760
:1028580030F88CE7BA213D48FFF72BF88DE7BB210C
:102868003A48FFF726F88EE7BC213848FFF721F8E9
:102878008FE7BD213548FFF71CF892E7BE213348A2
:10288800FFF717F895E7BF213048FFF712F897E7E9
:10289800C0212E48FFF70DF89DE7C1212B48FFF70F
:1028A80008F89CE7C6212948FFF703F89CE7C721E9
:1028B8002648FEF7FEFFA2E7C8212448FEF7F9FFE5
:1028C800A8E71A68224810406168A2680A43E168CC
:1028D8000A4321690A4361690A43A1690A43E16914
:1028E8000A43216A0A430243616A04291ED01A6016
:1028F8002668756925F00705636A1D43042B07D10F
:10290800A36A1D43E36A1BB12046FFF793FE90B903
:1029180075612046FFF76EFEE26D3F2393408360AA
:1029280000206065012384F835308DE7E16A206B6B
:1029380001430A43DBE740236365012084F835003F
:1029480082E7012080E700BF10600240AC57000812
:102958003F8010F02DE9F04104460E4617461D460B
:10296800D0F858805A1E4FF6FE739A4211D894F840
:102978003430012B36D0012384F8343094F83530C4
:10298800DBB2012B0BD0002384F834300220BDE8E1
:10299800F0814FF4E6711448FEF78BFFE7E7022356
:1029A80084F83530002363652B463A463146204685
:1029B800FFF70AFEE26D3F239340C8F8083022680B
:1029C800136843F016031360236C23B1226813685D
:1029D80043F0080313602268136843F0010313608F
:1029E8000020D4E70220D2E7AC57000870B50446AF
:1029F800866DFFF76DF994F83530DBB2022B06D0FF
:102A080080236365002384F83430012070BD0546B7
:102A18002268136823F0160313602268536923F0B1
:102A280080035361236CE3B12268136823F0080321
:102A380013602268136823F00103136023681B687E
:102A480013F0010F11D0FFF743F9431B052BF5D9FC
:102A580020236365002384F83430032084F835008C
:102A6800D4E7A36C002BDFD1E3E7E26D3F2393406B
:102A7800B360002084F83400012384F83530C5E7BA
:102A8800F0B583B0044600230193724B1D68724B66
:102A9800A3FB0535AD0A876D3E68C26D08239340D8
:102AA800334210D003681A6812F0040F0BD01A686A
:102AB80022F004021A60C26D08239340BB60436D84
:102AC80043F001034365E26D01239340334209D08B
:102AD8002268526912F0800F04D0BB60636D43F026
:102AE80002036365E26D04239340334209D02268F0
:102AF800126812F0020F04D0BB60636D43F0040348
:102B08006365E26D10239340334224D02268126833
:102B180012F0080F1FD0BB6023681A6812F4802FC8
:102B28000DD01B6813F4002F04D1236C9BB12046F1
:102B3800984710E0A36C73B1204698470BE01A68D9
:102B480012F4807F03D11A6822F008021A60236CFD
:102B58000BB120469847E26D20239340334255D06D
:102B68002268126812F0100F50D0BB6094F835300C
:102B7800DBB2052B0ED023681A6812F4802F33D0ED
:102B88001B6813F4002F2AD1636C002B3ED020461B
:102B980098473BE02268136823F016031360226805
:102BA800536923F080035361236CA3B1226813682F
:102BB80023F008031360E26D3F239340BB600023BA
:102BC80084F83430012384F83530236D002B3FD04E
:102BD800204698473CE0A36C002BE7D1EBE7E36B7A
:102BE800A3B12046984711E01A6812F4807F09D1F2
:102BF8001A6822F010021A60002384F83430012386
:102C080084F83530E36B0BB120469847636DFBB110
:102C1800636D13F0010F17D0052384F8353022684F
:102C2800136823F001031360019B01330193AB4246
:102C380004D823681B6813F0010FF5D1002384F82A
:102C48003430012384F83530E36C0BB120469847C3
:102C580003B0F0BD00000020B5814E1B2DE9F04304
:102C680083B007460E46A04B984217D003F5806301
:102C7800984213D003F5806398420FD003F5806320
:102C880098420BD003F58063984207D003F5406360
:102C9800984203D0B3219548FEF70BFE33689AB2E9
:102CA80012B11B0C1B041BB1B4219048FEF701FEA6
:102CB8007368012B1ED9112B1CD0022B1AD0122B92
:102CC80018D08B4A934215D002F58012934211D046
:102CD80002F5801293420DD0A2F5F812934209D062
:102CE80002F58012934205D002F58012934201D07A
:102CF800032B04D1B368022B06D800244BE0B5217E
:102D08007A48FEF7D6FDF5E7B6217848FEF7D1FDFB
:102D1800F3E7C8217548FEF7CCFD52E0E02173487F
:102D2800FEF7C7FD8AE0042300E000238B4003433D
:102D38000232704941F822306F4B1A686FEA080373
:102D480022EA0801706810F4803F01D048EA0201C5
:102D5800694A1160526803EA0201706810F4003F82
:102D680001D048EA0201644A5160926803EA02010C
:102D7800706810F4801F01D048EA02015E4A916031
:102D8800D2681340716811F4001F01D048EA0203A9
:102D9800594AD36001340F2C00F2A3800125A540C5
:102DA800336803EA050835EA0303F3D173685A1E4A
:102DB800012A03D9112B01D0122B15D1F368032B4B
:102DC800A7D8BA68610003238B4022EA0302F3689C
:102DD8008B401343BB607A6822EA05027368C3F329
:102DE8000015A54015437D60FA6865000323AB40D4
:102DF8006FEA030922EA0302B368AB401343FB609E
:102E08007368022B01D0122B28D13369B3B1092B77
:102E180014D0012B12D0022B10D0042B0ED0052B6E
:102E28000CD0062B0AD0072B08D0082B06D00A2B6B
:102E380004D00C2B02D00F2B7FF470AFE2080832BD
:102E480057F8220004F0070399000F238B4020EA6B
:102E5800030033698B40034347F822303B6809EA93
:102E68000309736803F00303AB4043EA09033B60BB
:102E7800736813F0805F8DD0002301931F4B5A6C49
:102E880042F480425A645B6C03F480430193019BD3
:102E9800A208911C174B53F8210004F00303990072
:102EA8000F238B4020EA03000F4B9F423FF43DAFB6
:102EB80003F580639F420ED003F580639F420CD0D8
:102EC80003F580639F420AD003F580639F423FF475
:102ED8002AAF07232AE7012328E7022326E703234B
:102EE80024E703B0BDE8F08300000240245800083E
:102EF8000000111000380140003C01400038024039
:102F080038B504460D4621B123691D4207D001207A
:102F180038BD4FF4BF710348FEF7CBFCF4E700203F
:102F2800F6E700BF2458000870B5054614460E465B
:102F380021B1012C08D86CB1AE6170BD40F29F116F
:102F48000648FEF7B6FCF4E74FF4D0710348FEF7E5
:102F5800B0FCF0E73604AE61EFE700BF2458000884
:102F6800002800F04181F8B504460368A04A93425E
:102F78000CD002F58062934208D002F58062934239
:102F880004D040F2BF119B48FEF793FC6368013BF5
:102F9800994A934200F2A980A3681BB1B3F5804F08
:102FA80040F0A980E36823F47F7323F00303002B28
:102FB80040F0A7802369B3F5804F03D0B3F5404FA5
:102FC80040F0A5806369012B00F2A780A36933F064
:102FD800FE0340F0A880E36913B1402B40F0A980BC
:102FE800236A13B1802B40F0AA8094F83D30002B5F
:102FF80000F0AB80242384F83D302268136823F066
:10300800010313602268136843F4004313602268C5
:10301800136823F40043136001F074F86268774B77
:103028009A4200F29880764B98428CBF0023012385
:10303800002B40F0DB80734DA5FB0035AF0C2668F4
:10304800716821F03F0141EA9541716021680B6A7E
:1030580023F03F036568694A954200F282807A1C32
:1030680013430B622568E96921F44F4121F0FF0100
:103078006368624A93427ED801385B00B0FBF3F084
:10308800013040F6FC73184200F0AA80C0F30B032D
:103098000B43EB6121680B6823F0C003E269206AE7
:1030A800024313430B6021688B6823F4034323F026
:1030B800FF032269E068024313438B602168CB68F1
:1030C80023F0FF036269A06902431343CB602268BF
:1030D800136843F00103136000202064202384F860
:1030E8003D30206384F83E00F8BD4FF4E07141485C
:1030F800FEF7DFFB50E740F2C1113E48FEF7D9FB6F
:1031080050E74FF4E1713B48FEF7D3FB52E740F23A
:10311800C3113848FEF7CDFB54E74FF4E271354848
:10312800FEF7C7FB52E740F2C5113248FEF7C1FB74
:1031380051E74FF4E3712F48FEF7BBFB50E740F22D
:10314800C7112C48FEF7B5FB4FE784F83C30204602
:10315800FEF78EF84EE72C4B98428CBF00230123D4
:1031680066E74FF4967202FB07F2284DA5FB025260
:103178009209013274E7A268BAB9461E03EB430705
:10318800B6FBF7F60136C6F30B06B6FA86F67609ED
:1031980046BBC2B9421E03EB4303B2FBF3F2013252
:1031A800C2F30B0242F4004372E7461E03EB8307A7
:1031B80007EB8707B6FBF7F60136C6F30B06B6FA38
:1031C80086F67609E4E7421E03EB830303EB8303E9
:1031D800B2FBF3F20132C2F30B0242F4404357E769
:1031E800042355E7012353E70120704701207BE7BB
:1031F80000540040945800087F1A0600A086010079
:103208007F841E0083DE1B43FF083D00D34D621000
:10321800002800F03E8170B5044603689E4A934238
:1032280014D0A2F57842934210D002F580629342FE
:103238000CD002F57842934208D002F5E05293424E
:1032480004D040F21B119548FEF733FB636843B185
:10325800B3F5807F05D0B3F5007F02D0B3F5407F8A
:103268007FD1A3683BB1102B05D0202B03D0302B86
:1032780001D0B02B7BD1E368012B03D9032B01D0FC
:10328800052B7AD12369B3F5007F01D0002B7AD1C1
:103298006369A3F5FA51824A914201D9022B78D188
:1032A800A3690BB1082B7AD1E369012B7DD894F877
:1032B8004130002B7FD0022284F841202168CB695D
:1032C80023F47B6323F00F03CB6123681A626369DD
:1032D800934200F09280E368002B74D11025A36814
:1032E800202B00D86D00012001F082F82369B3F586
:1032F800007F6AD0B0FBF5F000EB80004300606906
:10330800B3FBF0F30533674AA2FB0323C3F3C00200
:10331800C2EBD3035B0811029A1EFD2A6FD82269FB
:103328000A43216813430B622168CB6923F47B634A
:1033380023F00F036268A0680243E0680243A069B3
:103348000243134343F40063CB61236A012B5CD827
:10335800236A012B5FD000206064012384F8413088
:1033680070BD4FF48E714D48FEF7A3FA79E740F22D
:103378001D114A48FEF79DFA7DE74FF48F714748C3
:10338800FEF797FA7EE740F21F114448FEF791FADC
:103398007EE74FF490714148FEF78BFA80E740F2E0
:1033A80021113E48FEF785FA7EE74FF491713B48BC
:1033B800FEF77FFA7BE784F840303B4B6363204697
:1033C800FDF7AEFF77E7202589E7E36853B1AD0045
:1033D800B0FBF5F000EB800043006069B3FBF0F34D
:1033E800053390E7ED00B0FBF5F000EB80004300FB
:1033F8006069B3FBF0F3053385E700218CE7636C64
:1034080043F0100363640120AAE740F2BD1123488A
:10341800FEF74FFA9CE7254B63632268244B9A42D8
:103428001FD04FF04022D36923F47B6323F00F03AE
:10343800D36122681E4B9A4215D04FF040230222D6
:103448001A6222681A4B9A4210D04FF04021CA697A
:1034580092B26368B3F5007F0AD0C3B94FF480769F
:1034680008E0144ADFE7A3F58063E8E71149EEE7CF
:103478004FF48076A068E568238B2B439BB2034307
:103488009BB23343134343F40063CB6163E70026E5
:10349800F0E70120704700BF0030014004590008E0
:1034A800C0CE0200CDCCCCCC373500084937000857
:1034B8000038004000340040704708B5426A03688D
:1034C8001288DA60436A02334362438D9BB2013B40
:1034D8009BB24385438D9BB203B108BD0268536814
:1034E80023F0A0035360012380F84130FFF7E4FF85
:1034F800F3E7704708B50368DA68C36A1A80C36AD5
:103508000233C362438E9BB2013B9BB24386438E18
:103518009BB203B108BD0268536823F0600353608F
:10352800012380F84130FFF7E4FFF3E7704710B557
:1035380084B0044602689368039390F84130DBB284
:10354800042B06D094F84130DBB2032B2CD004B006
:1035580010BD039B13F0010F03D0536813F0400F05
:103568001FD1039B13F0400FECD023685A6812F068
:10357800200FE7D05A6822F060025A6000230193B6
:103588002368DA6801929B680193019B012384F800
:103598004130636C43F0020363642046FFF7C6FFC3
:1035A800D0E7FFF7A7FFDCE7039B13F0020F04D077
:1035B80023685B6813F0800F1DD1039B13F0080F7D
:1035C800C5D023685A6812F0200FC0D05A6822F07C
:1035D800A0025A600023029323689B680293029B0F
:1035E800012384F84130636C43F00403636420468C
:1035F800FFF79CFFABE72046FFF75FFFDDE770476B
:1036080008B5436A9A1C426202681B88D360438DDE
:103618009BB2013B9BB24385438D9BB23BB9026889
:10362800536823F0A0035360438E9BB203B108BDD7
:10363800012380F84130FFF7E2FFF8E708B5026898
:10364800154B9A421CD04FF04023DA68C36A991C84
:10365800C1621A80438E9BB2013B9BB24386438E64
:103668009BB263B902680C4B9A420CD04FF04022CF
:10367800536823F060035360438D9BB22BB108BDA0
:10368800A3F58063E1E7054AF2E7012380F84130BA
:10369800FFF7B5FFF3E700BF0038004000340040F3
:1036A80008B5436A9A1C42621A880168134B99420A
:1036B80018D04FF04023DA60438D9BB2013B9BB298
:1036C8004385438D9BB263B902680C4B9A420CD078
:1036D8004FF04022536823F0A0035360438E9BB2FF
:1036E8002BB108BDA3F58063E5E7054AF2E701239E
:1036F80080F84130FFF783FFF3E700BF0038004050
:103708000034004008B50368DA68C36A991CC162CE
:103718001A80438E9BB2013B9BB24386438E9BB279
:103728003BB90268536823F060035360438D9BB232
:1037380003B108BD012380F84130FFF760FFF8E7C7
:1037480010B586B0044603689A680592704A934299
:103758006FD04FF04022916804915B6803935368DF
:1037680002936368B3F5007F01D0002B70D1059BED
:1037780013F0020F03D0039B13F0800F5CD1049B5E
:1037880013F0010F03D0029B13F0400F58D1049B94
:1037980013F0400F24D0029B13F0200F20D0226892
:1037A8005B4B9A4250D04FF04022536823F060039D
:1037B80053602268536823F0A003536000230093EA
:1037C8002368DA6800929B680093009B012384F8C1
:1037D8004130636C43F0020363642046FFF7A6FEA2
:1037E800059B13F0080F22D0039B13F0200F1ED067
:1037F8002268536823F0A00353602268444B9A421E
:1038080024D04FF04022536823F060035360002314
:10381800019323689B680193019B012384F841303D
:10382800636C43F0040363642046FFF77FFE06B031
:1038380010BDA2F580628EE72046FFF7E1FE9EE705
:103848002046FFF7FBFEA2E7324AAEE7314ADAE745
:10385800049B13F0020F03D0029B13F0800F4AD190
:10386800059B13F0010F03D0039B13F0400F46D1C3
:10387800059B13F0400F1CD0039B13F0200F18D0AA
:103888002268536823F0600353602268204B9A42F1
:1038980039D04FF04022536823F0A003536001232E
:1038A80084F84130636C43F0020363642046FFF7F9
:1038B8003DFE049B13F0080FB9D0029B13F0200FB4
:1038C800B5D02268124B9A421FD04FF0402253685D
:1038D80023F0A00353602268536823F06003536009
:1038E800012384F84130636C43F004036364204689
:1038F800FFF71CFE9BE72046FFF7D2FEB0E7204605
:10390800FFF700FFB4E7034AC5E7024ADFE700BF55
:103918000038004000340040002800F05B8270B599
:1039280082B0044603680F2B39D8236813F0010FBF
:103938004DD063682BB1B3F5803F02D0B3F5A02F0B
:1039480032D1A54B9B6803F00C03042B36D0A24B55
:103958009B6803F00C03082B2BD06368B3F5803FFA
:103968005FD0B3F5A02F62D09B4B1A6822F4803247
:103978001A601A6822F480221A606368002B60D0EB
:10398800FEF7A6F90546944B1B6813F4003F1ED1B9
:10399800FEF79EF9401B6428F5D9032021E2E821AF
:1039A8008E48FDF786FFC0E7ED218C48FDF781FFC3
:1039B800C7E7894B5B6813F4800FCED0864B1B6832
:1039C80013F4003F03D06368002B00F005822368DE
:1039D80013F0020F66D0E368012B41D823691F2B2F
:1039E80044D87D4B9B6813F00C0F4AD07A4B9B68E8
:1039F80003F00C03082B3FD0E368002B76D0784BFC
:103A080001221A60FEF764F90546734B1B6813F030
:103A1800020F62D1FEF75CF9401B0228F5D903209A
:103A2800DFE16D4A136843F480331360A5E76A4BFE
:103A38001A6842F480221A601A6842F480321A60C6
:103A48009BE7FEF745F90546634B1B6813F4003FF7
:103A5800BDD0FEF73DF9401B6428F5D90320C0E12D
:103A680040F21F115D48FDF724FFB7E74FF490714E
:103A78005A48FDF71EFFB4E7574B5B6813F4800FF5
:103A8800BAD1554B1B6813F0020F03D0E368012B22
:103A980040F0A481504A136823F0F803216943EAEF
:103AA800C1031360236813F0080F49D06369012B21
:103AB8002ED8636993B34B4B01221A60FEF708F9BD
:103AC8000546454B5B6F13F0020F39D1FEF700F93D
:103AD800401B0228F5D9032083E13F4A136823F0ED
:103AE800F803216943EAC1031360DBE73C4B00227A
:103AF8001A60FEF7EDF80546374B1B6813F0020F06
:103B0800D0D0FEF7E5F8401B0228F5D9032068E17C
:103B18004FF4B0713148FDF7CCFECAE7314B0022B3
:103B28001A60FEF7D5F805462B4B5B6F13F0020FB2
:103B380006D0FEF7CDF8401B0228F5D9032050E146
:103B4800236813F0040F00F08880A368012B01D9C3
:103B5800052B12D1204B1B6C13F0805F13D100236F
:103B680001931D4B1A6C42F080521A641B6C03F0CF
:103B780080530193019B012506E04FF4C671174855
:103B8800FDF797FEE6E70025174B1B6813F4807FC7
:103B98002CD0A368012B3DD0052B41D00E4B1A6FBA
:103BA80022F001021A671A6F22F004021A67A3684A
:103BB800002B3FD0FEF78CF80646074B1B6F13F01F
:103BC800020F48D1FEF784F8801B41F288339842EF
:103BD800F3D9032005E100BF0038024074590008FA
:103BE80000004742800E474200700040844A136834
:103BF80043F480731360FEF76BF80646804B1B682E
:103C080013F4807FC5D1FEF763F8801B0228F5D92D
:103C18000320E6E07B4A136F43F001031367C6E70E
:103C2800784B1A6F42F004021A671A6F42F00102C9
:103C38001A67BCE7FEF74CF80646724B1B6F13F089
:103C4800020F08D0FEF744F8801B41F288339842EF
:103C5800F3D90320C5E0002D3AD1A369022B3DD842
:103C6800A369002B00F0BC80664A926802F00C023F
:103C7800082A00F08F80022B78D1E36913B1B3F5DD
:103C8800800F31D1236A3F2B34D8636AC03BF02BB5
:103C980036D8A36A022B05D0042B03D0062B01D0FB
:103CA800082B33D1E36A023B0D2B35D8564B002243
:103CB8001A60FEF70DF80546524B1B6813F0007F9B
:103CC80030D0FEF705F8401B0228F5D9032088E01C
:103CD8004C4A136C23F080531364BEE740F2CF11B3
:103CE8004A48FDF7E6FDBBE74FF4EC714748FDF79E
:103CF800E0FDC7E740F2D9114448FDF7DAFDC4E713
:103D08004FF4ED714148FDF7D4FDC2E740F2DB11F5
:103D18003E48FDF7CEFDC5E74FF4EE713B48FDF791
:103D2800C8FDC3E7E369226A1343626A43EA821360
:103D3800A26A5208013A43EA0243E26A43EA02638A
:103D4800304A5360304B01221A60FDF7C1FF044628
:103D58002C4B1B6813F0007F06D1FDF7B9FF001B41
:103D68000228F5D903203CE000203AE0264B002247
:103D78001A60FDF7ADFF0446224B1B6813F0007F65
:103D880006D0FDF7A5FF001B0228F5D9032028E07F
:103D9800002026E0012B26D01A4B5B6803F4800133
:103DA800E269914221D103F03F02216A8A421ED181
:103DB800616A47F6C0721A408A421AD103F4403247
:103DC800A16A8A4217D103F07063E26A934214D160
:103DD800002006E001207047012002E0012000E0F9
:103DE800002002B070BD0120FBE70120F9E70120A7
:103DF800F7E70120F5E70120F3E70120F1E700BF2D
:103E080000700040003802406000474274590008C2
:103E1800F8B52F4B9B6803F00C03042B53D0082BE9
:103E280053D12B4B5A6802F03F025B6813F4800FA2
:103E380028D0274B5B68C3F3881358010021C01AA8
:103E480061F100018E0146EA906687013C1A66EB33
:103E58000105E90041EA5471E000C01841F1000190
:103E68004B0243EAD0534402204619460023FCF78C
:103E7800C7FE174B5B68C3F3014301335B00B0FB1C
:103E8800F3F023E0124B5B68C3F388135C01002551
:103E9800E41A65F10005AE0146EA9466A701381BED
:103EA80066EB0501CC0044EA5074C500E81844F1FB
:103EB80000018B0243EA90538402204619460023EE
:103EC800FCF79EFED5E7034800E00348F8BD00BFB5
:103ED8000038024000127A000024F400002800F0A4
:103EE800F78070B50D4604460368013B0E2B6BD86E
:103EF800072D6FD87A4B1B6803F00F03AB4208D22B
:103F0800EBB2774A1370136803F00F03AB4240F02B
:103F1800E180236813F0020F29D013F0040F04D0B6
:103F2800704A936843F4E0539360236813F0080FD2
:103F380004D06C4A936843F460439360A3687BB1F0
:103F4800802B0DD0902B0BD0A02B09D0B02B07D0F5
:103F5800C02B05D0D02B03D0E02B01D0F02B3FD1C4
:103F6800604A936823F0F003A1680B4393602368C9
:103F780013F0010F4ED06368032B37D86368012B09
:103F88003AD09A1E012A3ED9564A126812F0020FF8
:103F980000F0A28053498A6822F0030213438B6021
:103FA800FDF796FE06464F4B9B6803F00C036268CC
:103FB800B3EB820F2ED0FDF78BFE801B41F28833C6
:103FC8009842F0D9032076E040F251214648FDF7A7
:103FD80070FC8DE740F252214348FDF76AFC89E7FF
:103FE80040F275214048FDF764FCB9E74FF41F71B2
:103FF8003D48FDF75EFCC1E73A4A126812F4003FFB
:10400800C8D1012057E0374A126812F0007FC1D1A9
:10401800012050E0324B1B6803F00F03AB4207D975
:10402800EAB22F4B1A701B6803F00F03AB4255D14D
:10403800236813F0040F14D0E3685BB1B3F5805F15
:1040480008D0B3F5A05F05D0B3F5C05F02D0B3F5D3
:10405800E05F31D1234A936823F4E053E1680B43CE
:104068009360236813F0080F15D023695BB1B3F58B
:10407800805F08D0B3F5A05F05D0B3F5C05F02D06C
:10408800B3F5E05F1ED1174A936823F460432169B2
:1040980043EAC1039360FFF7BBFE124B9B68C3F36F
:1040A8000313124AD35CD840114B1860114B18689F
:1040B800FDF7C2FD002070BD40F2BA210A48FDF7A5
:1040C800F8FBC7E740F2C1210748FDF7F2FBDAE742
:1040D800012070470120EEE70120ECE70120EAE724
:1040E800003C02400038024074590008B4560008E9
:1040F8000000002008000020014B1868704700BF2E
:104108000000002008B5FFF7F7FF044B9B68C3F3D6
:104118008223034AD35CD84008BD00BF0038024060
:10412800C456000830B583B004460368013B0E2B23
:1041380022D8236813F0050F52D0E368023B052B01
:1041480020D8A368C03BF02B22D86368023B3D2BE4
:1041580024D8A04B00221A60FDF7BAFD05469E4BF5
:104168001B6813F0006F1FD0FDF7B2FD431B022B35
:10417800F5D9032003B030BD40F6D9119748FDF7B3
:1041880098FBD6E74FF41E619448FDF792FBD8E7F9
:1041980040F6E1119148FDF78CFBD6E740F6E311B4
:1041A8008E48FDF786FBD4E76368A26843EA82136A
:1041B800E26843EA0273884AC2F88430854B0122D8
:1041C8001A60FDF785FD0546834B1B6813F0006FE9
:1041D80006D1FDF77DFD401B0228F5D90320C9E76C
:1041E800236813F0020F00F0CE802369B3F5807FB7
:1041F80079D0B3F5007F76D0794A934273D002F52F
:10420800803293426FD002F5803293426BD002F530
:104218008032934267D002F58032934263D002F530
:10422800803293425FD002F5803293425BD002F530
:104238008032934257D002F58032934253D002F530
:10424800803293424FD002F5803293424BD002F530
:104258008032934247D002F58032934243D002F530
:10426800803293423FD002F5803293423BD002F530
:104278008032934237D002F58032934233D002F530
:10428800803293422FD002F5803293422BD002F530
:104298008032934227D002F58032934223D002F530
:1042A800803293421FD002F5803293421BD002F530
:1042B8008032934217D002F58032934213D002F530
:1042C800803293420FD002F5803293420BD002F530
:1042D8008032934207D002F58032934203D002F530
:1042E800803293421FD1002301933B4B1A6C42F05A
:1042F80080521A641B6C03F080530193019B394A66
:10430800136843F480731360FDF7E2FC0546354BF0
:104318001B6813F4807F0CD1FDF7DAFC431B022BDA
:10432800F5D9032026E740F612212C48FDF7C1FAFB
:10433800D9E7294B1B6F13F4407312D0226902F49A
:1043480040729A420DD0244B1A6F22F440722649CB
:1043580001200860002008601A671B6F13F0010F26
:104368001AD1236903F44072B2F5407F25D01A4A66
:10437800936823F4F813936017490B6F2269C2F30B
:104388000B0213430B67236813F0080F20D0227D1C
:10439800164B1A600020EDE6FDF79AFC05460E4B19
:1043A8001B6F13F0020FDCD1FDF792FC401B41F2AA
:1043B80088339842F3D90320DCE607498A6822F457
:1043C800F81223F0704323F4407313438B60D3E750
:1043D8000020CFE66800474200380240E459000850
:1043E8000003020000700040400E4742E0114742BF
:1043F800012801D000207047174B9B6813F4000375
:1044080003D0012B25D115487047134B5B6813F473
:10441800800F15D0104BD3F8843003F03F031048B9
:10442800B0FBF3F00C4AD2F88430C3F3881300FBD6
:1044380003F0D2F88430C3F30273B0FBF3F0704793
:10444800054BD3F8843003F03F030648B0FBF3F084
:10445800E8E70020704700BF003802400080BB003A
:1044680000127A000024F400002800F0C88010B57B
:1044780004460368634A934214D0A2F578429342F3
:1044880010D002F5806293420CD002F57842934234
:1044980008D002F5E052934204D04FF4A1715A4873
:1044A800FDF707FA636813B1B3F5827F6BD1A36890
:1044B8002BB1B3F5806F02D0B3F5004F69D1E36833
:1044C800B3F5006F01D0002B69D1A369B3F5007F64
:1044D80003D013B1B3F5802F67D1E3696BB1082B13
:1044E8000BD0102B09D0182B07D0202B05D0282B48
:1044F80003D0302B01D0382B5DD1236A0BB1802B30
:104508005FD1636A0BB1102B61D1636A33B9236938
:104518000BB1022B61D16369012B64D80023A3621C
:1045280094F85130002B64D0022384F8513022686B
:10453800136823F0400313606368A2681343E268BA
:1045480013432269134362691343A26902F4007298
:104558001343E2691343226A1343A16A22680B4397
:104568001360638B03F00403616A22680B43536092
:104578002268D36923F40063D361002060650123B6
:1045880084F8513010BD40F243111F48FDF791F9EE
:104598008DE74FF4A2711C48FDF78BF98FE740F2C5
:1045A80045111948FDF785F98FE74FF4A3711648AF
:1045B800FDF77FF991E740F247111348FDF779F9C4
:1045C8009BE74FF4A4711048FDF773F999E740F29F
:1045D80049110D48FDF76DF997E74FF4A6710A48A0
:1045E800FDF767F997E740F24D110748FDF761F9C4
:1045F80094E784F850302046FDF79CF994E70120B1
:10460800704700BF00300140545A000830B4036AB4
:10461800056A25F001050562846924F0F00444EA7E
:10462800021423F00A030B438461036230BC704711
:1046380030B4056A25F0100505628469036A24F41C
:10464800704444EA023423F0A00343EA011384616E
:10465800036230BC7047836823F070030B4343F058
:1046680007038360704700002DE9F04104460D46BA
:10467800036A23F001030362066AD0F804808369A1
:1046880023F073030F681F4326F002038E681E434E
:104698001E4B98420AD01D4B9C4218D0C4F8048087
:1046A800A7616B6863632662BDE8F081CB680BB1D4
:1046B800082B06D126F00806EB681E4326F00406F0
:1046C800E9E741F202711248FDF7F3F8F2E7AB6946
:1046D800B3F5007F00D06BB96B69B3F5807F00D06C
:1046E80073B928F440786B6943EA0808AB6943EA70
:1046F8000808D3E741F20F710548FDF7DAF8EBE750
:1047080041F210710248FDF7D4F8EAE700000140D1
:10471800C45A00082DE9F04104460E46036A23F402
:1047280080730362056AD0F80480C36923F07303B9
:104738000F681F4325F400758B6845EA03251F4B56
:1047480098420AD01D4B9C4219D0C4F80480E761F6
:104758007368E3632562BDE8F081CB680BB1082B71
:1047680007D125F40065F36845EA032525F480653B
:10477800E8E741F298711248FDF79BF8F1E7B36951
:10478800B3F5007F00D06BB97369B3F5807F00D0B3
:1047980073B928F44058736948EA0318B36948EABA
:1047A8000318D2E741F2A5710548FDF782F8EBE757
:1047B80041F2A6710248FDF77CF8EAE700000140E3
:1047C800C45A00082DE9F04104460D46036A23F453
:1047D80080530362066AD0F80480C76927F4E64765
:1047E8000B6847EA032726F400568B6846EA033627
:1047F8000D4B984207D0C4F80480E7616B682364C6
:104808002662BDE8F0814B69B3F5807F00D02BB9F3
:1048180028F480486B6948EA8318ECE741F2E471B0
:104828000248FDF746F8F3E700000140C45A0008C3
:1048380010B5044603681A4A93421FD0B3F1804F5B
:104848001CD0A2F57C42934218D002F580629342B4
:1048580014D002F58062934210D002F59A32934246
:104868000CD002F58062934208D002F58062934230
:1048780004D040F2B9110B48FDF71BF82268D36841
:1048880043F00103D3602268936803F00703062B03
:1048980003D0136843F001031360002010BD00BF6C
:1048A80000000140C45A00087047704770477047BD
:1048B800704710B5044603681A6912F0020F11D048
:1048C800DA6812F0020F0DD06FF002021A610123AC
:1048D800037703689B6913F0030F70D0FFF7E6FFB7
:1048E8000023237723681A6912F0040F12D0DA68BC
:1048F80012F0040F0ED06FF004021A61022323771E
:1049080023689B6913F4407F5FD02046FFF7CEFFF2
:104918000023237723681A6912F0080F12D0DA6887
:1049280012F0080F0ED06FF008021A6104232377E3
:104938002368DB6913F0030F4ED02046FFF7B6FF5C
:104948000023237723681A6912F0100F12D0DA684F
:1049580012F0100F0ED06FF010021A61082323779F
:104968002368DB6913F4407F3DD02046FFF79EFFA4
:104978000023237723681A6912F0010F03D0DA683D
:1049880012F0010F36D123681A6912F0800F03D094
:10499800DA6812F0800F34D123681A6912F0400FD8
:1049A80003D0DA6812F0400F32D123681A6912F086
:1049B800200F03D0DA6812F0200F30D110BDFFF7B6
:1049C80074FF2046FFF773FF8AE72046FFF76DFF65
:1049D8002046FFF76CFF9BE72046FFF766FF20465F
:1049E800FFF765FFACE72046FFF75FFF2046FFF7BC
:1049F8005EFFBDE76FF001021A612046FCF7FCFC80
:104A0800C1E76FF080021A61204600F034FDC3E769
:104A18006FF040021A612046FFF74AFFC5E76FF0C2
:104A280020021A61204600F025FDC7E70368254AE1
:104A380090420ED0B0F1804F0BD0A2F57C4290424C
:104A480007D002F58062904203D002F5806290425E
:104A580003D123F070034A6813431A4A90421AD0CC
:104A6800B0F1804F17D0A2F57C42904213D002F5E6
:104A7800806290420FD002F5806290420BD002F51E
:104A88009A32904207D002F58062904203D002F534
:104A98008062904203D123F44073CA68134323F021
:104AA80080034A69134303608B68C3620B6883629F
:104AB800044B984202D00123436170470B6903639A
:104AC800F9E700BF00000140002863D010B5044694
:104AD8000368314A93421FD0B3F1804F1CD0A2F52E
:104AE8007C42934218D002F58062934214D002F5BA
:104AF8008062934210D002F59A3293420CD002F5AC
:104B08008062934208D002F58062934204D04FF449
:104B180089712248FCF7CDFEA3683BB1102B05D064
:104B2800202B03D0402B01D0602B1BD123692BB144
:104B3800B3F5807F02D0B3F5007F19D1A3690BB11B
:104B4800802B1BD194F83D30F3B1022384F83D301B
:104B5800214651F8040BFFF769FF012384F83D3023
:104B6800002010BD40F213110C48FCF7A2FEDDE74F
:104B78004FF48A710948FCF79CFEDFE740F21511F3
:104B88000648FCF796FEDDE784F83C302046FCF743
:104B9800B1FFDAE70120704700000140C45A00085D
:104BA800002863D010B504460368314A93421FD0E9
:104BB800B3F1804F1CD0A2F57C42934218D002F585
:104BC8008062934214D002F58062934210D002F5BD
:104BD8009A3293420CD002F58062934208D002F5D3
:104BE8008062934204D040F29B412248FCF761FE68
:104BF800A3683BB1102B05D0202B03D0402B01D04C
:104C0800602B1BD123692BB1B3F5807F02D0B3F59C
:104C1800007F19D1A3690BB1802B1BD194F83D30CB
:104C2800F3B1022384F83D30214651F8040BFFF715
:104C3800FDFE012384F83D30002010BD40F29C4168
:104C48000C48FCF736FEDDE740F29D410948FCF7C9
:104C580030FEDFE740F29E410648FCF72AFEDDE71A
:104C680084F83C302046FFF71FFEDAE70120704742
:104C780000000140C45A00082DE9F04104460E46E0
:104C8800036A23F010030362056AD0F80480876979
:104C980027F4E6470B6847EA032725F020058B68C9
:104CA80045EA03151F4B98420AD01E4B9C4219D067
:104CB800C4F80480A7617368A3632562BDE8F08126
:104CC800CB680BB1082B07D125F08005F36845EABE
:104CD800031525F04005E8E741F24D711248FCF74D
:104CE800E8FDF1E7B369B3F5007F00D06BB97369EC
:104CF800B3F5807F00D073B928F44068736948EA37
:104D08008308B36948EA8308D2E741F25B71064831
:104D1800FCF7CFFDEBE741F25C710348FCF7C9FDF6
:104D2800EAE700BF00000140C45A000870B5044615
:104D38000D4616463AB1042A05D0082A03D00C2A93
:104D480001D03C2A22D12B68602B01D0702B23D1B3
:104D5800AB680BB1022B25D12B690BB1042B27D1E2
:104D680094F83C30012B00F0F180012384F83C30AA
:104D7800022384F83D300C2E57D8DFE806F01F5682
:104D880056565D5656568E565656BA0040F6EC5153
:104D98006F48FCF78EFDD6E740F6ED516C48FCF7FE
:104DA80088FDD5E740F6EE516948FCF782FDD3E768
:104DB80040F6EF516648FCF77CFDD1E72368654A69
:104DC80093421FD0B3F1804F1CD0A2F57C4293428E
:104DD80018D002F58062934214D002F580629342A3
:104DE80010D002F59A3293420CD002F580629342B9
:104DF80008D002F58062934204D040F6FB51544833
:104E0800FCF757FD29462068FFF72EFC22689369B6
:104E180043F0080393612268936923F004039361C4
:104E28002268936929690B439361012384F83D3013
:104E3800002084F83C0070BD2368464A934217D08E
:104E4800B3F1804F14D0A2F57C42934210D002F502
:104E5800806293420CD002F58062934208D002F53A
:104E68009A32934204D040F60C613948FCF721FD90
:104E780029462068FFF700FF2268936943F400631E
:104E880093612268936923F480639361226893692C
:104E9800296943EA01239361C7E723682D4A9342AE
:104EA80013D0B3F1804F10D0A2F57C4293420CD0BE
:104EB80002F58062934208D002F58062934204D0E2
:104EC80040F61D612248FCF7F4FC29462068FFF7EC
:104ED80021FC2268D36943F00803D3612268D369AF
:104EE80023F00403D3612268D36929690B43D36192
:104EF8009BE72368174A934213D0B3F1804F10D031
:104F0800A2F57C4293420CD002F58062934208D00D
:104F180002F58062934204D040F62E610C48FCF7FB
:104F2800C8FC29462068FFF74DFC2268D36943F482
:104F38000063D3612268D36923F48063D361226854
:104F4800D369296943EA0123D3616EE7022072E736
:104F5800C45A00080000014010B4846824F47F4457
:104F680042EA03220A432243826010BC70470000D1
:104F780038B590F83C30012B00F0FE8104460D4610
:104F8800012380F83C30022380F83D300B68B3F5EC
:104F9800805F11D0B3F5005F0ED06BB1102B0BD032
:104FA800202B09D0302B07D0402B05D0502B03D015
:104FB800602B01D0702B45D12268936823F47F437E
:104FC80023F0770393602B68602B00F059816FD82A
:104FD800402B00F093813BD9502B3ED12368A64A41
:104FE800934217D0B3F1804F14D0A2F57C4293427C
:104FF80010D002F5806293420CD002F58062934291
:1050080008D002F59A32934204D041F2CA119B4863
:10501800FCF74FFC6B68B3F5004F05D023B1022BAA
:1050280002D00A2B40F01B81EB680F2B00F21D8188
:10503800EA6869682068FFF7E9FA50212068FFF7F5
:105048000AFB0AE041F28B118C48FCF732FCB3E70B
:10505800202B0CD008D9302B09D0012384F83D30FF
:10506800002084F83C0038BD0BB1102BF5D1236823
:10507800814A934217D0B3F1804F14D0A2F57C42F5
:10508800934210D002F5806293420CD002F5806200
:10509800934208D002F59A32934204D041F2FD11AE
:1050A8007648FCF706FC29682068FFF7D4FAD4E7AD
:1050B800B3F5805F00F08280B3F5005F3DD12368CF
:1050C8006D4A934213D0B3F1804F10D0A2F57C42C1
:1050D80093420CD002F58062934208D002F58062B8
:1050E800934204D041F2B6116448FCF7E2FBAB6886
:1050F8004BB1B3F5805F06D0B3F5005F03D0B3F5CD
:10510800405F40F09A806B68B3F5004F05D023B13B
:10511800022B02D00A2B40F09680EB680F2B00F28E
:105128009880EB686A68A9682068FFF715FF22680D
:10513800936843F4804393608FE7702B8DD1236885
:105148004D4A934217D0B3F1804F14D0A2F57C4258
:10515800934210D002F5806293420CD002F580622F
:10516800934208D002F59A32934204D041F29E113C
:105178004248FCF79EFBAB6843B1B3F5805F05D0AE
:10518800B3F5005F02D0B3F5405F44D16B68B3F567
:10519800004F04D01BB1022B01D00A2B41D1EB6880
:1051A8000F2B44D8EB686A68A9682068FFF7D4FE1B
:1051B8002268936843F0770393604EE723682E4A8A
:1051C80093423FF44AAFB3F1804F3FF446AFA2F5A4
:1051D8007C4293423FF441AF02F5806293423FF430
:1051E8003CAF02F5806293423FF437AF02F59A3242
:1051F80093423FF432AF02F5806293423FF42DAF01
:1052080002F5806293423FF428AF41F297111B48A0
:10521800FCF74FFB21E741F2A1111848FCF749FBC5
:10522800B4E741F2A2111548FCF743FBB7E741F296
:10523800A3111248FCF73DFBB4E741F2B9110F483E
:10524800FCF737FB5FE741F2BA110C48FCF731FB7A
:1052580063E741F2BB110948FCF72BFB61E741F218
:10526800CD110648FCF725FBDEE641F2CE110348D6
:10527800FCF71FFBDCE600BF00000140C45A000831
:1052880023683E4A934217D0B3F1804F14D0A2F559
:105298007C42934210D002F5806293420CD002F512
:1052A8008062934208D002F59A32934204D041F2C8
:1052B800DA113348FCF7FDFA6B68B3F5004F04D0F8
:1052C8001BB1022B01D00A2B0CD1EB680F2B0FD886
:1052D800EA6869682068FFF7ABF960212068FFF782
:1052E800BAF9BAE641F2DD112548FCF7E2FAECE733
:1052F80041F2DE112248FCF7DCFAE9E723681F4A8D
:10530800934217D0B3F1804F14D0A2F57C42934258
:1053180010D002F5806293420CD002F5806293426D
:1053280008D002F59A32934204D041F2EA111448A7
:10533800FCF7BFFA6B68B3F5004F04D01BB1022B22
:1053480001D00A2B0CD1EB680F2B0FD8EA686968DB
:105358002068FFF75BF940212068FFF77CF97CE6BD
:1053680041F2ED110648FCF7A4FAECE741F2EE1120
:105378000348FCF79EFAE9E7022074E600000140C2
:10538800C45A000838B504460D460368374A9342A4
:1053980013D0B3F1804F10D0A2F57C4293420CD0C9
:1053A80002F58062934208D002F58062934204D0ED
:1053B80040F264612E48FCF77CFA2B686BB1102B25
:1053C8000BD0202B09D0302B07D0402B05D0502BE9
:1053D80003D0602B01D0702B39D16B68802B01D0A2
:1053E800002B3AD194F83C30012B3CD0012384F8AF
:1053F8003C30022384F83D3023685968986821F0CE
:1054080070012A680A435A602368184A934212D0E6
:10541800B3F1804F0FD0A2F57C4293420BD002F536
:105428008062934207D002F58062934203D002F56E
:105438009A32934204D120F080006A681043986041
:10544800012384F83D30002084F83C0038BD40F248
:1054580065610748FCF72DFABFE740F2666104482A
:10546800FCF727FABEE70220F0E700BF0000014082
:10547800345B000870477047DFF834D0002103E040
:105488000C4B5B58435004310B480C4B42189A4262
:10549800F6D30B4A02E0002342F8043B094B9A4238
:1054A800F9D3FCF7E9FA00F011F8FCF70BF87047AC
:1054B80000000220BC5B0008000000203C04002023
:1054C8003C04002000070020FEE7000070B50D4EE8
:1054D8000D4D761BB61006D0002455F8043B013458
:1054E8009847A642F9D1094E094D761B00F0D2F82B
:1054F800B61006D0002455F8043B01349847A6425C
:10550800F9D170BDB05B0008B05B0008B85B00085B
:10551800B05B0008F0B4860746D0541E002A3CD081
:10552800CAB2034601E0013C37D303F8012B9D07BB
:10553800F9D1032C2AD9CDB245EA05250F2C45EA25
:10554800054534D9A4F1100222F00F0C03F120070D
:105558001609674403F1100242E9045542E902556D
:105568001032BA42F8D1721C14F00C0F03EB02127D
:1055780004F00F0613D0331F23F00303043313443E
:1055880042F8045B9342FBD106F003042CB1CAB283
:105598001C4403F8012B9C42FBD1F0BC70473446F5
:1055A8001346002CF3D1F8E714460346C1E71A4620
:1055B8002646E0E7024B13B1024800F005B87047F1
:1055C80000000000DD550008002301461A46184671
:1055D80000F01AB838B5084B084D5B1B9C1007D073
:1055E800043B1D44013C55F804399847002CF9D177
:1055F800BDE8384000F054B8BC5B0008B85B000850
:10560800704700BF704700BF2DE9F047DFF880A062
:105618000646DAF8000098460F469146FFF7F0FF75
:105628001A4B1B68D3F8484124B365681F2D26DC44
:105638005EB9AB1C0135DAF80000656044F82370E8
:10564800FFF7E0FF0020BDE8F08704EB85030121A8
:10565800C3F88890D4F88821A9400A43022EC4F8D8
:105668008821C3F80881E4D1D4F88C311943C4F8EF
:105678008C11DEE703F5A674C3F84841D5E7DAF8DC
:105688000000FFF7BFFF4FF0FF30DCE7A45B000826
:1056980038040020F8B500BFF8BC08BC9E46704727
:0C56A800F8B500BFF8BC08BC9E46704777
:1056B40000000000000000000102030406070809BE
:1056C4000000000001020304433A5C5543555C5357
:1056D40065636F6E645C504F435C66696E616C5FBA
:1056E40070726F6A6563745C736D6172745F666C0B
:1056F4006F776572706F745F70726F6A6563745CE4
:10570400447269766572735C53544D33324634780F
:10571400785F48414C5F4472697665725C5372638A
:105724005C73746D3332663478785F68616C5F6182
:1057340064632E6300000000433A5C5543555C5398
:1057440065636F6E645C504F435C66696E616C5F49
:1057540070726F6A6563745C736D6172745F666C9A
:105764006F776572706F745F70726F6A6563745C73
:10577400447269766572735C53544D33324634789F
:10578400785F48414C5F4472697665725C5372631A
:105794005C73746D3332663478785F68616C5F6310
:1057A4006F727465782E6300433A5C5543555C53BD
:1057B40065636F6E645C504F435C66696E616C5FD9
:1057C40070726F6A6563745C736D6172745F666C2A
:1057D4006F776572706F745F70726F6A6563745C03
:1057E400447269766572735C53544D33324634782F
:1057F400785F48414C5F4472697665725C537263AA
:105804005C73746D3332663478785F68616C5F649E
:105814006D612E63000000000006101600061016CD
:10582400433A5C5543555C5365636F6E645C504FFB
:10583400435C66696E616C5F70726F6A6563745C09
:10584400736D6172745F666C6F776572706F745F8D
:1058540070726F6A6563745C447269766572735CB6
:1058640053544D3332463478785F48414C5F447228
:10587400697665725C5372635C73746D333266343B
:1058840078785F68616C5F6770696F2E63000000F1
:10589400433A5C5543555C5365636F6E645C504F8B
:1058A400435C66696E616C5F70726F6A6563745C99
:1058B400736D6172745F666C6F776572706F745F1D
:1058C40070726F6A6563745C447269766572735C46
:1058D40053544D3332463478785F48414C5F4472B8
:1058E400697665725C5372635C73746D33326634CB
:1058F40078785F68616C5F6932632E630000000032
:10590400433A5C5543555C5365636F6E645C504F1A
:10591400435C66696E616C5F70726F6A6563745C28
:10592400736D6172745F666C6F776572706F745FAC
:1059340070726F6A6563745C447269766572735CD5
:1059440053544D3332463478785F48414C5F447247
:10595400697665725C5372635C73746D333266345A
:1059640078785F68616C5F6932732E6300000000B1
:10597400433A5C5543555C5365636F6E645C504FAA
:10598400435C66696E616C5F70726F6A6563745CB8
:10599400736D6172745F666C6F776572706F745F3C
:1059A40070726F6A6563745C447269766572735C65
:1059B40053544D3332463478785F48414C5F4472D7
:1059C400697665725C5372635C73746D33326634EA
:1059D40078785F68616C5F7263632E630000000017
:1059E400433A5C5543555C5365636F6E645C504F3A
:1059F400435C66696E616C5F70726F6A6563745C48
:105A0400736D6172745F666C6F776572706F745FCB
:105A140070726F6A6563745C447269766572735CF4
:105A240053544D3332463478785F48414C5F447266
:105A3400697665725C5372635C73746D3332663479
:105A440078785F68616C5F7263635F65782E63006A
:105A5400433A5C5543555C5365636F6E645C504FC9
:105A6400435C66696E616C5F70726F6A6563745CD7
:105A7400736D6172745F666C6F776572706F745F5B
:105A840070726F6A6563745C447269766572735C84
:105A940053544D3332463478785F48414C5F4472F6
:105AA400697665725C5372635C73746D3332663409
:105AB40078785F68616C5F7370692E630000000022
:105AC400433A5C5543555C5365636F6E645C504F59
