:020000040800F2
:10000000000002201D0A00088D0900088F09000861
:1000100091090008930900089509000800000000F4
:100020000000000000000000000000009709000828
:1000300099090008000000009B0900089D090008BC
:100040006D0A00086D0A00086D0A00086D0A0008B4
:100050006D0A00086D0A00086D0A00086D0A0008A4
:100060006D0A00086D0A00086D0A00086D0A000894
:100070006D0A00086D0A00086D0A00086D0A000884
:100080006D0A00086D0A0008A509000800000000BC
:100090000000000000000000000000006D0A0008E1
:1000A0006D0A00086D0A00086D0A00086D0A000854
:1000B0006D0A00086D0A00086D0A00086D0A000844
:1000C0006D0A00086D0A00086D0A00086D0A000834
:1000D0006D0A00086D0A00086D0A000800000000A3
:1000E0006D0A00086D0A00086D0A00080000000093
:1000F0000000000000000000000000006D0A000881
:10010000000000006D0A00086D0A00086D0A000872
:1001100000000000000000000000000000000000DF
:100120006D0A00086D0A00086D0A00086D0A0008D3
:100130006D0A000800000000000000000000000040
:10014000000000000000000000000000B5090008E9
:100150006D0A00086D0A00086D0A00086D0A0008A3
:100160006D0A00086D0A0008000000000000000091
:10017000000000000000000000000000000000007F
:10018000000000006D0A00080000000000000000F0
:080190006D0A00086D0A000869
:1001980053B94AB9002908BF00281CBF4FF0FF31E6
:1001A8004FF0FF3000F00CB8ADF1080C6DE904CE4B
:1001B80004F0FEFEDDF804E0DDE9022304B0704738
:1001C800704700BF10B5054C237833B9044B13B101
:1001D8000448AFF300800123237010BD7408002089
:1001E80000000000B85C000808B5034B1BB10349C8
:1001F8000348AFF3008008BD000000007808002025
:10020800B85C00082DE9F04F8DB0002407940894DD
:1002180009940A940B940194514B1A6B42F0100202
:100228001A631A6B02F010020192019A02941A6B77
:1002380042F004021A631A6B02F004020292029A54
:1002480003941A6B42F080021A631A6B02F0800260
:100258000392039A04941A6B42F001021A631A6B10
:1002680002F001020492049A05941A6B42F0020209
:100278001A631A6B02F002020592059A06941A6B29
:1002880042F008021A631B6B03F008030693069BEF
:10029800344E22460821304601F04EF9DFF8C8B046
:1002A80022460121584601F047F9DFF8C08022466E
:1002B8000421404601F040F92D4F22464FF210012B
:1002C800384601F039F94FF00409CDF81C9008942C
:1002D800099407A9304601F059F808230793012526
:1002E800089509940A9407A9304601F04FF832237B
:1002F8000793DFF880A0CDF820A0099407A930461D
:1003080001F044F80795089509940A9407A95846F6
:1003180001F03CF80795CDF820A0099407A94046BC
:1003280001F034F8CDF81C90089509940A9407A9AF
:10033800404601F02BF84FF21003079308950994F3
:100348000A9407A9384601F021F820230793089456
:10035800099407A9384601F019F80DB0BDE8F08FE7
:10036800003802400010024000080240000002402D
:10037800000C02400000111070B584B000250095F3
:10038800019502950395104C104B23604FF4803370
:100398006360A5602561257684F82050E5620C4BE2
:1003A800A362E5600126E66184F830506661204664
:1003B80000F05AFC0096019602956946204600F026
:1003C800A1FE04B070BD00BF9408002000200140C9
:1003D8000100000F08B50948094B0360094B436049
:1003E80000238360C3604FF48042026143618361EC
:1003F800C361036201F08EFE08BD00BFDC08002067
:1004080000540040A086010008B50948094B036064
:100418004FF40073436000238360C3600361064A9E
:1004280042618361C3610123036201F051FF08BD8A
:1004380030090020003800400077010008B509485D
:10044800094B03604FF40072426000238360C3606D
:100458000261064A42618361C361036201F038FFA9
:1004680008BD00BF78090020003C0040007701006B
:1004780008B50B480B4B03604FF4827343600023AD
:100488008360C360036143614FF400728261C3619A
:100498000362436283620A23C36202F033FE08BD2B
:1004A800C00900200030014030B587B00024029414
:1004B800039404940594009401940F4D4FF08043E5
:1004C8002B604FF434736B60AC600C4BEB602C61A9
:1004D800AC61284602F0E4FE4FF48053029302A96F
:1004E800284602F003FF009401946946284602F06A
:1004F8006BFF07B030BD00BF180A0020A0860100BE
:1005080008B50268064B9A4200D008BD054B012287
:100518001A70054800F04AFD80B2044B1880F4E7D1
:1005280000200140000000209408002090080020CE
:1005380070B59AB0302200210EA805F09FF900246A
:1005480009940A940B940C940D94039404940594C0
:1005580006940794089401941F4B1A6C42F0805239
:100568001A641B6C03F080530193019B02941B4B8C
:100578001A6842F440421A601B6803F4404302932D
:10058800029B01260E964FF4A0230F930225149583
:100598004FF48003159304231693C02217921893DF
:1005A800082319930EA802F093F90F2309930A95CB
:1005B8000B944FF4A0530C930D94032109A802F057
:1005C800E7FB0396C823059305230493069503A820
:1005D80002F0A4FC1AB070BD003802400070004060
:1005E80038B500F067FAFFF7A3FFFFF70BFEFFF738
:1005F800C3FEFFF7EFFEFFF707FFFFF71FFFFFF749
:1006080037FF04F073FBFFF74FFF1B4800F04AFC6D
:100618001A4802F0E4FD01E004F088FB01220421FD
:10062800174800F089FF144C204600F049FB64216C
:10063800204600F0E1FB204600F0B8FC80B2114DE6
:100648002880204600F0B8FB2B889BB2B3F5526F88
:10065800E2D941F2883000F059FA2B889BB2B3F501
:10066800526FD9D900220421054800F065FF0648D9
:1006780000F04CFA002038BD94080020180A002029
:100688000000024090080020809698007047000003
:1006980000B583B0002100910C4B5A6C42F48042A3
:1006A8005A645A6C02F480420092009A01911A6CC2
:1006B80042F080521A641B6C03F080530193019B33
:1006C800072000F0F7FD03B05DF804FB0038024096
:1006D80010B588B0002303930493059306930793FA
:1006E800026803F1804303F590339A4201D008B0C1
:1006F80010BD0024019403F58C335A6C42F48072C7
:100708005A645A6C02F480720192019A02941A6B2C
:1007180042F001021A631B6B03F001030293029B70
:10072800022303930323049303A9064800F02EFE33
:1007380022462146122000F0CFFD122000F004FED0
:10074800D5E700BF0000024030B589B0002303930D
:1007580004930593069307930268154B9A4201D0B8
:1007680009B030BD00250195124C236B43F00203FC
:100778002363236B03F002030193019B4FF410736F
:10078800039312230493012305930323069304235D
:10079800079303A9084800F0F9FD0295236C43F478
:1007A80000132364236C03F400130293029BD7E71E
:1007B800005400400038024000040240F0B58DB0FB
:1007C80000230793089309930A930B930368404AFD
:1007D800934204D03F4A934243D00DB0F0BD002469
:1007E80001943D4B1A6C42F480421A641A6C02F46C
:1007F80080420192019A02941A6B42F004021A6331
:100808001A6B02F004020292029A03941A6B42F0E5
:1008180002021A631B6B03F002030393039B042376
:1008280007930225089506230B932C4F07A93846F2
:1008380000F0ACFD08230793089509940A9405264F
:100848000B9607A9384600F0A1FD4FF4A053079373
:10085800089509940A940B9607A9214800F096FD7B
:10086800BBE7002404941C4B1A6C42F400421A643F
:100878001A6C02F400420492049A05941A6B42F02E
:1008880001021A631A6B02F001020592059A069496
:100898001A6B42F004021A631B6B03F004030693FD
:1008A800069B102307930226089606250B9507A991
:1008B8000C4800F06BFD4FF4A45307930896099475
:1008C8000A940B9507A9054800F060FD85E700BF6D
:1008D80000380040003C0040003802400008024058
:1008E800000402400000024000B589B000230393D1
:1008F80004930593069307930268154B9A4202D016
:1009080009B05DF804FB0021019103F584335A6CAA
:1009180042F480525A645A6C02F480520192019A4D
:1009280002911A6B42F001021A631B6B03F0010378
:100938000293029BE0230393022304930323069369
:100948000523079303A9034800F020FDD8E700BF5B
:1009580000300140000002400368B3F1804F00D02E
:10096800704782B000230193054B1A6C42F00102D4
:100978001A641B6C03F001030193019B02B07047DA
:10098800003802407047FEE7FEE7FEE7FEE77047E3
:100998007047704708B500F0A7F808BD08B50248C9
:1009A80000F009FB08BD00BF9408002008B5024804
:1009B80001F0C8FA08BD00BF400E002010B503467C
:1009C8000C4A0D490D48006840B10C4800680344C2
:1009D800521A934206D8094A136010BD0748084CBA
:1009E8000460F2E704F03EFC0C2303604FF0FF3094
:1009F800F3E700BF0000022000040000580A0020AE
:100A080060110020024B4FF000629A60704700BFEF
:100A180000ED00E0DFF834D0002103E00C4B5B5818
:100A2800435004310B480C4B42189A42F6D30B4AF8
:100A380002E0002342F8043B094B9A42F9D3FFF73E
:100A4800E1FF04F02BFCFFF7CBFD7047000002200C
:100A5800045D0008000000207408002074080020CD
:100A680060110020FEE7000010B504460E4B187810
:100A78004FF47A73B3FBF0F30C4A1068B0FBF3F051
:100A880000F070FC68B90F2C01D901200AE000229F
:100A980021464FF0FF3000F01FFC054B1C60002082
:100AA80000E0012010BD00BF080000200400002065
:100AB8000C00002008B50B4B1A6842F400721A604B
:100AC8001A6842F480621A601A6842F480721A60E6
:100AD800032000F0EFFB0020FFF7C6FFFFF7D8FD6B
:100AE800002008BD003C0240034A1168034B1B78F4
:100AF8000B441360704700BF5C0A00200800002008
:100B0800014B1868704700BF5C0A002038B50446DE
:100B1800FFF7F6FF0546B4F1FF3F02D0044B1B7800
:100B28001C44FFF7EDFF401BA042FAD338BD00BFBD
:100B3800080000204A4B5A6822F440325A605A682A
:100B480041680A435A600268536823F4807353600B
:100B580002685368016943EA0123536002685368D5
:100B680023F0407353600268536881680B435360F5
:100B78000268936823F40063936002689368C1680D
:100B88000B439360826A374B9A4257D00268936846
:100B980023F07063936002689368816A0B439360E3
:100BA8000268936823F04053936002689368C16AAF
:100BB8000B4393600268936823F002039360026812
:100BC8009368017E43EA4103936090F82030002B3C
:100BD8003FD00268536843F4006353600268536867
:100BE80023F46043536001684B68426A013A43EA60
:100BF80042334B600268D36A23F47003D3620168FE
:100C0800CB6AC269013A43EA0253CB62026893682D
:100C180023F4007393600268936890F8301043EAF5
:100C2800412393600268936823F4806393600268A9
:100C38009368416943EA8123936070470268936827
:100C480023F0706393600268936823F040539360C5
:100C5800B0E70268536823F400635360CAE700BF33
:100C6800002301400100000F38B310B50446036C9F
:100C780043B1236C13F0100F0BD00120002384F82C
:100C88003C3010BDFFF724FD0023636484F83C303A
:100C9800EFE7236C23F4885323F0020343F00203A5
:100CA80023642046FFF746FF00206064236C23F08E
:100CB800030343F001032364E0E7012070470000C9
:100CC80082B00023019390F83C30012B63D00123BC
:100CD80080F83C3003689A6812F0010F13D19A68C3
:100CE80042F001029A60304B1B68304AA2FB032392
:100CF8009B0C03EB4303019302E0019B013B01932F
:100D0800019B002BF9D10268936813F0010F44D0BE
:100D1800036C23F4E06323F0010343F4807303645A
:100D2800536813F4806F05D0036C23F4405343F4E5
:100D380080530364036C13F4805F19D0436C23F071
:100D480006034364002380F83C306FF022031360ED
:100D5800174B5B6813F01F0F0DD103689A6812F0E8
:100D6800405F1DD19A6842F080429A60002015E0E9
:100D780000234364E6E703680E4A934201D000204B
:100D88000CE09A6812F0405F0CD19A6842F08042F9
:100D98009A60002002E0022000E0002002B07047C4
:100DA8000020FBE70020F9E70400002083DE1B4356
:100DB800002301400020014090F83C30012B19D05D
:100DC800012380F83C300268936823F001039360A4
:100DD80003689B6813F0010F07D1036C23F4885351
:100DE80023F0010343F001030364002380F83C303F
:100DF800184670470220704770B504460D460368D0
:100E08009A6812F4806F03D09B6813F4807F19D11D
:100E1800FFF776FE064623681A6812F0020F1AD109
:100E2800B5F1FF3FF7D025B1FFF76AFE801BA84256
:100E3800F1D9236C43F004032364002384F83C3085
:100E480003202CE0036C43F020030364002380F8A4
:100E58003C30012023E06FF012021A60236C43F447
:100E68000073236423689A6812F0405F16D1207ECD
:100E7800B0B9DA6A12F4700F03D09B6813F4806F6C
:100E88000DD1236C23F480732364236C13F4805FE7
:100E980005D1236C43F00103236400E0002070BDFA
:100EA8000020FCE782B00023019390F83C30012B2E
:100EB8006AD0012380F83C3003689A6812F0010F69
:100EC80013D19A6842F001029A60344B1B68344A85
:100ED800A2FB03239B0C03EB4303019302E0019B5A
:100EE800013B0193019B002BF9D10268936813F031
:100EF800010F4BD0036C23F4E06323F0010343F4A8
:100F080080730364536813F4806F05D0036C23F473
:100F1800405343F480530364036C13F4805F20D080
:100F2800436C23F006034364002380F83C306FF0E1
:100F3800220313600268536843F0806343F0200380
:100F48005360184B5B6813F01F0F0DD103689A6844
:100F580012F0405F1DD19A6842F080429A600020EA
:100F680015E000234364DFE703680F4A934201D08A
:100F780000200CE09A6812F0405F0CD19A6842F0A9
:100F880080429A60002002E0022000E0002002B0C7
:100F980070470020FBE70020F9E700BF04000020AD
:100FA80083DE1B4300230140002001400368D86C06
:100FB80070477047704738B504460268116853682F
:100FC80011F0020F2FD003F0200363B3036C13F06A
:100FD800100F03D1036C43F400730364936813F098
:100FE800405F19D1237EBBB9D36A13F4700F03D0C5
:100FF800936813F4806F0FD1536823F02003536074
:10100800236C23F480732364236C13F4805F03D16F
:10101800236C43F0010323642046FFF771FA236829
:101028006FF012021A60236819685A6802F0800289
:1010380011F0040F36D0002A34D0226C12F0100FB1
:1010480003D1226C42F4005222649A6812F4401FC1
:1010580021D19A6B12F4401F03D09A6812F4806F62
:1010680019D15A6812F4806F15D19A6812F0405F4E
:1010780011D1227E7AB95A6822F080025A60236C14
:1010880023F480532364236C13F4807F03D1236CEF
:1010980043F001032364204600F00AF923686FF047
:1010A8000C021A6022681168536803F0400311F0BB
:1010B800010F04D01BB1136813F0010F09D1226886
:1010C8001168536803F0806311F0200F00D063B9F2
:1010D80038BD236C43F4803323642046FFF769FF4F
:1010E80023686FF001021A60E9E7636C43F00203BA
:1010F80063646FF0200515602046FFF75BFF2368E7
:101108001D60E5E730B482B00023019390F83C30CD
:10111800012B00F0C080012380F83C300B68092BBC
:1011280041D90468E2689BB203EB43031E3B4FF0CE
:10113800070C0CFA03F322EA0303E3600468E2688D
:101148000B8803EB43031E3B8D6805FA03F3134337
:10115800E3604B68062B3DD80468626B03EB83039E
:10116800053B4FF01F0C0CFA03F322EA03036363F9
:101178000468626B4B6803EB8303053BB1F800C05E
:101188000CFA03F3134363630268444B9A4251D049
:101198000268424B9A425AD0002380F83C301846E5
:1011A80002B030BC7047046822699BB203EB43036A
:1011B8004FF0070C0CFA03F322EA030323610468D7
:1011C80022690B8803EB43038D6805FA03F3134385
:1011D8002361BEE70C2B16D805682A6B03EB830343
:1011E800233B1F2404FA03F322EA03032B63056855
:1011F8002A6B4B6803EB8303233B0C8804FA03F345
:1012080013432B63C0E70568EA6A03EB8303413B9A
:101218001F2404FA03F322EA0303EB620568EA6A6F
:101228004B6803EB8303413B0C8804FA03F3134335
:10123800EB62A9E70B68122BAAD1194B5A6822F462
:1012480000025A605A6842F480025A60A0E70B68AC
:10125800144A934201D0112B9ED1114B5A6822F4A3
:1012680080025A605A6842F400025A600A680D4BBC
:101278009A4291D10C4B1B680C4AA2FB03239B0C8E
:1012880003EB83035B000193019B002B84D0019B3C
:10129800013B0193F8E7022082E700BF00200140EC
:1012A80000230140120000100400002083DE1B43CD
:1012B80070470000074AD36823F4E0631B041B0C43
:1012C800000200F4E060034343F0BF6343F40033DB
:1012D800D360704700ED00E000B5194BDB68C3F33D
:1012E8000223C3F1070CBCF1040F28BF4FF0040C14
:1012F80003F1040EBEF1060F18D9033B4FF0FF3E71
:101308000EFA0CFC21EA0C0199400EFA03F322EACA
:101318000303194300280BDB0901C9B200F160403F
:1013280000F5614080F800135DF804FB0023E5E751
:1013380000F00F000901C9B2024B1954F4E700BFCD
:1013480000ED00E014ED00E0002807DB00F01F02CC
:10135800400901239340024A42F82030704700BFF9
:1013680000E100E00138B0F1807F0BD24FF0E023BC
:101378005861054AF02182F823100020986107225D
:101388001A6170470120704700ED00E000230F2B21
:1013980000F2C880F0B583B03AE0042200E00022F1
:1013A800AA4032430234604D45F824205F4A14684D
:1013B8006FEA0C0224EA0C054E6816F4803F01D04F
:1013C8004CEA0405594C2560646802EA04054E6835
:1013D80016F4003F01D04CEA0405544C6560A4683B
:1013E80002EA04054E6816F4801F01D04CEA040591
:1013F8004E4CA560E46822404D6815F4001F01D0EA
:101408004CEA0402494CE26001330F2B00F2888059
:1014180001229A400C6804EA020C32EA0404F3D16F
:101428004C68651E012D03D9112C01D0122C12D144
:1014380085685E000324B44025EA0405CC68B440FE
:101448002C438460456825EA02054C68C4F3001201
:101458009A402A434260C5684FEA430E032404FABF
:101468000EF4E24325EA04058C6804FA0EF42C43D2
:10147800C4604C68022C01D0122C0FD1DD0808354D
:1014880050F8257003F00704A6000F24B44027EA9B
:1014980004070C69B4403C4340F8254004681440F4
:1014A8004A6802F0030202FA0EF2224302604A6816
:1014B80012F0805FA8D0002201921D4A546C44F4B7
:1014C80080445464526C02F480420192019A9C0850
:1014D800A51C154A52F8256003F0030295000F2257
:1014E800AA4026EA0206134A90423FF458AF02F592
:1014F800806290420ED002F5806290420CD002F5D4
:10150800806290420AD002F5806290423FF445AF73
:10151800072245E7012243E7022241E703223FE78A
:1015280003B0F0BD704700BF00380140003C0140E7
:1015380000380240000002400AB181617047090486
:1015480081617047F8B50668346A04F00F07C4F380
:101558004343C4F30A14022B00D0F8BD0546002CFF
:10156800FBD007EB870300EBC303596C0029F4D0C9
:101578002246304602F02BF807EB870305EBC3033E
:101588005A6C22445A64DA6C2244DA6406EB471631
:10159800D6F810250B4B1340002BDED0D6F80035BB
:1015A80023F0804343F00043C6F8003507EB870378
:1015B80005EBC30393F8502082F0010283F8502012
:1015C800CBE700BF0000F81FF0B585B004469DF8D2
:1015D80028509DF82C60BDF8307090F8B8020128AA
:1015E8003BD0012084F8B80201EB810004EBC00075
:1015F8004FF0000C80F83DC080F83830A0F84070FB
:1016080080F8391080F83F6002F07F0C80F83AC00B
:1016180012F0800F18D101EB810004EBC0004FF0ED
:10162800000C80F83BC001EB810004EBC00080F89F
:101638003C50029701960095206802F0CFF80023ED
:1016480084F8B83205B0F0BD01EB810004EBC000AE
:101658004FF0010C80F83BC0E5E70220F2E790F874
:10166800B832012B0BD010B50446012380F8B832EC
:10167800006802F03CF9002084F8B80210BD02208E
:10168800704700284DD070B58AB00446056890F8B8
:10169800B932002B40D0032384F8B932EB6B13F432
:1016A800807F01D100232361206801F034FFA44624
:1016B8005CF8106BEE46BCE80F00AEE80F00BCE823
:1016C8000F00AEE80F009CE803008EE80300251D1C
:1016D80095E80E00304601F0D3FE0121206801F0A4
:1016E80020FFA4465CF8106BEE46BCE80F00AEE89D
:1016F8000F00BCE80F00AEE80F009CE803008EE87E
:10170800030095E80E00304601F0DAFF012384F863
:10171800B93200200AB070BD80F8B83203F00EFB71
:10172800B9E70120704738B59DF81040BDF818504A
:1017380001EB810C00EBCC0C8CF83B208CF83F3093
:1017480094B901EB810C00EBCC0C4FF0030E8CF834
:1017580042E09DF81CE08CF83DE0032B00F29580F8
:10176800DFE803F00B8C305E01EB810C00EBCC0C56
:101778004FF0020E8CF842E0EFE7012C40F0858034
:10178800002A40F0828035B901EB810300EBC303E6
:10179800012283F8512001EB810300EBC30393F886
:1017A80051303BB901EB810300EBC303002283F8FE
:1017B80042206AE001EB810300EBC303022283F8B5
:1017C800422062E0AAB901EB810300EBC30393F85E
:1017D800513033B901EB810300EBC30383F8422096
:1017E80053E001EB810300EBC303022283F842209C
:1017F8004BE001EB810300EBC30393F850303BB996
:1018080001EB810300EBC303002283F842203CE094
:1018180001EB810300EBC303022283F8422034E08A
:10182800AAB901EB810300EBC30393F8513033B934
:1018380001EB810300EBC30383F8422025E001EBB1
:10184800810300EBC303022283F842201DE001EB71
:10185800810300EBC30393F850303BB901EB8103DC
:1018680000EBC303002283F842200EE001EB810362
:1018780000EBC303022283F8422006E001EB810358
:1018880000EBC303002283F8422001EB810300EB45
:10189800C303059A5A649D64002283F85C20DA64C5
:1018A80083F8391083F85D2001EB8101C9003831D4
:1018B800027C0144006802F093F838BD30B583B06B
:1018C80004460568D5F840340193D5F840340093B0
:1018D800009B23F02E030093019B13F0020F07D007
:1018E800019B13F0010F25D1009B43F002030093E5
:1018F800019B13F0080F10D0009B43F008030093DE
:10190800019B13F0040F2DD0A369022B15D0E368B7
:10191800012B22D0204603F070FA019B13F0200F10
:1019280003D0009B43F020030093009BC5F840348C
:1019380003B030BD03F054FAD6E7019B03F4C0238B
:10194800B3F5802F04D00121206801F057FEE1E7AC
:101958000221206801F052FEDCE74EF66022C5F84D
:101968000424D7E7204603F04EFAD6E7F8B5064632
:101978000C46076807EB411707F5A065AB6813F03D
:10198800040F40D00423AB60EB6843F00203EB6024
:10199800AB6813F4007F40F08280AB6813F0010F4E
:1019A80000F0B08033694BB104EB840306EBC3034A
:1019B8009A6C2969C1F31201521ADA6404EB8403A0
:1019C80006EBC303012283F85D2000219965AA6014
:1019D80093F83F30002B6ED0022B6CD0032B7FD0B6
:1019E800012B72D104EB840306EBC303012283F8B5
:1019F8005C2093F85010514083F85010214630462F
:101A080003F0FAF961E0AB6813F4807F06D1AB68A4
:101A180013F0200F14D02023AB60B9E74FF4807384
:101A2800AB6001EB810300EBC303072283F85D2061
:101A3800EB6843F00203EB60006801F058FFA7E78A
:101A4800AB6813F0080F17D1AB6813F4806F9FD001
:101A5800EB6843F00203EB60006801F048FF1023D5
:101A6800AB6004EB840306EBC303082283F85D2014
:101A78004FF48063AB608BE7EB6843F00203EB60E5
:101A880001EB810300EBC303052283F85D201023DB
:101A9800AB600823AB60006801F029FF78E7EB68CA
:101AA80043F00203EB602146306801F020FF4FF459
:101AB8000073AB6013E0EB6843F00203EB60214670
:101AC800306801F014FF1023AB6004EB840306EBCD
:101AD800C30393F8502082F0010283F85020F8BD28
:101AE800D7F8003543F00053C7F8003504EB8403FA
:101AF80006EBC303012283F85C202146304603F03D
:101B08007BF9E2E7AB6813F0020F6CD0EB6823F0C7
:101B18000203EB6004EB840306EBC30393F85D3028
:101B2800012B14D0052B26D0062B2CD0082B2AD01D
:101B3800032B48D0072B11D104EB840306EBC30316
:101B48009A6D01329A65042283F85C2006E004EB62
:101B5800840306EBC303012283F85C200223AB60F5
:101B680004EB840306EBC30393F85C20214630465C
:101B780003F042F9B3E704EB840306EBC303052241
:101B880083F85C20EAE704EB840206EBC202936D5B
:101B980001339365032B0ED9134600229A6504225C
:101BA80083F85C20D7F8003523F0804343F00043E6
:101BB800C7F80035D2E704EB840306EBC30302221F
:101BC80083F85C20EEE704EB840306EBC3030222F0
:101BD80083F85C20D7F8003523F0804343F00043B6
:101BE800C7F80035BAE7AB6813F0800F1AD1AB68B5
:101BF80013F0100F3FF473AF04EB840306EBC30339
:101C080093F83F30032B26D00BB1022B07D104EBFE
:101C1800840306EBC30300229A65336953B3102388
:101C2800AB605CE7EB6843F00203EB6004EB840312
:101C380006EBC3039A6D01329A6504EB840306EB45
:101C4800C303062283F85D202146306801F04FFE69
:101C58008023AB6043E704EB840306EBC303002255
:101C68009A65EB6843F00203EB602146306801F0A7
:101C78003EFED4E704EB840306EBC303032283F898
:101C88005D20EB6843F00203EB602146306801F009
:101C98002EFEC4E7F8B5036803EB411303F5A0650E
:101CA800AA6812F0040F06D00423AB60EB6843F077
:101CB8000203EB60F8BD06460C46AA6812F0200F36
:101CC8001ED02023AB6001EB810300EBC30393F824
:101CD8003D30012BEED101EB810300EBC303002261
:101CE80083F83D2001EB810300EBC303022283F854
:101CF8005C20EB681343EB60006801F0F8FDD9E75E
:101D0800AA6812F0400F34D1AA6812F4007F4AD1B1
:101D1800AA6812F0010F51D1AA6812F0080F63D116
:101D2800AA6812F0100F70D001EB810300EBC30317
:101D380000229A65032283F85D2093F83D306BB941
:101D480001EB810300EBC30393F83C3033B901EB9B
:101D5800810300EBC303012283F83D20EB6843F0C5
:101D68000203EB602146306801F0C1FD1023AB602F
:101D7800A0E701EB810300EBC303042283F85D2095
:101D8800012283F83D2001EB810300EBC30300220D
:101D98009A65EB6843F00203EB60006801F0A7FD69
:101DA8004023AB6086E7EB6843F00203EB60006812
:101DB80001F09DFD4FF40073AB607BE78F0001EBF2
:101DC800810300EBC30300229A65EB6843F002032A
:101DD800EB60006801F08BFD0123AB603C4406EB2F
:101DE800C40686F85D3065E70823AB60EB6843F00E
:101DF8000203EB60006801F07AFD04EB840406EB53
:101E0800C406052386F85D3054E7AA6812F0800FEF
:101E180035D1AA6812F4806F42D1AA6812F0020F75
:101E28003FF448AFEA6822F00202EA6001EB81025F
:101E380000EBC20292F85D20012A45D0032A59D04E
:101E4800042A6BD0052A70D0062A01D0082A58D156
:101E5800282101FB04618A6D01328A65032A6AD947
:101E68000A4600219165042182F85C10D3F8002508
:101E780022F0804242F00042C3F8002541E0EB68BE
:101E880043F00203EB60006801F031FD04EB8404C9
:101E980006EBC406062386F85D308023AB6009E7AD
:101EA800EB6843F00203EB60006801F020FD1023AB
:101EB800AB604FF48063AB6004EB840406EBC406AC
:101EC800082386F85D30F5E601EB810300EBC303D8
:101ED80083F85C2093F83F30023BDBB2934210D882
:101EE800282303FB010393F8512082F0010283F8B1
:101EF800512006E001EB810300EBC303022283F8C3
:101F08005C200223AB6004EB840306EBC30393F865
:101F18005C202146304602F06FFFCBE6282303FB06
:101F28000103022283F85C20EBE7282303FB01036B
:101F380083F85C20E5E7282202FB0462022182F88C
:101F48005C1093E7F8B504460568284601F052FB93
:101F5800012800D0F8BD206801F048FB0028F9D01E
:101F6800206801F043FB10F4001F03D023684FF4EE
:101F780000125A61206801F039FB10F4801F03D069
:101F880023684FF480125A61206801F02FFB10F08B
:101F9800806F03D023684FF080625A61206801F097
:101FA80025FB10F0020F02D0236802225A61206834
:101FB80001F01CFB10F0005F08D023684FF00052BE
:101FC8005A61D5F8403413F0010F25D0206801F08C
:101FD8000DFB10F0807F27D1206801F007FB10F07F
:101FE800080F25D1206801F001FB10F0007F26D1F1
:101FF800206801F0FBFA10F0100FABD0226893694B
:1020080023F0100393612046FFF79CFA2268936936
:1020180043F0100393619DE7204602F0E7FE01219B
:10202800206801F0EBFAD1E72046FFF747FCD3E739
:10203800204602F0CFFE236808225A61D2E72068C2
:1020480001F050FC0746002604E0F1B22046FFF7F5
:1020580021FE0136A368B34212D906F00F0327FA0E
:1020680003F313F0010FF4D005EB4613D3F8003552
:1020780013F4004FE9D0F1B22046FFF777FCE8E708
:1020880023684FF000725A61B2E738B590F8B83259
:10209800012B0ED00446012580F8B852006801F0E3
:1020A80034FA2946206801F0E7FA002084F8B802DB
:1020B80038BD0220FCE790F8B832012B0BD010B5E0
:1020C8000446012380F8B832006801F03BFD002087
:1020D80084F8B80210BD0220704708B5006801F006
:1020E800ACFA08BD01EB810100EBC10191F85C007D
:1020F800704701EB810100EBC101C86C704708B55E
:10210800006801F066FB08BD08B5006801F056FBE1
:1021180008BD0000002800F0CC8070B5044690F897
:102128003D30002B77D0242384F83D302268136893
:1021380023F0010313602268136843F4004313601B
:102148002268136823F40043136000F0D7FE626826
:102158005A4B9A4264D85A4B98428CBF00230123A9
:10216800002B40F0A8805749A1FB00318B0C256853
:102178006A6822F03F0242EA91426A6021680A6A6C
:1021880022F03F0266684D4DAE424FD801331343EB
:102198000B622168CA6922F44F4222F0FF02666886
:1021A800464B9E424CD8431E7600B3FBF6F30133F0
:1021B80040F6FC70034278D0C3F30B031343CB61A2
:1021C80021680B6823F0C003E269206A02431343C5
:1021D8000B6021688B6823F4034323F0FF03226913
:1021E800E068024313438B602168CB6823F0FF0348
:1021F8006269A06902431343CB602268136843F005
:102208000103136000202064202384F83D302063FC
:1022180084F83E0070BD80F83C30FEF795FA82E7FE
:10222800294B98428CBF0023012399E74FF49675F8
:1022380005FB03F3254DA5FB03539B090133A6E7D3
:10224800A368BBB9451E06EB460CB5FBFCF501358A
:10225800C5F30B05B5FA85F56D0945BBC3B901385A
:1022680006EB4603B0FBF3F30133C3F30B0343F46C
:102278000043A3E7451E06EB860C0CEB8C0CB5FB64
:10228800FCF50135C5F30B05B5FA85F56D09E4E7ED
:10229800013806EB860303EB8303B0FBF3F301334A
:1022A800C3F30B0343F4404388E7042386E7012381
:1022B80084E7012070470120ACE700BFA086010039
:1022C8007F841E0083DE1B43FF083D00D34D621050
:1022D800002800F0C18038B5044690F84130002B42
:1022E80051D0022284F841202168CB6923F47B6312
:1022F80023F00F03CB6123681A626369934263D0AA
:10230800E368002B46D11025A368202B00D86D0068
:10231800012000F0BBFE2369B3F5007F3CD0B0FB81
:10232800F5F000EB800043006069B3FBF0F3053380
:102338004A4AA2FB0323C3F3C002C2EBD3035B08E0
:1023480011029A1EFD2A41D822690A4321681343C3
:102358000B622168CB6923F47B6323F00F03626867
:10236800A0680243E0680243A0690243134343F4B0
:102378000063CB61236A012B2ED000206064012307
:1023880084F8413038BD80F84030354B4363FEF760
:1023980015FAA6E72025B7E7E36853B1AD00B0FB0F
:1023A800F5F000EB800043006069B3FBF0F3053300
:1023B800BEE7ED00B0FBF5F000EB8000430060697C
:1023C800B3FBF0F30533B3E70021BAE7636C43F0DE
:1023D800100363640120D5E7224B63632268224B14
:1023E8009A421FD04FF04022D36923F47B6323F035
:1023F8000F03D36122681C4B9A4215D04FF040233B
:1024080002221A622268184B9A4210D04FF04021DB
:10241800CA6992B26368B3F5007F0AD0CBB94FF4AA
:10242800807C08E0114ADFE7A3F58063E8E70F49FD
:10243800EEE74FF4807CA068E568238B2B439BB2C2
:1024480003439BB243EA0C03134343F40063CB6199
:1024580093E74FF0000CEEE701207047CDCCCCCCD1
:10246800EF2400080127000800380040003400402D
:10247800704708B5426A03681288DA60436A023313
:102488004362438D9BB2013B9BB24385438D9BB214
:1024980003B108BD0268536823F0A0035360012309
:1024A80080F84130FFF7E4FFF3E7704708B50368A9
:1024B800DA68C36A1A80C36A0233C362438E9BB266
:1024C800013B9BB24386438E9BB203B108BD0268B1
:1024D800536823F060035360012380F84130FFF70D
:1024E800E4FFF3E7704710B584B0044602689368C8
:1024F800039390F84130DBB2042B06D094F84130B6
:10250800DBB2032B2CD004B010BD039B13F0010FDA
:1025180003D0536813F0400F1FD1039B13F0400FF3
:10252800ECD023685A6812F0200FE7D05A6822F0DE
:1025380060025A60002301932368DA6801929B685D
:102548000193019B012384F84130636C43F002033B
:1025580063642046FFF7C6FFD0E7FFF7A7FFDCE775
:10256800039B13F0020F04D023685B6813F0800FFD
:102578001DD1039B13F0080FC5D023685A6812F0C9
:10258800200FC0D05A6822F0A0025A60002302939C
:1025980023689B680293029B012384F84130636C93
:1025A80043F0040363642046FFF79CFFABE7204633
:1025B800FFF75FFFDDE7704708B5436A9A1C426280
:1025C80002681B88D360438D9BB2013B9BB2438555
:1025D800438D9BB23BB90268536823F0A003536054
:1025E800438E9BB203B108BD012380F84130FFF749
:1025F800E2FFF8E708B50268154B9A421CD04FF085
:102608004023DA68C36A991CC1621A80438E9BB260
:10261800013B9BB24386438E9BB263B902680C4B65
:102628009A420CD04FF04022536823F06003536065
:10263800438D9BB22BB108BDA3F58063E1E7054A42
:10264800F2E7012380F84130FFF7B5FFF3E700BF59
:10265800003800400034004008B5436A9A1C4262C2
:102668001A880168134B994218D04FF04023DA605A
:10267800438D9BB2013B9BB24385438D9BB263B9AB
:1026880002680C4B9A420CD04FF04022536823F05A
:10269800A0035360438E9BB22BB108BDA3F58063A2
:1026A800E5E7054AF2E7012380F84130FFF783FFA9
:1026B800F3E700BF003800400034004008B5036865
:1026C800DA68C36A991CC1621A80438E9BB2013BC7
:1026D8009BB24386438E9BB23BB90268536823F092
:1026E80060035360438D9BB203B108BD012380F89A
:1026F8004130FFF760FFF8E710B586B0044603687D
:102708009A680592704A93426FD04FF040229168C0
:1027180004915B680393536802936368B3F5007F81
:1027280001D0002B70D1059B13F0020F03D0039B3F
:1027380013F0800F5CD1049B13F0010F03D0029BB0
:1027480013F0400F58D1049B13F0400F24D0029B84
:1027580013F0200F20D022685B4B9A4250D04FF0E4
:102768004022536823F0600353602268536823F0C3
:10277800A0035360002300932368DA6800929B68E3
:102788000093009B012384F84130636C43F00203FB
:1027980063642046FFF7A6FE059B13F0080F22D0BE
:1027A800039B13F0200F1ED02268536823F0A00368
:1027B80053602268444B9A4224D04FF04022536819
:1027C80023F0600353600023019323689B680193FF
:1027D800019B012384F84130636C43F00403636474
:1027E8002046FFF77FFE06B010BDA2F580628EE797
:1027F8002046FFF7E1FE9EE72046FFF7FBFEA2E733
:10280800324AAEE7314ADAE7049B13F0020F03D0ED
:10281800029B13F0800F4AD1059B13F0010F03D0E0
:10282800039B13F0400F46D1059B13F0400F1CD0BB
:10283800039B13F0200F18D02268536823F060031D
:1028480053602268204B9A4239D04FF04022536897
:1028580023F0A0035360012384F84130636C43F0F4
:10286800020363642046FFF73DFE049B13F0080F44
:10287800B9D0029B13F0200FB5D02268124B9A42B0
:102888001FD04FF04022536823F0A0035360226802
:10289800536823F060035360012384F84130636C6C
:1028A80043F0040363642046FFF71CFE9BE72046C1
:1028B800FFF7D2FEB0E72046FFF700FFB4E7034A70
:1028C800C5E7024ADFE700BF003800400034004097
:1028D800002800F0DA8170B582B00446036813F06E
:1028E800010F3BD09F4B9B6803F00C03042B2CD0AB
:1028F8009C4B9B6803F00C03082B21D06368B3F54D
:10290800803F4FD0B3F5A02F52D0964B1A6822F4CF
:1029180080321A601A6822F480221A606368002BD9
:1029280050D0FEF7EDF805468E4B1B6813F4003FB8
:1029380014D1FEF7E5F8401B6428F5D90320ABE174
:10294800884B5B6813F4800FD8D0864B1B6813F450
:10295800003F03D06368002B00F09981236813F0CF
:10296800020F54D07F4B9B6813F00C0F3ED07D4B69
:102978009B6803F00C03082B33D0E368002B68D066
:10298800794B01221A60FEF7BBF80546754B1B68A8
:1029980013F0020F54D1FEF7B3F8401B0228F5D903
:1029A800032079E16F4A136843F480331360B5E775
:1029B8006C4B1A6842F480221A601A6842F480321A
:1029C8001A60ABE7FEF79CF80546664B1B6813F4E4
:1029D800003FC3D0FEF794F8401B6428F5D90320C4
:1029E8005AE1604B5B6813F4800FC6D15D4B1B68DE
:1029F80013F0020F03D0E368012B40F04A81594AD3
:102A0800136823F0F803216943EAC10313602368BC
:102A180013F0080F42D063696BB3534B0122C3F81C
:102A2800802EFEF76DF805464E4B5B6F13F0020FD4
:102A380034D1FEF765F8401B0228F5D903202BE1B5
:102A4800484A136823F0F803216943EAC103136075
:102A5800DDE7454B00221A60FEF752F80546414B68
:102A68001B6813F0020FD2D0FEF74AF8401B022869
:102A7800F5D9032010E13C4B0022C3F8802EFEF765
:102A88003FF80546374B5B6F13F0020F06D0FEF791
:102A980037F8401B0228F5D90320FDE0236813F01E
:102AA800040F77D02F4B1B6C13F0805F33D10023BA
:102AB80001932C4B1A6C42F080521A641B6C03F081
:102AC80080530193019B0125284B1B6813F4807FD9
:102AD80023D0A368012B34D0052B38D0214B1A6F93
:102AE80022F001021A671A6F22F004021A67A3681B
:102AF800002B3DD0FEF704F806461A4B1B6F13F067
:102B0800020F46D1FDF7FCFF801B41F28833984243
:102B1800F3D90320C0E00025D6E7144A136843F42C
:102B280080731360FDF7ECFF0646104B1B6813F427
:102B3800807FCED1FDF7E4FF801B0228F5D9032062
:102B4800AAE0084A136F43F001031367CFE7054B68
:102B58001A6F42F004021A671A6F42F001021A67EC
:102B6800C5E700BF0038024000004742007000403F
:102B7800FDF7C6FF06464F4B1B6F13F0020F08D038
:102B8800FDF7BEFF801B41F288339842F3D903203A
:102B980082E0E5B9A369002B7DD0464A926802F02D
:102BA8000C02082A51D0022B17D0434B00221A6678
:102BB800FDF7A6FF04463F4B1B6813F0007F42D089
:102BC800FDF79EFF001B0228F5D9032064E0394A6F
:102BD800136C23F080531364DCE7374B00221A662A
:102BE800FDF78EFF0546334B1B6813F0007F06D0B8
:102BF800FDF786FF401B0228F5D903204CE0E36966
:102C0800226A1343626A43EA8213A26A5208013AAB
:102C180043EA0243E26A43EA0263264A5360264BC8
:102C280001221A66FDF76CFF0446224B1B6813F05D
:102C3800007F06D1FDF764FF001B0228F5D90320A9
:102C48002AE0002028E0002026E0012B26D0194B9E
:102C58005B6803F48001E269914221D103F03F02ED
:102C6800216A8A421ED1616A47F6C0721A408A42B6
:102C78001AD103F44032A16A8A4217D103F0706373
:102C8800E26A934214D1002006E001207047012037
:102C980002E0012000E0002002B070BD0120FBE747
:102CA8000120F9E70120F7E70120F5E70120F3E724
:102CB8000120F1E7003802400000474208B5314BD7
:102CC8009B6803F00C03042B57D0082B57D12D4BCE
:102CD8005A6802F03F025B6813F4800F2AD0294B30
:102CE8005968C1F3881C4FEA4C11B1EB0C006EEB2C
:102CF8000E0E4FEA8E1343EA90638101091A63EBC3
:102D08000E03DB0043EA5173C90011EB0C0C43F1CD
:102D18000003590200234FEA4C2041EADC51FDF739
:102D280037FA184B5B68C3F3014301335B00B0FB10
:102D3800F3F025E0134B5968C1F3881C4FEA4C1196
:102D4800B1EB0C006EEB0E0E4FEA8E1343EA906364
:102D58008101091A63EB0E03DB0043EA5173C900D2
:102D680011EB0C0C43F10003990200234FEA8C206D
:102D780041EA9C51FDF70CFAD3E7034800E0034809
:102D880008BD00BF0038024000127A000024F40099
:102D9800002800F09B8070B50D4604464F4B1B6819
:102DA80003F00F038B4208D2CBB24C4A137013685E
:102DB80003F00F038B4240F08B80236813F0020F5F
:102DC80017D013F0040F04D0454A936843F4E05336
:102DD8009360236813F0080F04D0414A936843F4C2
:102DE800604393603E4A936823F0F003A1680B4365
:102DF8009360236813F0010F32D06368012B21D050
:102E08009A1E012A25D9364A126812F0020F61D09B
:102E180033498A6822F0030213438B60FDF770FE82
:102E280006462F4B9B6803F00C036268B3EB820FD6
:102E380016D0FDF765FE801B41F288339842F0D921
:102E4800032042E0264A126812F4003FE0D1012034
:102E58003BE0234A126812F0007FD9D1012034E008
:102E68001E4B1B6803F00F03AB4207D9EAB21B4B9A
:102E78001A701B6803F00F03AB422DD1236813F0BF
:102E8800040F06D0164A936823F4E053E1680B4315
:102E98009360236813F0080F07D0114A936823F44E
:102EA8006043216943EAC1039360FFF707FF0C4BB6
:102EB8009B68C3F303130B4AD35CD8400A4B1860D2
:102EC8000A4B1868FDF7D0FD002070BD012070473F
:102ED8000120FAE70120F8E70120F6E7003C02406C
:102EE80000380240D05C0008040000200C000020DC
:102EF800014B1868704700BF0400002008B5FFF7B1
:102F0800F7FF044B9B68C3F38223034AD35CD84082
:102F180008BD00BF00380240E05C000830B583B04F
:102F28000446036813F0050F0ED1236813F0020F4F
:102F380038D1236813F0080F00F09D80227D4F4B95
:102F4800C3F8E021002097E04D4B00229A66FDF778
:102F5800D7FD05464B4B1B6813F0006F06D0FDF7F5
:102F6800CFFD431B022BF5D9032085E06368A268D7
:102F780043EA8213E26843EA0273424AC2F88430A1
:102F88003F4B01229A66FDF7BBFD05463D4B1B688A
:102F980013F0006FC9D1FDF7B3FD401B0228F5D926
:102FA800032069E000230193364B1A6C42F08052EB
:102FB8001A641B6C03F080530193019B324A136817
:102FC80043F480731360FDF79BFD05462E4B1B6889
:102FD80013F4807F06D1FDF793FD431B022BF5D92F
:102FE800032049E0274B1B6F13F4407314D0226968
:102FF80002F440729A420FD0224B1A6F22F44072A8
:103008001F490120C1F8400E0020C1F8400E1A6780
:103018001B6F13F0010F12D1236903F44072B2F54C
:10302800407F1DD0174A936823F4F813936015491D
:103038000B6F2269C2F30B0213430B6779E7FDF7A5
:103048005FFD05460F4B1B6F13F0020FE4D1FDF730
:1030580057FD401B41F288339842F3D903200BE017
:1030680008498A6822F4F81223F0704323F4407365
:1030780013438B60DBE7002003B030BD00104742EC
:10308800000047420038024000700040012801D08B
:1030980000207047174B9B6813F4000303D0012BE3
:1030A80025D115487047134B5B6813F4800F15D072
:1030B800104BD3F8843003F03F031048B0FBF3F310
:1030C8000C4AD2F88400C0F3881003FB00F0D2F851
:1030D8008430C3F30273B0FBF3F07047054BD3F8A9
:1030E800843003F03F030648B0FBF3F3E8E7002021
:1030F800704700BF003802400080BB0000127A0011
:103108000024F40000283BD010B504460023836255
:1031180090F85130002B2ED0022384F851302268C9
:10312800136823F0400313606368A2681343E268DE
:1031380013432269134362691343A26902F40072BC
:103148001343E2691343226A1343A16A22680B43BB
:103158001360638B03F00403616A22680B435360B6
:103168002268D36923F40063D361002060650123DA
:1031780084F8513010BD80F85030FDF7B5FBCBE72F
:103188000120704710B4036A046A24F00104046241
:10319800846924F0F00C4CEA021223F00A030B4372
:1031A8008261036210BC704710B4046A24F01004F2
:1031B80004628469036A24F4704C4CEA023223F0F6
:1031C800A00343EA01138261036210BC704783685D
:1031D80023F070030B4343F0070383607047022317
:1031E80080F83D300268936803F00703062B03D08C
:1031F800136843F001031360012380F83D30002079
:10320800704700000368254A90420ED0B0F1804F05
:103218000BD0A2F57C42904207D002F58062904222
:1032280003D002F58062904203D123F070034A680C
:1032380013431A4A90421AD0B0F1804F17D0A2F522
:103248007C42904213D002F5806290420FD002F582
:10325800806290420BD002F59A32904207D002F574
:103268008062904203D002F58062904203D123F439
:103278004073CA68134323F080034A691343036009
:103288008B68C3620B688362044B984202D00123A7
:10329800436170470B690363F9E700BF0000014011
:1032A800B0B110B5044690F83D3063B1022384F8FC
:1032B8003D30214651F8040BFFF7A4FF012384F8A1
:1032C8003D30002010BD80F83C30FDF745FBEDE7B0
:1032D8000120704710B4846824F47F4C42EA03222A
:1032E8000A4342EA0C02826010BC704790F83C30F6
:1032F800012B66D010B50446012380F83C30022328
:1033080080F83D300268936823F47F4323F0770305
:1033180093600B68602B40D022D8402B47D00BD944
:10332800502B0ED1CA6849680068FFF72BFF50215F
:103338002068FFF74CFF04E0202B0CD008D9302B75
:1033480009D0012384F83D30002084F83C0010BDEA
:103358000BB1102BF5D119462068FFF738FFF0E7BD
:10336800702B0ED0B3F5005FEBD1CB684A68896843
:103378000068FFF7AFFF2268936843F480439360C7
:10338800DFE7CB684A6889680068FFF7A3FF22680F
:10339800936843F077039360D3E7CA684968006885
:1033A800FFF702FF60212068FFF711FFC9E7CA682D
:1033B80049680068FFF7E6FE40212068FFF707FF2D
:1033C800BFE702207047000090F83C30012B34D052
:1033D80010B4012380F83C30022380F83D300368A4
:1033E8005A689C6822F0700C0A6842EA0C025A601B
:1033F8000368134A934212D0B3F1804F0FD0A2F55D
:103408007C4293420BD002F58062934207D002F5CA
:103418008062934203D002F59A32934204D124F099
:1034280080044A6814439C60012380F83D300023DF
:1034380080F83C30184610BC70470220704700BF27
:1034480000000140002301330C4A934211D802695D
:10345800002AF8DA036943F001030361002301330A
:10346800064A934207D8026912F0010FF7D10020EB
:103478007047032070470320704700BF400D0300CA
:1034880084B010B5044603A880E80E00089B012B01
:103498001FD1A36B23F48033A363E36823F484036D
:1034A80023F04003E360E36823F44013E3600F9BD9
:1034B800012B09D02046FFF7C5FF069B012B1BD027
:1034C800BDE8104004B07047E36843F48013E3603C
:1034D800F0E7E36843F04003E3602046FFF7B2FFFC
:1034E8000C9B23B9A36B43F48033A363E5E7A36B79
:1034F80023F48033A363E0E7A36843F00603A360E3
:10350800A36843F02003A360DAE7836843F001036C
:10351800836000207047836823F0010383600020E4
:10352800704708B5C36823F0C043C360012909D0B8
:1035380069B9C36843F08043C3603220FDF7E6FAF7
:10354800002008BDC36843F00053C360F5E70120BD
:10355800F7E70000890141F02001016100230133F0
:10356800054A934205D8026912F0200FF7D10020CE
:1035780070470320704700BF400D0300102303610C
:1035880000230133054A934205D8026912F0100F4F
:10359800F7D1002070470320704700BF400D03009B
:1035A80010B59DF8084084B903334FEA930E4FF0E5
:1035B800000C08E000EB023303F5805351F8044B8C
:1035C8001C600CF1010CF445F4D3002010BD8446B6
:1035D8000846D11C8908002305E00CF580521268C2
:1035E80040F8042B01338B42F7D370474269806956
:1035F80010407047406900F00100704700F5806C8A
:10360800D0F8003423F00303C0F80034D0F80034B5
:1036180001F003021343C0F80034012903D0022942
:1036280006D0002070474BF68033CCF80430F8E71A
:1036380041F27073CCF80430F3E730B583B0044638
:1036480000250195D0F840340193019B23F02E0307
:103658000193019B43F48073C0F840346420FDF764
:1036680055FA019B23F48073C4F840340A20FDF70F
:103678004DFA284603B030BD82B000230193D0F83C
:1036880040340193019B23F02E030193019B13F413
:10369800805F01D101290CD0019B13F4805F05D014
:1036A80021B9019B23F48053C0F84034002002B0B4
:1036B8007047019B43F48053C0F84034ECE70000A6
:1036C80084B010B5044603A880E80E000023C4F8AF
:1036D800003EA36B43F40013A363A36B23F40023FE
:1036E800A363A36B23F48023A363E36B13F4807FAA
:1036F80010D0059B012B06D0D4F8003423F0040326
:10370800C4F800340CE0D4F8003443F00403C4F8DF
:10371800003405E0D4F8003423F00403C4F800347E
:1037280010212046FFF716FF2046FFF727FF00224B
:1037380009E004EB42134FF0FF31C3F808150021EC
:10374800C3F80C150132049B9342F2D8012120469C
:10375800FFF792FFC820FDF7D9F90023A3614FF0C6
:10376800FF336361E36B13F4807F17D04FF400736A
:10377800636203F18073A3620D4BC4F80031069BAA
:103788001BB9A36943F01003A361A269094B134352
:10379800A3610020BDE8104004B070478023636235
:1037A80003F5C003A362044BC4F80031E7E700BF88
:1037B8000003E000080020A3E000400082B00023DE
:1037C8000193D0F8403401930198C0F3414002B00E
:1037D800704700F58060806880B27047F0B5044695
:1037E8009DF818C000EB411E0EF5A0604FF0FF35A4
:1037F8008560BCF1030F64D8DFE80CF002550218AD
:1038080040F29D45C56012F0800F09D1E56B15F4B3
:10381800807F58D0C56845F06005C56000200CE081
:10382800C56845F48075C560002006E040F29D65D6
:10383800C56012F0800F30D10020D4F8185401F080
:103848000F01012606FA01F12943C4F81814A169E9
:1038580041F00071A16112F0800F36D100249DF86B
:103868001410022934D000219B0503F0FE53D20224
:1038780002F4F04213434FEA8C4202F4402213430D
:10388800BDF81C20C2F30A02134323430B43CEF8AE
:103898000035BCF1030F1ED0F0BDC56845F4807536
:1038A800C5600020C9E740F22525C56012F0800FE9
:1038B80001D10020C1E7C56845F4C075C560002086
:1038C800BBE70120B9E70020B7E74FF40044C6E79B
:1038D8004FF40031C8E7DEF8003543F00053CEF866
:1038E8000035D9E700F58060406980B2704700EB89
:1038F800411101F5A06CD1F80035C3F3814213F4EE
:10390800402F27D0022A25D0D1F8003543F0804334
:10391800C1F80035D0F8103413F47F0347D1D1F83B
:10392800002522F00042C1F80025D1F8002542F018
:103938000042C1F80025D1F8002522F40042C1F860
:1039480000250133B3F57A7F2FD8DCF80020002A50
:10395800F7DB2AE0D1F8003543F08043C1F80035A1
:10396800C36A13F47F031AD1D1F8002522F000426C
:10397800C1F80025D1F8002542F00042C1F8002521
:10398800D1F8002522F40042C1F800250133B3F52F
:103998007A7F0AD8DCF80020002AF7DB05E0D1F8A6
:1039A800003543F00043C1F8003500207047D1F8D6
:1039B800003543F00043C1F80035F6E700EB41114C
:1039C800064AC1F81025D1F8003523F0804343F0AA
:1039D8000043C1F800350020704700BF0000088090
:1039E80030B583B091F801C0C36B13F4807F07D062
:1039F8000B792BB912B94B79012B11D0012A13D0AD
:103A08000B69E3B10C892344013BB3FBF4F39BB28C
:103A1800B3F5807F14D924020C614FF480730FE052
:103A28006146FFF7CBFF79E000EB4C13D3F80C4568
:103A380024F06004C3F80C4500234B71E0E7012330
:103A4800CC781CB10C8903FB04F40C610C69C4F339
:103A5800120E3A4C04EAC3434EEA030391F80AE013
:103A68004FEA4E7E0EF0C04E00EB4C1C43EA0E03AC
:103A7800CCF8103512B1CB68CCF8143500F5806E4F
:103A8800DEF8083013F0010F0CBF01250025DCF823
:103A9800004524F00054CCF80045DCF8003543EA32
:103AA8004573CCF80035DCF80045254B1C601C68D4
:103AB80024F080441C60CB78C3B1214C236843F4C4
:103AC800004323601E4B1C6844F000441C601B68C4
:103AD800CCF8003512BBCB7803BB0B69F3B1CA79BC
:103AE800032A14D8DFE802F0081D081D144C2368C7
:103AF80023F400432360E5E70333C26A92B2C3F3B9
:103B08008F039A4203D2836943F020038361002321
:103B180000930B8A4A78C968FFF742FD002003B07A
:103B280030BD0333DEF8102092B2C3F38F039A42FC
:103B3800EDD2836943F080638361E8E70000F81FF2
:103B4800600A002010B50446FFF7E5FC1021204666
:103B5800FFF700FD2046FFF711FD00220AE004EB05
:103B68004211D1F8003523F0802343F08043C1F897
:103B7800003501320F2AF2D90020034600E0013057
:103B88000F2813D804EB401C0CF5A061DCF80025C5
:103B980022F4004242F04042CCF800250133B3F54C
:103BA8007A7FECD80A68002AF8DBE8E74FF0FF33A1
:103BB800C4F8143463612046FFF7A7FC002010BD49
:103BC8000020704708B52122027420224274002286
:103BD800428282820722C28200F0FEFE08BD08B53A
:103BE800A122027421224274002242828282072288
:103BF800C28200F0F1FE08BD38B50446D0F87C3327
:103C0800D9694031FFF7EBFF054620B9D4F8D43322
:103C1800022120469847284638BD38B50446D0F8D2
:103C28007C33DD69297879B9297BB1B9697BF1B928
:103C3800D4F87C33D86928B101F05CFBD4F87C3324
:103C48000022DA61002038BD01F016F829782046F4
:103C580001F02AF800232B70E6E7204601F00CF863
:103C6800297B204601F020F800232B73DEE720464D
:103C780001F002F8697B204601F016F800236B7307
:103C8800D6E7F0B585B0044601230222114600F0BC
:103C980044FB012800F2AE8006460146204600F0AB
:103CA80032FB0746002840F0A980D4F87C53502006
:103CB80001F018FBE861D4F87C33DD69002D00F0D1
:103CC8009F8050220021284601F0D8FD1A2303FBCB
:103CD800064393F84E2393F94E33002B72DB697831
:103CE800204600F0CEFF014628706A786B8902935F
:103CF8000323019394F81D33009394F81C33204652
:103D080000F0AAFF00222978204601F0D7F8002306
:103D18001A460A21204600F000FB012872D81A230F
:103D280003FB004393F84E2393F94E33002B51DBEA
:103D3800AA731A2303FB0043B3F850332B831A23C7
:103D480003FB004393F8562393F95633002B49DBC2
:103D5800AA731A2303FB0040B0F858332B83A97BBE
:103D6800204600F08EFF6873E97B204600F089FF4B
:103D78002873AA7B697B2B8B02930226019694F801
:103D88001D33009394F81C33204600F065FFEA7B4E
:103D9800297B6B8B0293019694F81D33009394F85A
:103DA8001C33204600F058FF002685F84C60324648
:103DB800697B204601F082F83246297B204601F0D3
:103DC8007DF818E06A701A2000FB0646B6F85033F2
:103DD8006B8184E7EA731A2303FB0043B3F850337B
:103DE8006B83ACE7EA731A2303FB0040B0F858333F
:103DF8006B83B4E70227384605B0F0BD0227FAE71F
:103E08000227F8E70227F6E7704730B583B0054682
:103E1800D0F87C33DC6994F84D30012B03D0022BA9
:103E280019D003B030BD606A228B90420AD9637BF7
:103E3800E16901200090284600F0D5FE022384F8AD
:103E48004D30EEE7637BE1690122009282B2284699
:103E580000F0C9FEF2E7617B01F01CF8012805D0EB
:103E68000228DED1012384F84D30DAE7636A228B19
:103E780093420AD99B1A6362E3691344E361636A54
:103E880033B1012384F84D30CBE700236362F6E7B2
:103E9800002384F84D302846FFF7B6FFC1E7704786
:103EA80038B50446D0F87C33DD6995F84E30032BDD
:103EB80002D0042B09D038BD2B7B6A8B296A00F00D
:103EC800A8FE042385F84E30F5E7297B00F0E2FFD1
:103ED8000128F0D1297B204600F0D6FFAB6A834247
:103EE8000BD06A8B824208D21B1AAB622B6A184429
:103EF8002862032385F84E30DDE7002385F84E302D
:103F08002046FFF7CCFFD6E7704770B50446D0F8D7
:103F18007C33DE6996F84C50042D04D8DFE805F0B0
:103F28003F0513394100012539E0B16CFFF74AFE1E
:103F380018B9022386F84C3031E001283AD004231E
:103F480086F84C302BE006F14001FFF748FE0546A5
:103F5800C0B9002386F84C30736C23F07F42B16CF3
:103F68004B6823F07F439A4201D0012517E0326C59
:103F78000B689A4201D0012511E02046FFF7C4FFE3
:103F880001250CE001280AD0042386F84C300125CD
:103F980005E0FFF73AFF2046FFF782FF0125284694
:103FA80070BD002100F0D6FD30B9002386F84C30F2
:103FB8000125F4E70546F2E70125F0E784460023EA
:103FC80006E003F1E0020CEB8202002151600133AC
:103FD8000E2BF6D9002305E00CEB0302002182F832
:103FE8001C110133B3F5007FF6D300208CF80000D4
:103FF8008CF8010001238CF80230CCF8C4038CF84B
:10400800183040228CF806208CF819008CF81C0314
:104018008CF81D338CF81F038CF81E03704708B505
:104028000378DBB20B2B00D008BDD0F87C33002B13
:10403800FAD09B699847F7E770B584B0044645788D
:10404800072D00F22C81DFE815F008004800690010
:104058009A00BF00E500FE001701082100F0FDFCF2
:1040680018B1032821D0012509E194F82D33A37153
:104078000125657002930026019694F81D3300937C
:1040880094F81C3380222179204600F0E5FDA379BD
:104098000293019694F81D33009394F81C3332462A
:1040A8006179204600F0D8FDE9E094F81E33013329
:1040B800DBB284F81E33032B03D90D2323700125AB
:1040C800DDE06179204600F0EFFD2179204600F01F
:1040D800EBFD002323700125D1E0122100F0BDFC87
:1040E80010B902236370CAE0032840F0C88094F82E
:1040F8001E330133DBB284F81E33032B02D90D23A0
:104108002370BCE06179204600F0CEFD217920467D
:1041180000F0CAFD002363702370B0E0012100F0B5
:10412800E6FC18B1032824D00125A8E0022000F0FD
:10413800DDFE012584F81C5303236370A3790293E1
:104148000026019694F81D3300932B46802221798E
:10415800204600F081FDA3790293019694F81D335F
:10416800009394F81C3332466179204600F074FDC0
:1041780085E00D2323700023637001257FE009216A
:1041880000F084FC18B904236370012577E0032844
:1041980001D0012573E094F81E330133DBB284F8B3
:1041A8001E33032B03D90D232370012567E06179A2
:1041B800204600F079FD2179204600F075FD0023A6
:1041C8006370237001255AE0B0F83A1300F05EFCE2
:1041D80018B905236370012551E0032801D0012592
:1041E8004DE094F81E330133DBB284F81E33032B01
:1041F80003D90D232370012541E06179204600F0A1
:1042080053FD2179204600F04FFD00236370237091
:10421800012534E090F8341319B9062343700125B9
:104228002DE0FF2300F58E7200F049FC18B9062333
:104238006370012523E0032801D001251FE0062330
:10424800637001251BE090F8351319B907234370F3
:10425800012514E0FF2300F58E7200F030FC18B938
:104268000723637001250AE0032801D0012506E031
:1042780007236370012502E090F8365315B92846E4
:1042880004B070BDFF2300F58E72294600F017FCBC
:1042980005460028F3D0032803D00125EFE70125C0
:1042A800EDE70025EBE7D8B170B50E46044680F877
:1042B800CC230025C0F87C53C0F88053FFF77EFE5E
:1042C80084F8235384F8205384F8215384F8225324
:1042D8000EB1C4F8D463204600F09CFD002070BDE8
:1042E800022070470A4651B1D0F880334BB9591CA7
:1042F800C0F88013DE3340F82320002070470220E6
:1043080070470220704790F83C338B4203D980F8FD
:104318002413002070470220704710B5044600207F
:104328000BE04FF01A0C0CFB0E4E9EF849C39C454F
:104338001CD0FF2B1AD00130C0B2012815D88646F0
:104348004FF01A0C0CFB004C9CF847C38C4501D06D
:10435800FF29F0D14FF01A0C0CFB0E4C9CF848C307
:104368009445DED0FF2AE6D1DBE7FF2010BD10B56B
:10437800044600F0C9FD0121204600F091FD00200F
:1043880010BD30B587B0044602238DF8173090F879
:104398002133DBB2012B11D02378DBB20B2B7BD876
:1043A800DFE813F00F002100450005017A007D00C9
:1043B800E30092009C00A600B700FC0003230370F2
:1043C800EAE794F82033002B66D001232370C82035
:1043D80000F08CFD204600F0A7FD002384F81C3374
:1043E800C4F8C83358E094F82333012B0FD0D4F81D
:1043F800C833B3F57A7F13D994F81F330133DBB28E
:1044080084F81F33032B08D90D23237044E00023BD
:1044180084F81F33022323703EE0002323703BE01F
:104428000A33C4F8C8330A2000F060FD34E0D4F839
:10443800D43313B1042120469847642000F056FD78
:10444800204600F011FD84F81D0305232370002188
:10445800204600F016FC60718021204600F011FC17
:1044680001462071A37902930025019594F81D3324
:10447800009394F81C338022204600F0EDFBA379CA
:104488000293019594F81D33009394F81C332A463F
:104498006179204600F0E0FB002007B030BD2046DF
:1044A800FFF7CAFD8DF817009DF81730002BF3D1E0
:1044B80084F8243394F83733012B02D00723237070
:1044C800EAE708232370E7E7D4F8D433002BE3D0D6
:1044D80001212046984708232370DDE794F83D130F
:1044E800204600F015FB0028D6D109232370D3E716
:1044F80094F83F3313F0200F02D10A232370CBE73F
:104508000121204600F015FB0028C5D10A2323709D
:10451800C2E7D4F88033002BBED00023C4F87C3324
:1045280073B1D4F87C33EBB19B6820469847B0B997
:1045380006232370D4F8D433032120469847ABE7E9
:1045480003F1DE0254F82220107994F847138842C8
:1045580002D00133DBB2E3E7C4F87C23E1E70D23A3
:10456800237099E70D23237096E7D4F87C3393B131
:104578001B69204698478DF817009DF8173013B926
:104588000B23237088E79DF81730DBB2022B83D109
:104598000D23237080E70D2323707DE7D4F87C3347
:1045A800002B3FF479AF5B692046984774E70023F6
:1045B80084F821332046FFF701FDD4F87C332BB172
:1045C800DB68204698470023C4F87C33D4F8D433FA
:1045D80013B105212046984794F82233DBB2012B0A
:1045E80003D0204600F090FC56E7002384F82233DD
:1045F8002046FFF7BCFE4FE7C0F8C413704708B564
:10460800D0F8C4230132C0F8C423FFF708FD08BD61
:10461800012380F823337047002380F82333704741
:104628000346012280F82023002083F8210383F821
:104638002203704738B50446012380F8213300254A
:1046480080F8205380F8235300F066FC2179204637
:1046580000F02AFB6179204600F026FB284638BD89
:104668000B7803704B7843708B7891F803C043EA5A
:104678000C2343800B7903714B7943718B798371D8
:10468800CB79C371082A16D90B7A4A7A43EA0223EE
:1046980003818B7ACA7A43EA022343810B7B4A7BE4
:1046A80043EA022383818B7B8373CB7BC3730B7CAD
:1046B80003744B7C437470470B7803704B784370DA
:1046C8008B788370CB78C3700B7903714B79437106
:1046D8008B798371CB79C3710B7A037270470B782E
:1046E80003704B7843708B788370CB78C3700B79E9
:1046F8004A7943EA022383808B7983717047437830
:10470800032B00D070470378023B9A4228BF1A4611
:1047180092B2002307E000EB030C9CF802C001F8FA
:1047280001CB02339BB29342F5D300230B70E9E728
:1047380030B583B00446057E6B1E0A2B00F2DE807E
:10474800DFE803F00610354154617E8A9DAAC10056
:10475800427900F1100100F00FFA0223237628466F
:1047680003B030BD417900F095FB0546012805D01E
:10477800042818D0022816D00125F0E7237CE28A05
:1047880042B113F0800F02D105232376E7E7032314
:104798002376E4E713F0800F02D107232376DEE7C0
:1047A80009232376DBE70B2323760125D7E7D0F807
:1047B800C433C38103798289816800F004FA042331
:1047C80023760125CBE7017900F064FB012806D0A8
:1047D800052800F09580042804D00125BFE70923A7
:1047E8002376F5E70B2323760125B8E70125009505
:1047F80043798289816800F0D0F9D4F8C433E38121
:1048080006232376ABE7417900F044FB05460128EF
:1048180007D0052808D002280AD004280CD0012582
:104828009DE7072323769AE70C232376032596E74B
:1048380005232376012592E70B23237602258EE7AD
:1048480003790022114600F0BEF9D4F8C433E3819D
:1048580008232376012582E7017900F01BFB012854
:1048680005D0042807D005284CD0012577E70D236B
:104878002376002573E70B23237601256FE70125AF
:10488800009543790022114600F087F9D4F8C43323
:10489800E3810A23237662E7417900F0FBFA0128D5
:1048A80005D0022807D0042809D0012557E70D2391
:1048B8002376002553E70923237601254FE70B23A9
:1048C800237601254BE7437E0133DBB24376022B87
:1048D80003D801250576857041E7D0F8D433062141
:1048E8009847002565766179204600F0DDF9217941
:1048F800204600F0D9F92570022530E701252EE77A
:1049080003252CE703252AE703780A8813440B803C
:104918000378184470472DE9F04182B00C460B78B3
:1049280003704B7843708B78C97843EA012343803E
:104938002379037163794371A3798371E379C3712F
:10494800237A0372092A44D905460923ADF80630AB
:104958000026012E3DD86A88BDF806309A4238D91B
:104968000DF106012046FFF7CFFF04464378042BDC
:10497800EFD1B0461A2006FB00F008302844214643
:104988000230FFF799FE00271A2303FB08539B7B8D
:10499800BB421BD96A88BDF806309A4216D90DF178
:1049A80006012046FFF7B0FF04464378052BEBD1FC
:1049B80001371A2000FB08F000EBC7000830284434
:1049C80021460430FFF78BFEFFB2DDE70136F6B271
:1049D800BFE702B0BDE8F08110B504468078012831
:1049E80003D0022808D0012010BDA160A2810123B4
:1049F80023760223A370F7E72046FFF799FE30B12C
:104A0800032804D00228EFD10123A370ECE7012387
:104A1800A37000232376E7E708B58E469446194627
:104A2800BDF808208378012B02D0FFF7D5FF08BD19
:104A38006EF07F0E80F810E006234374A0F812C0D1
:104A48000CF47F4CBCF5407F03D000238382C282E4
:104A5800EBE740F209438382F9E7F0B583B00446F7
:104A680000F58E760D46009133464FF48072002192
:104A7800FFF7D2FF074610B1384603B0F0BD2A460B
:104A8800314604F22630FFF7EBFDF5E7F0B583B0C9
:104A980004460D4600F11C06009133464FF400729F
:104AA8000021FFF7B9FF074610B1384603B0F0BD43
:104AB8002A46314604F54E70FFF72DFFF5E7F0B5AD
:104AC80083B016461D4600F58E740093234641F4C4
:104AD80040720021FFF7A0FF074610B1384603B027
:104AE800F0BD2A4631462046FFF709FEF6E708B52D
:104AF8008378012B04D000221146FFF76DFF08BD13
:104B0800002303740522427441828382C382F2E740
:104B180008B58378012B04D000221146FFF75CFF0B
:104B280008BD002303740922427441828382C38230
:104B3800F2E708B58378012B04D000221146FFF76D
:104B48004BFF08BD00230374032242744182838211
:104B5800C382F2E708B58378012B04D000221146FE
:104B6800FFF73AFF08BD02230374012343740023AF
:104B780043828182C382F1E710B584B00B461146A7
:104B880000240394082202920193009423462246AB
:104B980000F0EDF9204604B010BD30B585B00C46E4
:104BA80019469DF8203090F81D5305B10023039352
:104BB800029201940123009300231A4600F0D7F9CA
:104BC800002005B030BD30B585B00D46194600242B
:104BD80003940292019501220092234600F0C7F93E
:104BE800204605B030BD30B585B00C4619469DF855
:104BF800203090F81D5305B10023039302920194CD
:104C0800012300930223002200F0B1F9002005B02F
:104C180030BD30B585B00D46194600240394029284
:104C2800019501220092022300F0A1F9204605B067
:104C380030BD00230A2B0CD803F1E00200EB8202FE
:104C4800526812F4004F02D00133DBB2F2E798B297
:104C580070474FF6FF70704710B584B0BDF820401C
:104C680002949DF81C4001949DF81840009400F0AF
:104C780063F9002004B010BD08B500F070F90020F9
:104C880008BD38B504460D46FFF7D3FF4FF6FF734E
:104C9800984207D000F00F0345F40045E03304EBD9
:104CA80083035D60C0B238BD0A2906D8E03100EB45
:104CB80081004368C3F30E0343600020704700007F
:104CC80004290CD0052902D0022904D07047064BCC
:104CD80003221A707047044B02221A707047024B65
:104CE80001221A70F2E700BF640A002008B5012209
:104CF8000B490C48FFF7D7FA48B90B490948FFF7A1
:104D0800F1FA38B90748FFF732FB30B908BDFBF7AD
:104D1800BDFCF2E7FBF7BAFCF4E7FBF7B7FCF5E7F5
:104D2800C94C0008680A00201000002008B5024895
:104D3800FFF727FB08BD00BF680A002070B588B0E0
:104D48000023039304930593069307930368B3F131
:104D5800A04F01D008B070BD002501951B4C236BF6
:104D680043F001032363236B03F001030193019BC9
:104D78004FF400730393164E03A93046FCF706FB65
:104D88004FF4E053039302230493059503230693FA
:104D98000A23079303A93046FCF7F8FA636B43F03C
:104DA800800363630295636C43F480436364636CBC
:104DB80003F480430293029B2A4629464320FCF7CA
:104DC8008BFA4320FCF7C0FAC4E700BF0038024062
:104DD8000000024008B5D0F8C002FFF710FC08BD7B
:104DE80008B5D0F8C002FFF71BFC08BD08B5D0F81D
:104DF800C002FFF71FFC08BD704708B5D0F8C00215
:104E0800FFF706FC08BD08B5D0F8C002FFF704FCA0
:104E180008BD000090F8CC33012B01D0002070476A
:104E280010B504460F48C0F8C042C4F8D0034FF08C
:104E3800A0430360082383600123C3600023036148
:104E480002228261C361FCF71CFC40B90548FDF7EA
:104E580056F901462046FFF7CFFB002010BDFBF7AF
:104E680015FCF3E7400E002008B5D0F8D003FDF795
:104E78004BF9012804D0022804D000B1012008BD54
:104E88000120FCE70220FAE708B5D0F8D003FDF7C7
:104E980030F908BD08B5D0F8D003FDF723F908BDEF
:104EA80008B590F8CC33012B04D0C820FBF72EFEB0
:104EB800002008BD084600F06FF8F6E7D0F8D033B8
:104EC80001EB810003EBC00090F83B0038B101EB27
:104ED800810103EBC10181F850200020704701EBEC
:104EE800810103EBC10181F85120F6E708B5FBF712
:104EF8000DFE08BD022805D8DFE800F00504020011
:104F0800012070470220704708B5D0F8D003FDF79C
:104F1800BCF8FFF7EFFF08BD08B5D0F8D003FDF7E0
:104F2800CAF8FFF7E7FF08BD08B5D0F8D003FDF7CA
:104F3800D4F8FFF7DFFF08BD10B584B0D0F8D00370
:104F4800BDF8204002949DF81C4001949DF818403B
:104F58000094FCF739FBFFF7CDFF04B010BD08B58E
:104F6800D0F8D003FCF77BFBFFF7C4FF08BD10B5F2
:104F780084B0D0F8D0039DF824400394BDF82040B5
:104F88000294079C01949DF818400094FCF7CBFB11
:104F9800FFF7B0FF04B010BD08B528B90122012100
:104FA8000248FCF7C9FA08BD0022F8E700080240E9
:104FB8002DE9F04F07468C460846099E15463C46A3
:104FC8001946002B40F0C6808242B2FA82F746D9D1
:104FD8004FB1C7F1200E24FA0EFE00FA07F3BD40C8
:104FE8004EEA030CBC404FEA15481FFA85FEBCFB8D
:104FF800F8F9220C08FB19C309FB0EFA42EA03432D
:105008009A4528D9EB1809F1FF3004D29A4502D9FC
:10501800A9F102002B44A3EB0A03A4B2B3FBF8F2F4
:1050280008FB123302FB0EFE44EA0344A64514D9DA
:105038002C1902F1FF3303D2A64501D9931E2C4443
:10504800A4EB0E0443EA00401EB1FC400023346088
:105058007360BDE8F08F4846DDE71346F0E702B914
:10506800FFDE87BB831A01214FEA154EAAB2B3FBB4
:10507800FEFC200C0EFB1C330CFB02F840EA034339
:10508800984563D9EB180CF1FF3004D2984502D942
:10509800ACF102002B44A3EB0803A4B2B3FBFEFC63
:1050A8000EFB1C330CFB02F244EA0344A2424FD924
:1050B8002C190CF1FF3304D2A24202D9ACF102033D
:1050C8002C44A41ABEE7C7F1200C20FA0CF800FA09
:1050D80007F324FA0CFCBD404CEA03024FEA154ED4
:1050E800ABB2B8FBFEFC110C0EFB1C800CFB03F9E9
:1050F80041EA0040814504FA07F423D928180CF145
:10510800FF3104D2814502D9ACF102012844A0EB59
:10511800090092B2B0FBFEFC0EFB1C000CFB03F86E
:1051280042EA004398450FD9EB180CF1FF3204D23C
:10513800984502D9ACF102022B44A3EB080342EADA
:10514800014191E76146E2E76246F6E76046A2E779
:105158006346B6E7834205D90EB1C6E9007000215F
:10516800084676E7B3FA83F181B9834201D3BA429C
:105178000AD8BC1A60EB030301209C46002E68D0B5
:10518800C6E9004C002164E70846F7E7C1F1200CA6
:105198008B4022FA0CF41C4302FA01F500FA01F3E1
:1051A80027FA0CF220FA0CFB4FEA14491343BBFB15
:1051B800F9F81FFA84FE09FB18BB1A0C08FB0EFA53
:1051C80042EA0B42924507FA01F73ED9A21808F1C4
:1051D800FF3004D2924502D9A8F102002244A2EB82
:1051E8000A029BB2B2FBF9F809FB182208FB0EFE73
:1051F80043EA024296452AD9A21808F1FF3304D29D
:10520800964502D9A8F10203224443EA0040A0FBD4
:105218000593A2EB0E029A42CE46984602D306D1D7
:105228004F4504D2B9EB050E63EB0408013886B18B
:10523800B7EB0E0362EB080707FA0CFCCB404CEA0D
:105248000303CF40C6E900379CE74046C7E743461B
:10525800DBE73146FDE60000002301461A46184602
:1052680000F07ABB014B1868704700BF300000207F
:1052780038B5084B084D5B1B9C1007D0043B1D44F8
:10528800013C55F804399847002CF9D1BDE838405D
:1052980000F014BD045D0008005D000870B50D4EF7
:1052A8000D4D761BB61006D0002455F8043B01348A
:1052B8009847A642F9D1094E094D761B00F0F8FC33
:1052C800B61006D0002455F8043B01349847A6428E
:1052D800F9D170BDF85C0008F85C0008005D0008B2
:1052E800F85C0008024B0146186800F00BB800BFD4
:1052F80030000020024B0146186800F0CBBB00BF0D
:10530800300000202DE9F04F01F10B05162D83B078
:10531800064623D8102900F2A78000F0FFFA1025CE
:1053280002201823CA4F3B44A3F108025C68944248
:1053380000F0A780636823F003032344D4E90251F3
:105348005A68E96042F0010230468D605A6000F008
:10535800EBFA0834204603B0BDE8F08F35F00705B6
:1053680000F18280A9427FD800F0D8FAB5F5FC7F19
:10537800C0F0A2816B0A7ED0042B00F25D81AB09DC
:1053880003F1390003F1380CC300B14F3B44A3F1DA
:1053980008015C68A14206D10CE0002A80F219815C
:1053A800E468A14206D0636823F003035A1B0F2A5E
:1053B800F3DD60463C69DFF8AC8244456CD0626836
:1053C80022F00302531B0F2B00F38481002BC7E943
:1053D800048880F27581B2F5007F80F00881D108D9
:1053E80001315209012393407A6857F831C0C4F853
:1053F80008C007EBC10E1343AEF10802E2607B6000
:1054080047F83140CCF80C4082104FF0010C0CFAF0
:1054180002FC9C4548D81CEA030F08D120F0030081
:105428004FEA4C0C1CEA030F00F10400F8D007EB1C
:10543800C00AD6468146DEF80C300BE0596821F0E8
:1054480003014A1B0F2A1C46DB6800F30F81002A60
:1054580080F225819E45F1D109F1010919F0030F68
:105468000EF1080EE7D16AE10C23336000242046D0
:1054780003B0BDE8F08F4FF4007340204FF03F0CAD
:1054880083E7DC68A34208BF02307FF453AF3C696E
:10549800DFF8D081444592D17B6882104FF0010C2F
:1054A8000CFA02FC9C45B6D9BC68636823F0030873
:1054B800454503D8A8EB05030F2B7ADCDFF8A89144
:1054C800644BD9F800201B6801322B4404EB080A0E
:1054D80000F0508103F580530F3323F47F6B2BF0DA
:1054E8000F0B5946304600F025FA411C024600F0E1
:1054F8000B81824500F20681574B1968594419609F
:10550800084600F06B81D9F80010019301311BBFE8
:10551800A2EB0A0A5044C9F80020186012F0070AE2
:1055280000F03481CAF108010A44CAF58051934455
:105538000831A1EB0B01C1F30B0949463046009233
:1055480000F0F8F9421CDDE9002300F06C81801AB4
:1055580000EB090B1968BA604BF001004944BC42E2
:105568005060196000F04681B8F10F0F40F2448195
:105578006068A8F10C0C2CF0070C00F0010004EB9B
:105588000C0E40EA0C004FF00508BCF10F0F6060EC
:10559800CEE9018800F24F81506814462F4B1A68F3
:1055A8008A4238BF19602E4B1A688A4238BF196080
:1055B800ACE0621943F0010345F00105656030462F
:1055C800BA60536000F0B0F90834204603B0BDE873
:1055D800F08F2344E1685A68A56842F00102E96047
:1055E80030468D605A6000F09FF908343FE7B2F505
:1055F800206F4FEA52237FD3142B00F2D88003F197
:105608005C01C9005B3307EB010C7958ACF1080C5D
:105618008C4500F0B2804B6823F00303934202D913
:1056280089688C45F7D1D1F80CC07B68C4E9021CA5
:10563800CCF80840CC60E7E6142B75D9542B00F25F
:10564800BE802B0B03F16F0003F16E0CC3009CE6C8
:105658006004002034110020041100202C110020C7
:10566800301100206804002068080020D4F808E001
:1056780004EB050C45F00105656042F00105CEF824
:105688000C303046C3F808E0C7E904CCCCE90288FE
:10569800CCF80450625000F047F90834E7E621449A
:1056A80054F8085F4A6842F001024A603046EB60ED
:1056B8009D6000F039F9DAE6E80805F1080331E6FB
:1056C80022443046536843F001035360083400F025
:1056D8002BF9CCE6611945F0010C43F00105C4F83B
:1056E80004C03046C7E90411C1E902884D60A350DF
:1056F80000F01AF90834BAE6930903F13901C90030
:10570800383380E7BC4264D0BC68606820F0030B83
:105718005D45ABEB050302D80F2B3FF74AAF304688
:1057280000F002F90024A2E603F15C0003F15B0C2F
:10573800C3002AE65AF80839534540F09B8010F018
:10574800030F00F1FF30F5D17B6823EA0C037B607F
:105758004FEA4C0C9C453FF6A7AEBCF1000F04D1B4
:10576800A2E64FEA4C0C09F104091CEA030FF8D031
:1057780048465CE603F1100BB3E69A104FF0010EB1
:105788007B680EFA02F213437B604FE702EB0B01D2
:105798004942C1F30B0949463046009200F0CAF865
:1057A800431CDDE900237FF4D2AED146D2E6542B68
:1057B80025D8130B03F16F01C9006E3323E7B3F546
:1057C800AA7F25D8EB0B03F1780003F1770CC3000F
:1057D800DBE5294B18685844186094E6CAF30B0CAB
:1057E800BCF1000F7FF48FAEBC68C3444BF00100DE
:1057F8006060D3E61446D1E6012353608FE7B3F522
:10580800AA7F23D8D30B03F17801C9007733FAE6CE
:1058180040F25452934223D8AB0C03F17D0003F1BC
:105828007C0CC300B1E5AAF1080AD344ABEB020B28
:105838004FF000098EE604F108013046009300F0AD
:1058480029F9BC68009B60681968A7E640F25451C2
:105858008B420BD8930C03F17D01C9007C33D2E64F
:105868004FF47E737F204FF07E0C8EE54FF47E71EF
:105878007E23C8E67B686BE704110020F0B4860736
:1058880046D0541E002A3CD0CAB2034601E0013C6F
:1058980037D303F8012B9D07F9D1032C2AD9CDB2B0
:1058A80045EA05250F2C45EA054534D9A4F110022F
:1058B80022F00F0C03F120071609674403F11002C8
:1058C80042E9045542E902551032BA42F8D1721C35
:1058D80014F00C0F03EB021204F00F0613D0331F61
:1058E80023F003030433134442F8045B9342FBD1CF
:1058F80006F003042CB1CAB21C4403F8012B9C42E5
:10590800FBD1F0BC704734461346002CF3D1F8E7BE
:1059180014460346C1E71A462646E0E7014800F068
:10592800C3B900BF48110020014800F0BFB900BF4B
:105938004811002038B5074D0022044608462A6061
:10594800FBF73CF8431C00D038BD2B68002BFBD07C
:10595800236038BD5C1100202DE9F047DFF87CA0FA
:105968000646DAF8000098460F46914600F09CF982
:10597800194B1B68D3F8484124B36568DAF800006E
:105988001F2D24DC4EB9AB1C0135656044F823702B
:1059980000F08CF90020BDE8F08704EB85030122B4
:1059A800C3F88890D4F88811AA401143022EC4F88D
:1059B8008811C3F80881E6D1D4F88C311A43C4F8A9
:1059C8008C21E0E703F5A674C3F84841D5E700F059
:1059D8006DF94FF0FF30DEE7EC5C0008700800203E
:1059E800024B13B10248FFF737BC704700000000B4
:1059F80079520008F8B5244F0C460646FFF78EFF8B
:105A0800BB685D68C4F57E610F3125F003054B194D
:105A180023F47F6323F00F03A3F58054B4F5805F6C
:105A280007DB00213046FFF785FFBB682B4498420F
:105A380004D03046FFF778FF0020F8BD61423046B9
:105A4800FFF778FF01300DD0104AB96813682D1B95
:105A580045F0010530461B1B4D601360FFF764FFDE
:105A68000120F8BD00213046FFF764FFBA68831AA9
:105A78000F2BDEDD064C0549246843F00103001BAB
:105A880053600860D5E700BF6004002004110020BF
:105A980068080020002963D0F8B50C460646FFF7D1
:105AA8003DFF54F8045C7D4925F00100A4F1080C81
:105AB8000CEB00038F685A689F4222F0030200F043
:105AC8008E80ED075A6003EB020736D454F808ECD1
