:020000040800F2
:100000000000022029510008692300086B23000822
:100010006D2300086F230008712300080000000012
:100020000000000000000000000000007323000832
:1000300075230008000000007723000879230008DA
:100040007951000879510008795100087951000868
:100050007951000879510008795100087951000858
:100060007951000879510008795100087951000848
:100070007951000879510008795100087951000838
:1000800079510008795100087951000800000000FA
:10009000000000000000000000000000795100088E
:1000A0007951000879510008795100087951000808
:1000B00079510008795100087951000879510008F8
:1000C00079510008795100087951000879510008E8
:1000D00079510008795100087951000800000000AA
:1000E000795100087951000879510008000000009A
:1000F000000000000000000000000000795100082E
:100100000000000079510008795100087951000879
:1001100000000000000000000000000000000000DF
:100120007951000879510008795100087951000887
:1001300079510008000000000000000000000000ED
:1001400000000000000000000000000079510008DD
:100150007951000879510008795100087951000857
:1001600079510008795100080000000000000000EB
:10017000000000000000000000000000000000007F
:10018000000000007951000800000000000000009D
:080190007951000879510008C3
:1001C00010B5054C237833B9044B13B10448AFF391
:1001D00000800123237010BDB8090020000000003A
:1001E00000B0000808B5034B1BB103490348AFF347
:1001F000008008BD00000000BC09002000B000081D
:1002000081F0004102E000BF83F0004330B54FEAC7
:1002100041044FEA430594EA050F08BF90EA020F34
:100220001FBF54EA000C55EA020C7FEA645C7FEAC7
:10023000655C00F0E2804FEA5454D4EB5555B8BFEA
:100240006D420CDD2C4480EA020281EA030382EA5B
:10025000000083EA010180EA020281EA0303362DED
:1002600088BF30BD11F0004F4FEA01314FF4801CC0
:100270004CEA113102D0404261EB410113F0004FD2
:100280004FEA03334CEA133302D0524263EB430389
:1002900094EA050F00F0A780A4F10104D5F1200E27
:1002A0000DDB02FA0EFC22FA05F2801841F1000182
:1002B00003FA0EF2801843FA05F359410EE0A5F156
:1002C00020050EF1200E012A03FA0EFC28BF4CF087
:1002D000020C43FA05F3C01851EBE37101F000453D
:1002E00007D54FF0000EDCF1000C7EEB00006EEB4A
:1002F0000101B1F5801F1BD3B1F5001F0CD34908D4
:100300005FEA30004FEA3C0C04F101044FEA44522A
:1003100012F5800F80F09A80BCF1004F08BF5FEAB1
:10032000500C50F1000041EB045141EA050130BD91
:100330005FEA4C0C404141EB0101013C28BFB1F5A3
:10034000801FE9D291F0000F04BF01460020B1FAEE
:1003500081F308BF2033A3F10B03B3F120020CDAC1
:100360000C3208DD02F1140CC2F10C0201FA0CF09F
:1003700021FA02F10CE002F11402D8BFC2F1200C04
:1003800001FA02F120FA0CFCDCBF41EA0C019040BA
:10039000E41AA2BF01EB0451294330BD6FEA040403
:1003A0001F3C1CDA0C340EDC04F11404C4F12002EE
:1003B00020FA04F001FA02F340EA030021FA04F300
:1003C00045EA030130BDC4F10C04C4F1200220FA57
:1003D00002F001FA04F340EA0300294630BD21FA95
:1003E00004F0294630BD94F0000F83F4801306BF5B
:1003F00081F480110134013D4EE77FEA645C18BF4F
:100400007FEA655C29D094EA050F08BF90EA020FE5
:1004100005D054EA000C04BF1946104630BD91EADD
:10042000030F1EBF0021002030BD5FEA545C05D1E0
:100430004000494128BF41F0004130BD14F580041F
:100440003CBF01F5801130BD01F0004545F0FE4193
:1004500041F470014FF0000030BD7FEA645C1ABFC8
:10046000194610467FEA655C1CBF0B46024650EAFF
:10047000013406BF52EA033591EA030F41F400212B
:1004800030BD00BF90F0000F04BF0021704730B5B1
:100490004FF4806404F132044FF000054FF0000186
:1004A00050E700BF90F0000F04BF0021704730B547
:1004B0004FF4806404F1320410F0004548BF40421C
:1004C0004FF000013EE700BF42004FEAE2014FEA71
:1004D00031014FEA02701FBF12F07F4393F07F4F4C
:1004E00081F06051704732F07F4208BF704793F04F
:1004F0007F4F04BF41F40021704730B54FF4607462
:1005000001F0004521F000411CE700BF50EA010264
:1005100008BF704730B54FF000050AE050EA01020D
:1005200008BF704730B511F0004502D5404261EB7D
:1005300041014FF4806404F132045FEA915C3FF4BE
:10054000D8AE4FF003025FEADC0C18BF03325FEA5B
:10055000DC0C18BF033202EBDC02C2F1200300FA0C
:1005600003FC20FA02F001FA03FE40EA0E0021FA31
:1005700002F11444BDE600BF80F0004002E000BF7D
:1005800081F0004142001FBF5FEA410392EA030F7E
:100590007FEA226C7FEA236C6AD04FEA1262D2EBC8
:1005A0001363C1BFD218414048404140B8BF5B42CD
:1005B000192B88BF704710F0004F40F4000020F066
:1005C0007F4018BF404211F0004F41F4000121F07C
:1005D0007F4118BF494292EA030F3FD0A2F10102C6
:1005E00041FA03FC10EB0C00C3F1200301FA03F104
:1005F00000F0004302D5494260EB4000B0F5000F27
:1006000013D3B0F1807F06D340084FEA310102F1E5
:100610000102FE2A51D2B1F1004F40EBC25008BF97
:1006200020F0010040EA03007047490040EB000061
:10063000013A28BFB0F5000FEDD2B0FA80FCACF162
:10064000080CB2EB0C0200FA0CF0AABF00EBC2508F
:1006500052421843BCBFD0401843704792F0000F7D
:1006600081F4000106BF80F400000132013BB5E7D0
:100670004FEA41037FEA226C18BF7FEA236C21D046
:1006800092EA030F04D092F0000F08BF08467047AB
:1006900090EA010F1CBF0020704712F07F4F04D179
:1006A000400028BF40F00040704712F100723CBF8C
:1006B00000F50000704700F0004343F0FE4040F4B6
:1006C000000070477FEA226216BF08467FEA236374
:1006D0000146420206BF5FEA412390EA010F40F45F
:1006E000800070474FF0000304E000BF10F00043AB
:1006F00048BF40425FEA000C08BF704743F0964392
:1007000001464FF000001CE050EA010208BF7047AC
:100710004FF000030AE000BF50EA010208BF704733
:1007200011F0004302D5404261EB41015FEA010C48
:1007300002BF84460146002043F0B64308BFA3F140
:100740008053A3F50003BCFA8CF2083AA3EBC25322
:1007500010DB01FA02FC634400FA02FCC2F1200241
:10076000BCF1004F20FA02F243EB020008BF20F078
:100770000100704702F1200201FA02FCC2F12002DE
:1007800050EA4C0021FA02F243EB020008BF20EAD3
:10079000DC7070474FF0FF0C1CEAD0521EBF1CEA01
:1007A000D15392EA0C0F93EA0C0F6FD01A4480EAEF
:1007B000010C400218BF5FEA41211ED04FF00063D8
:1007C00043EA501043EA5111A0FB01310CF0004004
:1007D000B1F5000F3EBF490041EAD3715B0040EA2A
:1007E000010062F17F02FD2A1DD8B3F1004F40EBFA
:1007F000C25008BF20F00100704790F0000F0CF0CD
:10080000004C08BF49024CEA502040EA51207F3A90
:10081000C2BFD2F1FF0340EAC250704740F400006B
:100820004FF00003013A5DDC12F1190FDCBF00F05C
:1008300000407047C2F10002410021FA02F1C2F10A
:10084000200200FA02FC5FEA310040F1000053EAA6
:100850004C0308BF20EADC70704792F0000F00F0F4
:10086000004C02BF400010F4000F013AF9D040EAFA
:100870000C0093F0000F01F0004C02BF490011F48E
:10088000000F013BF9D041EA0C018FE70CEAD1538C
:1008900092EA0C0F18BF93EA0C0F0AD030F0004C0C
:1008A00018BF31F0004CD8D180EA010000F00040C0
:1008B000704790F0000F17BF90F0004F084691F07E
:1008C000000F91F0004F14D092EA0C0F01D14202B8
:1008D0000FD193EA0C0F03D14B0218BF084608D181
:1008E00080EA010000F0004040F0FE4040F40000CB
:1008F000704740F0FE4040F4400070474FF0FF0C5E
:100900001CEAD0521EBF1CEAD15392EA0C0F93EAA4
:100910000C0F69D0A2EB030280EA010C49024FEAF6
:10092000402037D04FF0805343EA111143EA1013AF
:100930000CF000408B4238BF5B0042F17D024FF467
:10094000000C8B4224BF5B1A40EA0C00B3EB510F42
:1009500024BFA3EB510340EA5C00B3EB910F24BF2B
:10096000A3EB910340EA9C00B3EBD10F24BFA3EBB0
:10097000D10340EADC001B0118BF5FEA1C1CE0D178
:10098000FD2A3FF650AF8B4240EBC25008BF20F02B
:10099000010070470CF0004C4CEA50207F32C2BF7F
:1009A000D2F1FF0340EAC250704740F400004FF01C
:1009B0000003013A37E792F0000F00F0004C02BF4D
:1009C000400010F4000F013AF9D040EA0C0093F017
:1009D000000F01F0004C02BF490011F4000F013B71
:1009E000F9D041EA0C0195E70CEAD15392EA0C0FD9
:1009F00008D142027FF47DAF93EA0C0F7FF470AF11
:100A0000084676E793EA0C0F04D14B023FF44CAF53
:100A100008466EE730F0004C18BF31F0004CCAD1E8
:100A200030F000427FF45CAF31F000437FF43CAF24
:100A30005FE700BF4FF0FF3C06E000BF4FF0010C46
:100A400002E000BF4FF0010C4DF804CD4FEA400228
:100A50004FEA41037FEA226C18BF7FEA236C11D072
:100A600001B052EA530C18BF90EA010F58BFB2EB25
:100A7000030088BFC81738BF6FEAE17018BF40F0A5
:100A8000010070477FEA226C02D15FEA402C05D159
:100A90007FEA236CE4D15FEA412CE1D05DF8040BDE
:100AA000704700BF844608466146FFE70FB5FFF771
:100AB000C9FF002848BF10F1000F0FBD4DF808ED29
:100AC000FFF7F4FF0CBF012000205DF808FB00BF1A
:100AD0004DF808EDFFF7EAFF34BF012000205DF874
:100AE00008FB00BF4DF808EDFFF7E0FF94BF0120C1
:100AF00000205DF808FB00BF4DF808EDFFF7D2FFBE
:100B000094BF012000205DF808FB00BF4DF808ED00
:100B1000FFF7C8FF34BF012000205DF808FB00BFCD
:100B200053B94AB9002908BF00281CBF4FF0FF3154
:100B30004FF0FF3000F06CB9ADF1080C6DE904CE58
:100B400000F006F8DDF804E0DDE9022304B07047A8
:100B50002DE9F047089E0D4604468E46002B40F0D6
:100B600082808A42174646D9B2FA82F24AB1C2F16D
:100B7000200105FA02F320FA01F1974041EA030E41
:100B800094404FEA1748230CBEFBF8FCB9B208FBAF
:100B90001CEE43EA0E430CFB01F098420AD9FB1805
:100BA0000CF1FF3580F01681984240F21381ACF1D0
:100BB000020C3B441B1AA4B2B3FBF8F008FB103341
:100BC00044EA034400FB01F1A14209D93C1900F1B8
:100BD000FF3380F00181A14240F2FE8002383C44A4
:100BE000641A40EA0C4000211EB1D4400023C6E93B
:100BF0000043BDE8F08702B9FFDEB2FA82F2002AB4
:100C00004FD1CB1B4FEA174E1FFA87F80121B3FBD8
:100C1000FEFC250C0EFB1C3345EA034508FB0CF3D8
:100C2000AB4207D97D190CF1FF3002D2AB4200F282
:100C3000E7808446ED1AA3B2B5FBFEF00EFB10551B
:100C400043EA054408FB00F8A04507D93C1900F128
:100C5000FF3302D2A04500F2D7801846A4EB080467
:100C600040EA0C40C0E78B4208D9002E00F0AF806C
:100C70000021C6E900050846BDE8F087B3FA83F114
:100C800000294BD1AB4202D3824200F2B780841AD2
:100C900065EB030301209E46002EAAD0C6E9004E54
:100CA000A7E7C2F1200C01FA02F3974020FA0CF0FA
:100CB0004FEA174E21FA0CFC1843BCFBFEF1050C61
:100CC0000EFB11CC1FFA87F845EA0C4501FB08F32F
:100CD000AB4204FA02F409D97D1901F1FF3C80F01E
:100CE0008B80AB4240F2888002393D44EB1A85B2DA
:100CF000B3FBFEF00EFB103345EA034500FB08F39F
:100D0000AB4207D97D1900F1FF3C71D2AB426FD9DC
:100D100002383D44EB1A40EA014178E7C1F1200C6A
:100D20008B4022FA0CF71F4320FA0CF405FA01F36A
:100D30004FEA174E25FA0CF51C43230CB5FBFEF9C0
:100D40001FFA87F80EFB195543EA054509FB08FA17
:100D5000AA4502FA01F200FA01F308D97D1909F156
:100D6000FF3047D2AA4545D9A9F102093D44A5EB78
:100D70000A05A4B2B5FBFEF00EFB105544EA05448B
:100D800000FB08F8A04507D93C1900F1FF352DD22A
:100D9000A0452BD902383C4440EA0940A4EB0804A2
:100DA000A0FB02894C45C6464D4619D316D05EB10C
:100DB000B3EB0E0264EB050404FA0CFCCA404CEAE7
:100DC0000202CC40C6E900240021BDE8F08731468C
:100DD00030460EE7AC46EDE6184601E74345E6D25D
:100DE000B8EB020E69EB07050138E0E72846D3E7C8
:100DF00060468FE78146BAE7614677E708464BE7EA
:100E0000ACF1020C3D4415E702383C4426E700BF34
:100E1000704700BF0000000000000000000000005C
:100E200001F0FF01102A2BDB10F0070F08D010F89B
:100E3000013B013A8B422DD010F0070F42B3F6D19F
:100E4000F0B441EA012141EA014122F007047FF0B8
:100E500000070023F0E80256083C85EA010586EA0F
:100E6000010685FA47F5A3FA87F586FA47F6A5FA4B
:100E700087F68EB9EED1F0BC01F0FF0102F0070257
:100E800032B110F8013B013A83EA010313B1F8D102
:100E90000020704701387047002D06BF35460338E3
:100EA000073815F0010F07D1013015F4807F02BF1C
:100EB000013015F4C03F0130F0BC0138704700BF6D
:100EC000844641EA000313F003036DD1403A41D355
:100ED00051F8043B40F8043B51F8043B40F8043B14
:100EE00051F8043B40F8043B51F8043B40F8043B04
:100EF00051F8043B40F8043B51F8043B40F8043BF4
:100F000051F8043B40F8043B51F8043B40F8043BE3
:100F100051F8043B40F8043B51F8043B40F8043BD3
:100F200051F8043B40F8043B51F8043B40F8043BC3
:100F300051F8043B40F8043B51F8043B40F8043BB3
:100F400051F8043B40F8043B51F8043B40F8043BA3
:100F5000403ABDD2303211D351F8043B40F8043B43
:100F600051F8043B40F8043B51F8043B40F8043B83
:100F700051F8043B40F8043B103AEDD20C3205D353
:100F800051F8043B40F8043B043AF9D2043208D04B
:100F9000D2071CBF11F8013B00F8013B01D30B88BD
:100FA00003806046704700BF082A13D38B078DD09B
:100FB00010F003038AD0C3F10403D21ADB071CBF6D
:100FC00011F8013B00F8013B80D331F8023B20F8D7
:100FD000023B7BE7043AD9D3013A11F8013B00F810
:100FE000013BF9D20B7803704B7843708B78837098
:100FF0006046704700000000000000000000000094
:1010000090F800F06DE9024520F007016FF0000C48
:1010100010F0070491F820F040F049804FF00004F0
:101020006FF00700D1E9002391F840F000F10800CB
:1010300082FA4CF2A4FA8CF283FA4CF3A2FA8CF303
:101040004BBBD1E9022382FA4CF200F10800A4FA6A
:101050008CF283FA4CF3A2FA8CF3E3B9D1E90423BE
:1010600082FA4CF200F10800A4FA8CF283FA4CF3F5
:10107000A2FA8CF37BB9D1E9062301F1200182FAAF
:101080004CF200F10800A4FA8CF283FA4CF3A2FAB5
:101090008CF3002BC6D0002A04BF04301A4612BAC3
:1010A000B2FA82F2FDE8024500EBD2007047D1E9C6
:1010B000002304F00305C4F100004FEAC50514F055
:1010C000040F91F840F00CFA05F562EA05021CBF26
:1010D00063EA050362464FF00004A9E770B54FF0DC
:1010E000FF0C4CF4E06C1CEA11541DBF1CEA1355B4
:1010F00094EA0C0F95EA0C0F00F0DEF82C4481EA1C
:10110000030621EA4C5123EA4C5350EA013518BF3B
:1011100052EA033541F4801143F4801338D0A0FB28
:1011200002CE4FF00005E1FB02E506F00042E0FBD5
:1011300003E54FF00006E1FB03569CF0000F18BFDB
:101140004EF0010EA4F1FF04B6F5007F64F5407483
:1011500004D25FEA4E0E6D4146EB060642EAC62116
:1011600041EA55514FEAC52040EA5E504FEACE2E83
:10117000B4F1FD0C88BFBCF5E06F1ED8BEF1004F86
:1011800008BF5FEA500E50F1000041EB045170BD02
:1011900006F0004646EA010140EA020081EA030146
:1011A000B4EB5C04C2BFD4EB0C0541EA045170BD42
:1011B00041F480114FF0000E013C00F3AB8014F1BC
:1011C000360FDEBF002001F0004170BDC4F1000405
:1011D000203C35DA0C341BDC04F11404C4F1200586
:1011E00000FA05F320FA04F001FA05F240EA0200E1
:1011F00001F0004221F0004110EBD37021FA04F617
:1012000042EB06015EEA430E08BF20EAD37070BDD0
:10121000C4F10C04C4F1200500FA04F320FA05F02F
:1012200001FA04F240EA020001F0004110EBD37031
:1012300041F100015EEA430E08BF20EAD37070BDA1
:10124000C4F1200500FA05F24EEA020E20FA04F37A
:1012500001FA05F243EA020321FA04F001F0004129
:1012600021FA04F220EA020000EBD3705EEA430E9A
:1012700008BF20EAD37070BD94F0000F0FD101F0C9
:101280000046400041EB010111F4801F08BF013C02
:10129000F7D041EA060195F0000F18BF704703F040
:1012A0000046520043EB030313F4801F08BF013DC7
:1012B000F7D043EA0603704794EA0C0F0CEA135583
:1012C00018BF95EA0C0F0CD050EA410618BF52EA3D
:1012D0004306D1D181EA030101F000414FF0000043
:1012E00070BD50EA410606BF1046194652EA430651
:1012F00019D094EA0C0F02D150EA013613D195EAC5
:101300000C0F05D152EA03361CBF104619460AD10C
:1013100081EA030101F0004141F0FE4141F4700116
:101320004FF0000070BD41F0FE4141F4780170BD06
:1013300070B54FF0FF0C4CF4E06C1CEA11541DBF6B
:101340001CEA135594EA0C0F95EA0C0F00F0A7F86D
:10135000A4EB050481EA030E52EA03354FEA01319A
:1013600000F088804FEA03334FF0805545EA1313AD
:1013700043EA12634FEA022245EA111545EA106575
:101380004FEA00260EF000419D4208BF964244F10C
:10139000FD0404F5407402D25B084FEA3202B61A2B
:1013A00065EB03055B084FEA32024FF480104FF4FF
:1013B000002CB6EB020E75EB030E22BFB61A754673
:1013C00040EA0C005B084FEA3202B6EB020E75EB06
:1013D000030E22BFB61A754640EA5C005B084FEA6E
:1013E0003202B6EB020E75EB030E22BFB61A75463B
:1013F00040EA9C005B084FEA3202B6EB020E75EB46
:10140000030E22BFB61A754640EADC0055EA060E06
:1014100018D04FEA051545EA16754FEA06164FEA49
:10142000C30343EA52734FEAC2025FEA1C1CC0D1F5
:1014300011F4801F0BD141EA00014FF000004FF082
:10144000004CB6E711F4801F04BF01430020B4F143
:10145000FD0C88BFBCF5E06F3FF6AFAEB5EB030CFB
:1014600004BFB6EB020C5FEA500C50F1000041EBF8
:10147000045170BD0EF0004E4EEA113114EB5C04C5
:10148000C2BFD4EB0C0541EA045170BD41F4801198
:101490004FF0000E013C90E645EA060E8DE60CEAA0
:1014A000135594EA0C0F08BF95EA0C0F3FF43BAFBD
:1014B00094EA0C0F0AD150EA01347FF434AF95EA74
:1014C0000C0F7FF425AF104619462CE795EA0C0F58
:1014D00006D152EA03353FF4FDAE1046194622E725
:1014E00050EA410618BF52EA43067FF4C5AE50EAFF
:1014F00041047FF40DAF52EA43057FF4EBAE12E7EF
:101500004FF0FF3C06E000BF4FF0010C02E000BFCF
:101510004FF0010C4DF804CD4FEA410C7FEA6C5CB2
:101520004FEA430C18BF7FEA6C5C1BD001B050EA55
:10153000410C0CBF52EA430C91EA030F02BF90EA40
:10154000020F0020704710F1000F91EA030F58BFFF
:10155000994208BF90422CBFD8176FEAE37040F061
:10156000010070474FEA410C7FEA6C5C02D150EAFF
:10157000013C07D14FEA430C7FEA6C5CD6D152EABA
:10158000033CD3D05DF8040B704700BF844610467F
:1015900062468C461946634600E000BF01B5FFF77E
:1015A000B7FF002848BF10F1000F01BD4DF808ED4E
:1015B000FFF7F4FF0CBF012000205DF808FB00BF1F
:1015C0004DF808EDFFF7EAFF34BF012000205DF879
:1015D00008FB00BF4DF808EDFFF7E0FF94BF0120C6
:1015E00000205DF808FB00BF4DF808EDFFF7CEFFC7
:1015F00094BF012000205DF808FB00BF4DF808ED06
:10160000FFF7C4FF34BF012000205DF808FB00BFD6
:101610004FEA410C7FEA6C5C02D150EA013C0AD1EE
:101620004FEA430C7FEA6C5C02D152EA033C02D1E0
:101630004FF0000070474FF0010070474FEA410241
:1016400012F5001215D211D56FF47873B3EB625214
:1016500012D94FEAC12343F0004343EA505311F03B
:10166000004F23FA02F018BF404270474FF00000CD
:10167000704750EA013005D111F0004008BF6FF00B
:10168000004070474FF00000704700BF00B585B0C4
:10169000002300930193029303931548154A0260B7
:1016A0004FF480324260836003610122027680F849
:1016B0002030C36210498162C360C26180F830305B
:1016C000426101F01BF860B90023009301220192EE
:1016D00002936946064801F025FA28B905B05DF87D
:1016E00004FB00F079FDEFE700F076FDF6E700BFC0
:1016F000D4090020002001400100000F00B589B08E
:10170000002303930493059306930793026803F160
:10171000804303F590339A4202D009B05DF804FB90
:101720000022019203F58C33596C41F480715964A5
:10173000596C01F48071019101990292196B41F089
:10174000010119631B6B03F001030293029B012348
:10175000039303230493059203A9024801F04CFB71
:10176000DBE700BF000002402DE9F0478CB0002409
:101770000794089409940A940B9401945F4B1A6B94
:1017800042F010021A631A6B02F010020192019AE1
:1017900002941A6B42F004021A631A6B02F00402FC
:1017A0000292029A03941A6B42F080021A631A6B37
:1017B00002F080020392039A04941A6B42F0010231
:1017C0001A631A6B02F001020492049A05941A6BD0
:1017D00042F002021A631A6B02F002020592059AA5
:1017E00006941A6B42F008021A631B6B03F008039D
:1017F0000693069B424E22460821304601F04EFCDD
:10180000DFF80C8101221146404601F047FCDFF869
:10181000049122464FF4A841484601F03FFC394F5D
:1018200022464FF21001384601F038FC042307939A
:101830000894099407A9304601F0DEFA4FF0080A2F
:10184000CDF81CA00125089509940A9407A93046F3
:1018500001F0D2FA322307932B4B0893099407A97E
:10186000304601F0C9FA0795089509940A9407A92A
:10187000404601F0C1FACDF81CA002260896099452
:101880000A9405230B9307A9404601F0B5FA4FF4DB
:10189000A8430793089509940A9407A9484601F0BC
:1018A000ABFA4FF210030793089509940A9407A91D
:1018B000384601F0A1FA4FF4007307930894099495
:1018C000124D07A9284601F097FA4FF4E053079309
:1018D0000896099403230A930A230B9307A9284621
:1018E00001F08AFA202307930894099407A938463F
:1018F00001F082FA0CB0BDE8F08700BF003802406A
:1019000000100240000C02400000121000000240D3
:10191000000802400004024008B50B480B4B03606E
:101920000B4B436000238360C3604FF4804202612D
:1019300043618361C361036201F0CCFB00B908BD60
:1019400000F04AFCFBE700BF1C0A002000540040E6
:10195000A086010030B589B000230393049305935A
:10196000069307930268154B9A4201D009B030BD27
:1019700000250195124C236B43F002032363236B74
:1019800003F002030193019B4FF41073039312239E
:1019900004930123059306950423079303A909489B
:1019A00001F02AFA0295236C43F400132364236C9C
:1019B00003F400130293029BD8E700BF00540040D9
:1019C000003802400004024008B50B480B4B03608E
:1019D0004FF40072426000238360C3600261084AD2
:1019E00042618361C361036201F0CCFC00B908BDB0
:1019F00000F0F2FBFBE700BF700A0020003C004053
:101A00000077010070B588B0002303930493059319
:101A10000693079302681F4B9A4201D008B070BD2D
:101A20000024009403F5FE331A6C42F400421A6459
:101A30001A6C02F400420092009A01941A6B42F070
:101A400001021A631A6B02F001020192019A0294D8
:101A50001A6B42F004021A631B6B03F00403029337
:101A6000029B1023039302260496059406940625F0
:101A7000079503A9084801F0BFF94FF4A453039355
:101A8000049605940694079503A9044801F0B4F957
:101A9000C4E700BF003C00400000024000080240D4
:101AA000F0B585B00A9CB4F90A60002E0DDBB4F9DC
:101AB0000850002D09DB0635B4F90470BD4204D886
:101AC0000836B4F90650AE4201D905B0F0BDB4F9FC
:101AD0000050B4F9024002EB42020B9E0296B3FAA8
:101AE00083F35B090193082300930623034E06EB5F
:101AF00042022144284400F09EF8E6E718B00008AE
:101B000010815181704708B5428909324281022211
:101B10000281037B03B908BD084600F078F9FAE7B3
:101B20002DE9F04182B00646884615461F4614E06E
:101B3000019700954346B5F90A10B5F90800FFF77B
:101B4000AFFF0EE033780A2B17D0B5F90A3008330F
:101B5000B5F9062093421CD801363278CAB10A2A58
:101B6000E6D12C89063424B22C810634B5F9043030
:101B70009C42E7D973780A2BE4D039462846FFF710
:101B8000C2FF7278044BD35C13F0080FDDD001362E
:101B9000DBE702B0BDE8F081EDBA00080CB470B527
:101BA0009AB004460E461EAB53F8042B00936421F2
:101BB00001A803F095FB0546234604F5057231465E
:101BC00001A8FFF7ADFF94F820322BB928461AB0D0
:101BD000BDE8704002B07047204600F018F9F5E704
:101BE0000023B3F5FC7F04DAC2180021117701331A
:101BF000F7E7704700281DDB00291BDB532819DCA1
:101C00002F2917DC30B4CC10542505FB040001F05B
:101C10000701012404FA01F1C9B22AB103441A7F71
:101C20001143197730BC704703441A7F22EA01013F
:101C30001977F7E770472DE9F84F824689469046B5
:101C40001E460A9FDDF82CB0002525E0E31D08E0C4
:101C50000C9BFFF7CFFF0134BC421CDA2346002C5B
:101C6000F4DBDB1006FB035318F80300614204F0B9
:101C7000070301F0070158BF4B4201229A4002407E
:101C800005EB0A0004EB0901BBF1000FE0D0B2FA4A
:101C900082F25209DCE70135B54201DA0024DBE7C4
:101CA000BDE8F88F20F02003072B01DD01207047ED
:101CB00010B582B00C4640F020008DF807004FF4BC
:101CC0007A7301220DF10701206802F0D7FD002090
:101CD00002B010BD30B583B030F00D050DD10C460B
:101CE0008DF807004FF47A7301220DF10701206887
:101CF00002F0C4FD284603B030BD0225FAE70328F0
:101D000011D810B582B00C4640F004008DF80700E1
:101D10004FF47A7301220DF10701206802F0AEFD45
:101D2000002002B010BD04207047072811D810B55C
:101D300082B00C4640F010008DF807004FF47A7323
:101D400001220DF10701206802F098FD002002B089
:101D500010BD0520704710F0800F11D110B582B072
:101D60000C4640F080008DF807004FF47A73012292
:101D70000DF10701206802F081FD002002B010BDC6
:101D8000032070472DE9F04182B005460E4690468B
:101D90001F4603681A68136843F04003136000226B
:101DA0008188806801F07AF90022A989286901F008
:101DB00075F964230193019C013C0194002CFAD134
:101DC0000122A989286901F069F90022A98AA86974
:101DD00001F064F929460120FFF764FF29464046D7
:101DE000FFF7B9FF29463846FFF789FF29469DF8D6
:101DF0002000FFF79AFF29460020FFF753FF2946EE
:101E00003046FFF767FF002002B0BDE8F08110B553
:101E100082B0044600228188806801F03FF90022E8
:101E2000A18AA06901F03AF980238DF807304FF4B8
:101E30007A7301220DF10701206802F01FFD402393
:101E40008DF807304FF47A7301220DF107012068F5
:101E500002F014FD0122A18AA06901F01FF92146B8
:101E600051F81C0B4FF47A734FF4FC7202F006FD2C
:101E700002B010BD70B59AB0302200210EA803F058
:101E8000A7F9002409940A940B940C940D940394DC
:101E90000494059406940794089401941F4B1A6CBB
:101EA00042F080521A641B6C03F080530193019B33
:101EB00002941B4B1A6842F440421A601B6803F4F8
:101EC00040430293029B01260E964FF4A0230F93EA
:101ED000022514954FF48003159304231693C02212
:101EE00017921893082319930EA801F0CFFD0F2322
:101EF00009930A950B944FF480530C930D9403218E
:101F000009A802F0A5F80396C823059305230493B6
:101F1000069503A802F0C0F91AB070BD003802405F
:101F20000070004000B583B000F000FBFFF7A2FF97
:101F3000FFF71AFCFFF7F0FCFFF746FD00F04EF943
:101F4000FFF7A4FB00F07CFA00F068F900F0C6FA95
:101F5000914C924B23604FF48043A38003F1804364
:101F600003F5E233A3604FF48062A28123614FF452
:101F70008052A282A3618A4D04F5057328686968BE
:101F8000AA6807C3AA891A80032300930223402268
:101F90000C212046FFF7F6FE21E07F4C814B1868AC
:101FA000FEF792FACDE900017F4A01212046FFF7B2
:101FB000F5FD234604F5057214210020FFF7A0FD6E
:101FC0007A4A01212046FFF7E9FD2046FFF71FFF6F
:101FD0004FF4FA7000F0D6FA2046FFF701FE744C79
:101FE000204600F07DFC4FF4FA71204600F040FDE1
:101FF000204600F093FD6F4B1860FEF773FB6E49AF
:10200000FEF7BEFA6D49FEF7C5FB6D49FEF776FC9B
:10201000644D2860204600F0FDFC2C68694920468C
:10202000FEF76AFD10B3684C00224FF48051204641
:1020300001F034F800224FF48041204601F02EF8E0
:1020400001224FF40051204601F028F8524B03F5CD
:10205000057200210846FFF753FD58492868FEF72E
:1020600055FD002899D0554A2A6096E757492046E1
:10207000FEF738FD002848D154492046FEF746FDBA
:102080000028ACD04F492046FEF722FD0028A6D0FC
:102090004D4C00224FF40051204600F0FFFF00227B
:1020A0004FF48051204600F0F9FF01224FF48041A7
:1020B000204600F0F3FF384C04F5057523462A4608
:1020C00000210846FFF71CFD364B1868FEF7FCF9A7
:1020D000CDE90001344A01212046FFF75FFD234688
:1020E0002A4614210020FFF70BFD394A0121204622
:1020F000FFF754FD2046FFF78AFE4FF4FA7000F018
:1021000041FA2046FFF76CFD69E72F4C00224FF49F
:102110000051204600F0C2FF00224FF480412046CB
:1021200000F0BCFF01224FF48051204600F0B6FFC2
:1021300000211C4B1868FEF7CBFC48BB164C04F57D
:10214000057523462A4600210846FFF7D9FC154BA2
:102150001868FEF7B9F9CDE90001134A01212046BC
:10216000FFF71CFD23462A4614210020FFF7C8FC78
:10217000184A01212046FFF711FD2046FFF747FED0
:102180004FF4FA7000F0FEF92046FFF729FD26E72C
:10219000044B00221A60D1E7BC0A00203C0D00204D
:1021A00018B60008E00C002028B600083CB600086D
:1021B000D4090020B80A0020000048450000C842A9
:1021C0000040CEC40000B442000C02400000204198
:1021D0005CB600084CB600087047704708B50D485B
:1021E0000D4B03604FF48273436000238360C36030
:1021F000036143614FF400728261C3610362436211
:1022000083620A23C36202F067FA00B908BDFFF7D0
:10221000E3FFFBE7E40C00200030014008B50D4867
:102220000D4B03604FF48273436000238360C360EF
:10223000036143614FF400728261C36103624362D0
:1022400083620A23C36202F047FA00B908BDFFF7B0
:10225000C3FFFBE73C0D00200038004000B58BB009
:102260000023059306930793089309930368294A6B
:10227000934205D0284A934226D00BB05DF804FB68
:1022800000220192254B596C41F480515964596CDC
:1022900001F48051019101990292196B41F0010101
:1022A00019631B6B03F001030293029BE023059368
:1022B000022306930792032308930523099305A994
:1022C000174800F099FDD8E700220392134B196CD0
:1022D00041F480411964196C01F480410391039920
:1022E0000492196B41F0020119631B6B03F00203A6
:1022F0000493049B4FF42043059302230693079213
:10230000032308930523099305A9064800F074FDEB
:10231000B3E700BF00300140003800400038024001
:10232000000002400004024000B583B0002100918B
:102330000C4B5A6C42F480425A645A6C02F480424C
:102340000092009A01911A6C42F080521A641B6C40
:1023500003F080530193019B072000F0D3FC03B0EE
:102360005DF804FB003802407047FEE7FEE7FEE739
:10237000FEE770477047704708B500F0F1F808BDF8
:102380000120704708B502F0F9FE162303604FF0F4
:10239000FF3008BD08B54FF0FF31FFF7F3FFFEE750
:1023A00070B50C4616460025B54207DAAFF300803B
:1023B000214601F8010B01350C46F5E7304670BDAA
:1023C00070B50C4616460025B54205DA14F8010B27
:1023D000AFF300800135F7E7304670BD08B503461E
:1023E0000B4A126842B10A4A106803446A46934293
:1023F00006D8074A136008BD054A06491160F2E78E
:1024000002F0BCFE0C2303604FF0FF30F3E700BF87
:10241000940D0020380E00204FF0FF3070474FF42D
:1024200000534B6000207047012070470020704728
:10243000024B4FF000629A60704700BF00ED00E071
:1024400000B587B000230293039304930593009390
:1024500001931448144A02605F2242608360C360A3
:102460000361836102F066FB90B94FF480530293DD
:1024700002A90C4802F0D6FB68B90023009301932F
:102480006946084802F0D8FD40B907B05DF804FB82
:10249000FFF7A2FEE9E7FFF79FFEEEE7FFF79CFEDE
:1024A000F3E700BF980D0020000400400268094BCC
:1024B0009A4200D0704782B000230193064B1A6CF9
:1024C00042F002021A641B6C03F002030193019BA9
:1024D00002B070470004004000380240704700001E
:1024E00010B504460E4B18784FF47A73B3FBF0F333
:1024F0000C4A1068B0FBF3F000F068FC68B90F2CD0
:1025000001D901200AE0002221464FF0FF3000F0FF
:1025100017FC054B1C60002000E0012010BD00BF2F
:1025200004000020000000200800002008B50B4B2C
:102530001A6842F400721A601A6842F480621A60E3
:102540001A6842F480721A60032000F0DBFB00205E
:10255000FFF7C6FFFFF7E8FE002008BD003C024081
:10256000034A1168034B1B780B441360704700BF8C
:10257000D80D002004000020014B1868704700BFF0
:10258000D80D002038B50446FFF7F6FF0546B4F134
:10259000FF3F02D0044B1B781C44FFF7EDFF401BAC
:1025A000A042FAD338BD00BF0400002010B5044695
:1025B0004F4B5A6822F440325A605A6841680A43C5
:1025C0005A600268536823F480735360026853684A
:1025D000016943EA012353600268536823F04073A2
:1025E00053600268536881680B43536002689368C4
:1025F00023F40063936002689368C1680B4393609F
:10260000826A3C4B9A425BD00268936823F0706305
:10261000936002689368816A0B43936002689368D1
:1026200023F04053936002689368C16A0B43936040
:102630002268936823F00203936022689368217EE6
:1026400043EA4103936094F82030002B49D0636A39
:10265000013B072B3FD82268536843F40063536063
:102660002268536823F46043536021684B68626AB0
:10267000013A43EA42334B602268D36A23F4700381
:10268000D3622168CB6AE269013A43EA0253CB6222
:102690002268936823F4007393602268936894F827
:1026A000301043EA412393602268936823F48063E7
:1026B000936022689368616943EA8123936010BD47
:1026C0000268936823F0706393600268936823F054
:1026D00040539360ACE740F275710748FFF77DFD0A
:1026E000B9E72268536823F400635360C4E700BF6E
:1026F000002301400100000F80B60008002800F010
:10270000E68010B504460268724B9A4204D040F24B
:1027100043117148FFF761FD636843B1B3F5803F32
:1027200005D0B3F5003F02D0B3F5403F71D1A368A7
:1027300043B1B3F1807F05D0B3F1007F02D0B3F194
:10274000407F6CD12369012B6FD8237E012B72D877
:10275000A36A7BB3B3F1807F2CD0B3F1007F29D083
:10276000B3F1407F26D0B3F1806F23D0B3F1A06FD7
:1027700020D0B3F1C06F1DD0B3F1E06F1AD0B3F128
:10278000006F17D0B3F1106F14D0B3F1206F11D0D8
:10279000B3F1306F0ED0B3F1406F0BD0B3F1506F87
:1027A00008D0B3F1606F05D0B3F1706F02D04B4A1F
:1027B000934246D1E36813B1B3F5006F47D1E369A3
:1027C000013B0F2B49D894F83030012B4BD863696B
:1027D000022B4ED894F82030012B50D8A26A3F4BE0
:1027E0009A420AD0E36A43B1B3F1805F05D0B3F1F6
:1027F000005F02D0B3F1405F47D1236C002B4AD079
:10280000236C13F0100F4ED00120002384F83C30CD
:1028100010BD4FF4A2713048FFF7DFFC87E740F2AC
:1028200045112D48FFF7D9FC8CE74FF4A3712A48D6
:10283000FFF7D3FC89E740F247112748FFF7CDFCAB
:1028400086E74FF4A4712448FFF7C7FCB2E740F2D3
:1028500049112148FFF7C1FCB1E74FF4A5711E48AB
:10286000FFF7BBFCAFE740F24B111B48FFF7B5FC8D
:10287000ADE74FF4A6711848FFF7AFFCAAE740F2A6
:102880004D111548FFF7A9FCA8E740F25111124875
:10289000FFF7A3FCB1E72046FEF730FF0023636497
:1028A00084F83C30ACE7236C23F4885323F0020314
:1028B00043F0020323642046FFF778FE00206064A3
:1028C000236C23F0030343F0010323649DE70120FD
:1028D000704700BF0020014080B600080100000FD3
:1028E00010B582B0044600230193037E012B29D842
:1028F000E36A43B1B3F1805F05D0B3F1005F02D06A
:10290000B3F1405F24D194F83C30012B6ED0012309
:1029100084F83C3023689A6812F0010F1ED19A683F
:1029200042F001029A60364B1B68364AA2FB032331
:102930009B0C03EB43030193019B7BB1019B013B88
:102940000193F9E740F2D3212F48FFF746FCCFE788
:102950004FF435712C48FFF740FCD4E722689368A8
:1029600013F0010F44D0236C23F4E06323F0010340
:1029700043F480732364536813F4806F05D0236C91
:1029800023F4405343F480532364236C13F4805F97
:1029900019D0636C23F006036364002384F83C3091
:1029A0006FF022031360194B5B6813F01F0F0DD1FA
:1029B00023689A6812F0405F1DD19A6842F0804205
:1029C0009A60002015E000236364E6E72368104A5C
:1029D000934201D000200CE09A6812F0405F0CD1C5
:1029E0009A6842F080429A60002002E0022000E0F3
:1029F000002002B010BD0020FBE70020F9E700BF77
:102A00000000002083DE1B4380B600080023014045
:102A10000020014010B504460268134B9A4204D0CE
:102A200040F243311148FFF7D8FB94F83C30012BBA
:102A300018D0012384F83C302268936823F0010306
:102A4000936023689B6813F0010F07D1236C23F474
:102A5000885323F0010343F001032364002084F82A
:102A60003C0010BD0220FCE70020014080B60008B9
:102A700070B504460D4603689A6812F4806F03D05F
:102A80009B6813F4807F19D1FFF776FD0646236813
:102A90001A6812F0020F1AD1B5F1FF3FF7D025B135
:102AA000FFF76AFD801BA842F1D9236C43F00403B1
:102AB0002364002384F83C3003202CE0036C43F0B3
:102AC00020030364002380F83C30012023E06FF0F2
:102AD00012021A60236C43F40073236423689A681B
:102AE00012F0405F16D1207EB0B9DA6A12F4700F8E
:102AF00003D09B6813F4806F0DD1236C23F4807393
:102B00002364236C13F4805F05D1236C43F001032D
:102B1000236400E0002070BD0020FCE70368D86C4F
:102B20007047000030B583B005460C460023019382
:102B30000B68122B4ED86368013B0F2B50D8A3684B
:102B4000072B53D895F83C30012B00F0CD800123A2
:102B500085F83C302368092B4ED92868C2689BB29F
:102B600003EB43031E3B072101FA03F322EA0303AD
:102B7000C3602868C268A168238803EB43031E3B37
:102B800001FA03F31343C3606368062B4AD828682D
:102B9000426B03EB8303053B1F2101FA03F322EA97
:102BA000030343632868426B636803EB8303053BBD
:102BB000218801FA03F3134343632A684B4B9A427B
:102BC00060D02A68494B9A4269D0002085F83C00C1
:102BD00003B030BD4FF4CB614548FFF7FEFAAAE7DA
:102BE00040F259614248FFF7F8FAA8E740F25A610B
:102BF0003F48FFF7F2FAA5E7286802699BB203EBAA
:102C00004303072101FA03F322EA0303036128685F
:102C10000269A168238803EB430301FA03F313431A
:102C20000361B1E70C2B16D82868026B03EB830312
:102C3000233B1F2101FA03F322EA030303632868FD
:102C4000026B636803EB8303233B218801FA03F3E0
:102C500013430363B1E72868C26A03EB8303413B74
:102C60001F2101FA03F322EA0303C3622868C26A40
:102C7000636803EB8303413B218801FA03F31343A9
:102C8000C3629AE72368122B9BD11A4B5A6822F42D
:102C900000025A605A6842F480025A6091E7236841
:102CA000154A934201D0112B8FD1124B5A6822F44E
:102CB00080025A605A6842F400025A6022680E4B41
:102CC0009A4282D10D4B1B680D4AA2FB03239B0C39
:102CD00003EB83035B00019302E0019B013B019343
:102CE000019B002BF9D170E7022071E70020014021
:102CF00080B60008002301401200001000000020F0
:102D000083DE1B4310B50446C31E042B0FD80A4AAA
:102D1000D36823F4E0631B041B0C240204F4E06476
:102D2000234343F0BF6343F40033D36010BD9221CB
:102D30000248FFF752FAEAE700ED00E0F0B60008BB
:102D400070B505460C4616460F2A25D80F2C28D8F4
:102D50001B4BDB68C3F30223C3F10701042928BF1F
:102D600004211A1D062A21D9033B4FF0FF3202FA33
:102D700001F124EA01049C4002FA03F326EA030667
:102D80003443002D14DB2401E4B205F1604505F560
:102D9000614585F8004370BDAA210A48FFF71DFA76
:102DA000D4E7AB210748FFF718FAD1E70023DCE7A7
:102DB00005F00F052401E4B2034B5C55EBE700BFBF
:102DC00000ED00E0F0B6000814ED00E00138B0F1CD
:102DD000807F0AD2064B5860064AF02182F8231001
:102DE0000020986007221A6070470120704700BFDA
:102DF00010E000E000ED00E02DE9F04383B007466D
:102E00000E46A04B984217D003F58063984213D02A
:102E100003F5806398420FD003F5806398420BD08E
:102E200003F58063984207D003F54063984203D0CE
:102E3000B3219548FFF7D1F933689AB212B11B0C50
:102E40001B041BB1B4219048FFF7C7F97368012B2D
:102E50001ED9112B1CD0022B1AD0122B18D08B4A42
:102E6000934215D002F58012934211D002F58012E0
:102E700093420DD0A2F5F812934209D002F58012C8
:102E8000934205D002F58012934201D0032B04D166
:102E9000B368022B06D800244BE0B5217A48FFF72F
:102EA0009CF9F5E7B6217848FFF797F9F3E7C821D1
:102EB0007548FFF792F952E0E0217348FFF78DF96A
:102EC0008AE0042300E000238B4003430232704970
:102ED00041F822306F4B1A686FEA080322EA0801B2
:102EE000706810F4803F01D048EA0201694A11601D
:102EF000526803EA0201706810F4003F01D048EA0A
:102F00000201644A5160926803EA0201706810F499
:102F1000801F01D048EA02015E4A9160D2681340E6
:102F2000716811F4001F01D048EA0203594AD360C6
:102F300001340F2C00F2A3800125A540336803EA79
:102F4000050835EA0303F3D173685A1E012A03D931
:102F5000112B01D0122B15D1F368032BA7D8BA6817
:102F6000610003238B4022EA0302F3688B40134382
:102F7000BB607A6822EA05027368C3F30015A540B6
:102F800015437D60FA6865000323AB406FEA0309CF
:102F900022EA0302B368AB401343FB607368022B61
:102FA00001D0122B28D13369B3B1092B14D0012BD6
:102FB00012D0022B10D0042B0ED0052B0CD0062BD8
:102FC0000AD0072B08D0082B06D00A2B04D00C2BD4
:102FD00002D00F2B7FF470AFE208083257F82200BE
:102FE00004F0070399000F238B4020EA03003369A4
:102FF0008B40034347F822303B6809EA03097368B2
:1030000003F00303AB4043EA09033B60736813F02A
:10301000805F8DD0002301931F4B5A6C42F4804295
:103020005A645B6C03F480430193019BA208911CDA
:10303000174B53F8210004F0030399000F238B4032
:1030400020EA03000F4B9F423FF43DAF03F580633E
:103050009F420ED003F580639F420CD003F580633E
:103060009F420AD003F580639F423FF42AAF0723B3
:103070002AE7012328E7022326E7032324E703B0F6
:10308000BDE8F0830000024064B7000800001110A2
:1030900000380140003C01400038024070B5054650
:1030A00014460E4621B1012C08D86CB1AE6170BD3A
:1030B00040F29F110648FFF790F8F4E74FF4D07103
:1030C0000348FFF78AF8F0E73604AE61EFE700BF88
:1030D00064B70008002800F04181F8B50446036891
:1030E000A04A93420CD002F58062934208D002F5C8
:1030F0008062934204D040F2BF119B48FFF76DF805
:103100006368013B994A934200F2A980A3681BB10E
:10311000B3F5804F40F0A980E36823F47F7323F078
:103120000303002B40F0A7802369B3F5804F03D041
:10313000B3F5404F40F0A5806369012B00F2A780F2
:10314000A36933F0FE0340F0A880E36913B1402B7C
:1031500040F0A980236A13B1802B40F0AA8094F834
:103160003D30002B00F0AB80242384F83D302268F2
:10317000136823F0010313602268136843F40043CB
:1031800013602268136823F40043136001F074F89D
:103190006268774B9A4200F29880764B98428CBFD7
:1031A00000230123002B40F0DB80734DA5FB00358D
:1031B000AF0C2668716821F03F0141EA95417160CA
:1031C00021680B6A23F03F036568694A954200F263
:1031D00082807A1C13430B622568E96921F44F4110
:1031E00021F0FF016368624A93427ED801385B0098
:1031F000B0FBF3F0013040F6FC73184200F0AA80F7
:10320000C0F30B030B43EB6121680B6823F0C00391
:10321000E269206A024313430B6021688B6823F440
:10322000034323F0FF032269E068024313438B60EA
:103230002168CB6823F0FF036269A069024313434E
:10324000CB602268136843F0010313600020206400
:10325000202384F83D30206384F83E00F8BD4FF40D
:10326000E0714148FEF7B9FF50E740F2C1113E4816
:10327000FEF7B3FF50E74FF4E1713B48FEF7ADFFB7
:1032800052E740F2C3113848FEF7A7FF54E74FF466
:10329000E2713548FEF7A1FF52E740F2C51132480E
:1032A000FEF79BFF51E74FF4E3712F48FEF795FFC0
:1032B00050E740F2C7112C48FEF78FFF4FE784F824
:1032C0003C302046FEF746FB4EE72C4B98428CBF25
:1032D0000023012366E74FF4967202FB07F2284DA4
:1032E000A5FB02529209013274E7A268BAB9461EE0
:1032F00003EB4307B6FBF7F60136C6F30B06B6FA47
:1033000086F6760946BBC2B9421E03EB4303B2FB05
:10331000F3F20132C2F30B0242F4004372E7461E9D
:1033200003EB830707EB8707B6FBF7F60136C6F317
:103330000B06B6FA86F67609E4E7421E03EB830332
:1033400003EB8303B2FBF3F20132C2F30B0242F44C
:10335000404357E7042355E7012353E70120704713
:1033600001207BE700540040D4B700087F1A060014
:10337000A08601007F841E0083DE1B43FF083D0002
:10338000D34D6210002800F03E8170B504460368FA
:103390009E4A934214D0A2F57842934210D002F58F
:1033A000806293420CD002F57842934208D002F535
:1033B000E052934204D040F21B119548FEF70DFFF6
:1033C000636843B1B3F5807F05D0B3F5007F02D0C9
:1033D000B3F5407F7FD1A3683BB1102B05D0202BE4
:1033E00003D0302B01D0B02B7BD1E368012B03D964
:1033F000032B01D0052B7AD12369B3F5007F01D0CF
:10340000002B7AD16369A3F5FA51824A914201D91E
:10341000022B78D1A3690BB1082B7AD1E369012B78
:103420007DD894F84130002B7FD0022284F84120CF
:103430002168CB6923F47B6323F00F03CB612368FE
:103440001A626369934200F09280E368002B74D1A2
:103450001025A368202B00D86D00012001F082F810
:103460002369B3F5007F6AD0B0FBF5F000EB800074
:1034700043006069B3FBF0F30533674AA2FB032303
:10348000C3F3C002C2EBD3035B0811029A1EFD2AEC
:103490006FD822690A43216813430B622168CB6904
:1034A00023F47B6323F00F036268A0680243E068A3
:1034B0000243A0690243134343F40063CB61236AD0
:1034C000012B5CD8236A012B5FD0002060640123AC
:1034D00084F8413070BD4FF48E714D48FEF77DFE8B
:1034E00079E740F21D114A48FEF777FE7DE74FF479
:1034F0008F714748FEF771FE7EE740F21F11444886
:10350000FEF76BFE7EE74FF490714148FEF765FED3
:1035100080E740F221113E48FEF75FFE7EE74FF460
:1035200091713B48FEF759FE7BE784F840303B4BF6
:1035300063632046FEF766FA77E7202589E7E368AC
:1035400053B1AD00B0FBF5F000EB800043006069C3
:10355000B3FBF0F3053390E7ED00B0FBF5F000EBC3
:10356000800043006069B3FBF0F3053385E7002179
:103570008CE7636C43F0100363640120AAE740F218
:10358000BD112348FEF729FE9CE7254B63632268A3
:10359000244B9A421FD04FF04022D36923F47B631F
:1035A00023F00F03D36122681E4B9A4215D04FF0CF
:1035B000402302221A6222681A4B9A4210D04FF01E
:1035C0004021CA6992B26368B3F5007F0AD0C3B9DB
:1035D0004FF4807608E0144ADFE7A3F58063E8E75C
:1035E0001149EEE74FF48076A068E568238B2B4302
:1035F0009BB203439BB23343134343F40063CB6159
:1036000063E70026F0E70120704700BF003001406B
:1036100044B80008C0CE0200CDCCCCCCA336000804
:10362000B53800080038004000340040704708B545
:10363000426A03681288DA60436A02334362438D48
:103640009BB2013B9BB24385438D9BB203B108BD46
:103650000268536823F0A0035360012380F84130CF
:10366000FFF7E4FFF3E7704708B50368DA68C36A59
:103670001A80C36A0233C362438E9BB2013B9BB282
:103680004386438E9BB203B108BD0268536823F0A2
:1036900060035360012380F84130FFF7E4FFF3E754
:1036A000704710B584B0044602689368039390F89D
:1036B0004130DBB2042B06D094F84130DBB2032B4F
:1036C0002CD004B010BD039B13F0010F03D053683E
:1036D00013F0400F1FD1039B13F0400FECD0236871
:1036E0005A6812F0200FE7D05A6822F060025A6040
:1036F000002301932368DA6801929B680193019B80
:10370000012384F84130636C43F002036364204674
:10371000FFF7C6FFD0E7FFF7A7FFDCE7039B13F037
:10372000020F04D023685B6813F0800F1DD1039B48
:1037300013F0080FC5D023685A6812F0200FC0D0CC
:103740005A6822F0A0025A600023029323689B6803
:103750000293029B012384F84130636C43F004031D
:1037600063642046FFF79CFFABE72046FFF75FFF4F
:10377000DDE7704708B5436A9A1C426202681B88FD
:10378000D360438D9BB2013B9BB24385438D9BB27B
:103790003BB90268536823F0A0035360438E9BB289
:1037A00003B108BD012380F84130FFF7E2FFF8E7DD
:1037B00008B50268154B9A421CD04FF04023DA68D6
:1037C000C36A991CC1621A80438E9BB2013B9BB2B3
:1037D0004386438E9BB263B902680C4B9A420CD06D
:1037E0004FF04022536823F060035360438D9BB237
:1037F0002BB108BDA3F58063E1E7054AF2E7012399
:1038000080F84130FFF7B5FFF3E700BF0038004014
:103810000034004008B5436A9A1C42621A88016865
:10382000134B994218D04FF04023DA60438D9BB27E
:10383000013B9BB24385438D9BB263B902680C4B3D
:103840009A420CD04FF04022536823F0A0035360FB
:10385000438E9BB22BB108BDA3F58063E5E7054A13
:10386000F2E7012380F84130FFF783FFF3E700BF61
:10387000003800400034004008B50368DA68C36AC5
:10388000991CC1621A80438E9BB2013B9BB2438656
:10389000438E9BB23BB90268536823F060035360C8
:1038A000438D9BB203B108BD012380F84130FFF77F
:1038B00060FFF8E710B586B0044603689A68059281
:1038C000704A93426FD04FF04022916804915B6838
:1038D0000393536802936368B3F5007F01D0002B14
:1038E00070D1059B13F0020F03D0039B13F0800FE0
:1038F0005CD1049B13F0010F03D0029B13F0400F27
:1039000058D1049B13F0400F24D0029B13F0200FDA
:1039100020D022685B4B9A4250D04FF0402253682F
:1039200023F0600353602268536823F0A0035360C0
:10393000002300932368DA6800929B680093009B41
:10394000012384F84130636C43F002036364204632
:10395000FFF7A6FE059B13F0080F22D0039B13F080
:10396000200F1ED02268536823F0A0035360226802
:10397000444B9A4224D04FF04022536823F0600316
:1039800053600023019323689B680193019B0123EB
:1039900084F84130636C43F0040363642046FFF70E
:1039A0007FFE06B010BDA2F580628EE72046FFF7CD
:1039B000E1FE9EE72046FFF7FBFEA2E7324AAEE7B4
:1039C000314ADAE7049B13F0020F03D0029B13F095
:1039D000800F4AD1059B13F0010F03D0039B13F016
:1039E000400F46D1059B13F0400F1CD0039B13F0F2
:1039F000200F18D02268536823F0600353602268B8
:103A0000204B9A4239D04FF04022536823F0A00354
:103A10005360012384F84130636C43F00203636414
:103A20002046FFF73DFE049B13F0080FB9D0029B20
:103A300013F0200FB5D02268124B9A421FD04FF0DE
:103A40004022536823F0A00353602268536823F098
:103A500060035360012384F84130636C43F0040336
:103A600063642046FFF71CFE9BE72046FFF7D2FE6B
:103A7000B0E72046FFF700FFB4E7034AC5E7024A74
:103A8000DFE700BF0038004000340040002800F0AD
:103A90005B8270B582B0044603680F2B39D8236867
:103AA00013F0010F4DD063682BB1B3F5803F02D006
:103AB000B3F5A02F32D1A54B9B6803F00C03042B68
:103AC00036D0A24B9B6803F00C03082B2BD0636805
:103AD000B3F5803F5FD0B3F5A02F62D09B4B1A683F
:103AE00022F480321A601A6822F480221A60636815
:103AF000002B60D0FEF740FD0546944B1B6813F485
:103B0000003F1ED1FEF738FD401B6428F5D9032085
:103B100021E2E8218E48FEF760FBC0E7ED218C48EA
:103B2000FEF75BFBC7E7894B5B6813F4800FCED0D1
:103B3000864B1B6813F4003F03D06368002B00F032
:103B40000582236813F0020F66D0E368012B41D889
:103B500023691F2B44D87D4B9B6813F00C0F4AD070
:103B60007A4B9B6803F00C03082B3FD0E368002BD3
:103B700076D0784B01221A60FEF7FEFC0546734BA7
:103B80001B6813F0020F62D1FEF7F6FC401B0228FF
:103B9000F5D90320DFE16D4A136843F480331360E5
:103BA000A5E76A4B1A6842F480221A601A6842F448
:103BB00080321A609BE7FEF7DFFC0546634B1B680B
:103BC00013F4003FBDD0FEF7D7FC401B6428F5D9A5
:103BD0000320C0E140F21F115D48FEF7FEFAB7E78F
:103BE0004FF490715A48FEF7F8FAB4E7574B5B6808
:103BF00013F4800FBAD1554B1B6813F0020F03D09A
:103C0000E368012B40F0A481504A136823F0F803C5
:103C1000216943EAC1031360236813F0080F49D0F8
:103C20006369012B2ED8636993B34B4B01221A6051
:103C3000FEF7A2FC0546454B5B6F13F0020F39D12E
:103C4000FEF79AFC401B0228F5D9032083E13F4A86
:103C5000136823F0F803216943EAC1031360DBE72B
:103C60003C4B00221A60FEF787FC0546374B1B6869
:103C700013F0020FD0D0FEF77FFC401B0228F5D9CD
:103C8000032068E14FF4B0713148FEF7A6FACAE7A5
:103C9000314B00221A60FEF76FFC05462B4B5B6F21
:103CA00013F0020F06D0FEF767FC401B0228F5D97F
:103CB000032050E1236813F0040F00F08880A3680C
:103CC000012B01D9052B12D1204B1B6C13F0805F07
:103CD00013D1002301931D4B1A6C42F080521A64D9
:103CE0001B6C03F080530193019B012506E04FF408
:103CF000C6711748FEF771FAE6E70025174B1B68F7
:103D000013F4807F2CD0A368012B3DD0052B41D02C
:103D10000E4B1A6F22F001021A671A6F22F004028A
:103D20001A67A368002B3FD0FEF726FC0646074B18
:103D30001B6F13F0020F48D1FEF71EFC801B41F2EF
:103D400088339842F3D9032005E100BF00380240D0
:103D5000B4B8000800004742800E4742007000409F
:103D6000844A136843F480731360FEF705FC06462B
:103D7000804B1B6813F4807FC5D1FEF7FDFB801BD1
:103D80000228F5D90320E6E07B4A136F43F00103D4
:103D90001367C6E7784B1A6F42F004021A671A6F6E
:103DA00042F001021A67BCE7FEF7E6FB0646724BDB
:103DB0001B6F13F0020F08D0FEF7DEFB801B41F2F1
:103DC00088339842F3D90320C5E0002D3AD1A36986
:103DD000022B3DD8A369002B00F0BC80664A926894
:103DE00002F00C02082A00F08F80022B78D1E369E0
:103DF00013B1B3F5800F31D1236A3F2B34D8636AF6
:103E0000C03BF02B36D8A36A022B05D0042B03D07D
:103E1000062B01D0082B33D1E36A023B0D2B35D89A
:103E2000564B00221A60FEF7A7FB0546524B1B6853
:103E300013F0007F30D0FEF79FFB401B0228F5D91E
:103E4000032088E04C4A136C23F080531364BEE7D0
:103E500040F2CF114A48FEF7C0F9BBE74FF4EC71CE
:103E60004748FEF7BAF9C7E740F2D9114448FEF7D0
:103E7000B4F9C4E74FF4ED714148FEF7AEF9C2E77B
:103E800040F2DB113E48FEF7A8F9C5E74FF4EE71AA
:103E90003B48FEF7A2F9C3E7E369226A1343626A6B
:103EA00043EA8213A26A5208013A43EA0243E26AF1
:103EB00043EA0263304A5360304B01221A60FEF736
:103EC0005BFB04462C4B1B6813F0007F06D1FEF70A
:103ED00053FB001B0228F5D903203CE000203AE008
:103EE000264B00221A60FEF747FB0446224B1B6854
:103EF00013F0007F06D0FEF73FFB001B0228F5D928
:103F0000032028E0002026E0012B26D01A4B5B6816
:103F100003F48001E269914221D103F03F02216A5A
:103F20008A421ED1616A47F6C0721A408A421AD18B
:103F300003F44032A16A8A4217D103F07063E26A47
:103F4000934214D1002006E001207047012002E0D6
:103F5000012000E0002002B070BD0120FBE701203D
:103F6000F9E70120F7E70120F5E70120F3E7012059
:103F7000F1E700BF00700040003802406000474297
:103F8000B4B80008F8B52F4B9B6803F00C03042B62
:103F900053D0082B53D12B4B5A6802F03F025B6879
:103FA00013F4800F28D0274B5B68C3F388135801A4
:103FB0000021C01A61F100018E0146EA9066870176
:103FC0003C1A66EB0105E90041EA5471E000C018B3
:103FD00041F100014B0243EAD05344022046194606
:103FE0000023FCF79DFD174B5B68C3F301430133CE
:103FF0005B00B0FBF3F023E0124B5B68C3F3881364
:104000005C010025E41A65F10005AE0146EA9466FC
:10401000A701381B66EB0501CC0044EA5074C500CB
:10402000E81844F100018B0243EA905384022046D1
:1040300019460023FCF774FDD5E7034800E0034868
:10404000F8BD00BF0038024000127A000024F400DE
:10405000002800F0F78070B50D4604460368013B68
:104060000E2B6BD8072D6FD87A4B1B6803F00F030C
:10407000AB4208D2EBB2774A1370136803F00F0318
:10408000AB4240F0E180236813F0020F29D013F017
:10409000040F04D0704A936843F4E053936023689C
:1040A00013F0080F04D06C4A936843F460439360A4
:1040B000A3687BB1802B0DD0902B0BD0A02B09D007
:1040C000B02B07D0C02B05D0D02B03D0E02B01D0D4
:1040D000F02B3FD1604A936823F0F003A1680B43B3
:1040E0009360236813F0010F4ED06368032B37D819
:1040F0006368012B3AD09A1E012A3ED9564A1268AB
:1041000012F0020F00F0A28053498A6822F00302E5
:1041100013438B60FEF730FA06464F4B9B6803F063
:104120000C036268B3EB820F2ED0FEF725FA801BDA
:1041300041F288339842F0D9032076E040F25121D1
:104140004648FEF74AF88DE740F252214348FEF711
:1041500044F889E740F275214048FEF73EF8B9E798
:104160004FF41F713D48FEF738F8C1E73A4A12682C
:1041700012F4003FC8D1012057E0374A126812F00C
:10418000007FC1D1012050E0324B1B6803F00F03C8
:10419000AB4207D9EAB22F4B1A701B6803F00F032A
:1041A000AB4255D1236813F0040F14D0E3685BB120
:1041B000B3F5805F08D0B3F5A05F05D0B3F5C05F5D
:1041C00002D0B3F5E05F31D1234A936823F4E05382
:1041D000E1680B439360236813F0080F15D023693F
:1041E0005BB1B3F5805F08D0B3F5A05F05D0B3F540
:1041F000C05F02D0B3F5E05F1ED1174A936823F485
:104200006043216943EAC1039360FFF7BBFE124B91
:104210009B68C3F30313124AD35CD840114B186058
:10422000114B1868FEF75CF9002070BD40F2BA210E
:104230000A48FDF7D2FFC7E740F2C1210748FDF762
:10424000CCFFDAE7012070470120EEE70120ECE720
:104250000120EAE7003C024000380240B4B8000800
:1042600068B600080000002008000020014B186814
:10427000704700BF0000002008B5FFF7F7FF044BB0
:104280009B68C3F38223034AD35CD84008BD00BFB8
:104290000038024078B6000830B583B004460368A1
:1042A000013B0E2B22D8236813F0050F52D0E36890
:1042B000023B052B20D8A368C03BF02B22D86368B3
:1042C000023B3D2B24D8A04B00221A60FEF754F984
:1042D00005469E4B1B6813F0006F1FD0FEF74CF98C
:1042E000431B022BF5D9032003B030BD40F6D91192
:1042F0009748FDF772FFD6E74FF41E619448FDF72B
:104300006CFFD8E740F6E1119148FDF766FFD6E76C
:1043100040F6E3118E48FDF760FFD4E76368A268BA
:1043200043EA8213E26843EA0273884AC2F884309F
:10433000854B01221A60FEF71FF90546834B1B6867
:1043400013F0006F06D1FEF717F9401B0228F5D9CC
:104350000320C9E7236813F0020F00F0CE80236921
:10436000B3F5807F79D0B3F5007F76D0794A934258
:1043700073D002F5803293426FD002F580329342BF
:104380006BD002F58032934267D002F580329342BF
:1043900063D002F5803293425FD002F580329342BF
:1043A0005BD002F58032934257D002F580329342BF
:1043B00053D002F5803293424FD002F580329342BF
:1043C0004BD002F58032934247D002F580329342BF
:1043D00043D002F5803293423FD002F580329342BF
:1043E0003BD002F58032934237D002F580329342BF
:1043F00033D002F5803293422FD002F580329342BF
:104400002BD002F58032934227D002F580329342BE
:1044100023D002F5803293421FD002F580329342BE
:104420001BD002F58032934217D002F580329342BE
:1044300013D002F5803293420FD002F580329342BE
:104440000BD002F58032934207D002F580329342BE
:1044500003D002F5803293421FD1002301933B4BDE
:104460001A6C42F080521A641B6C03F08053019363
:10447000019B394A136843F480731360FEF77CF89C
:104480000546354B1B6813F4807F0CD1FEF774F89A
:10449000431B022BF5D9032026E740F612212C48B6
:1044A000FDF79BFED9E7294B1B6F13F4407312D025
:1044B000226902F440729A420DD0244B1A6F22F402
:1044C0004072264901200860002008601A671B6FAF
:1044D00013F0010F1AD1236903F44072B2F5407F43
:1044E00025D01A4A936823F4F813936017490B6F89
:1044F0002269C2F30B0213430B67236813F0080F02
:1045000020D0227D164B1A600020EDE6FEF734F82D
:1045100005460E4B1B6F13F0020FDCD1FEF72CF893
:10452000401B41F288339842F3D90320DCE6074967
:104530008A6822F4F81223F0704323F44073134383
:104540008B60D3E70020CFE6680047420038024086
:1045500024B900080003020000700040400E4742EA
:10456000E0114742012801D000207047174B9B689B
:1045700013F4000303D0012B25D115487047134BCA
:104580005B6813F4800F15D0104BD3F8843003F020
:104590003F031048B0FBF3F00C4AD2F88430C3F369
:1045A000881300FB03F0D2F88430C3F30273B0FB2E
:1045B000F3F07047054BD3F8843003F03F0306480F
:1045C000B0FBF3F0E8E70020704700BF003802407E
:1045D0000080BB0000127A000024F4002DE9F041B5
:1045E0000646884617461D463468A46838EA040320
:1045F0000CBF01240024BC4237D0B5F1FF3FF3D0FB
:10460000FDF7BAFF069BC01AA84201D2002DEBD1DC
:104610003268536823F0E00353607368B3F5827F18
:104620000BD0B36AB3F5005F14D0012386F8513084
:10463000002386F85030032018E0B368B3F5004F2C
:1046400002D0B3F5806FECD13268136823F04003D9
:104650001360E6E73268136823F40053136032688E
:10466000136843F400531360DFE70020BDE8F081D6
:1046700030B585B00446164B1868164BA3FB0030C6
:10468000400D4FF47A7505FB00F003906368B3F5B5
:10469000827F0BD0039BBBB1039B013B0393236839
:1046A0009B6813F0800FF5D100200EE000920B46BE
:1046B000002280212046FFF791FF30B1636D43F067
:1046C00020036365032000E0002005B030BD00BF7B
:1046D00000000020819F5E16002800F0C88010B501
:1046E00004460368634A934214D0A2F57842934289
:1046F00010D002F5806293420CD002F578429342CA
:1047000008D002F5E052934204D04FF4A1715A4808
:10471000FDF763FD636813B1B3F5827F6BD1A368C6
:104720002BB1B3F5806F02D0B3F5004F69D1E368C8
:10473000B3F5006F01D0002B69D1A369B3F5007FF9
:1047400003D013B1B3F5802F67D1E3696BB1082BA8
:104750000BD0102B09D0182B07D0202B05D0282BDD
:1047600003D0302B01D0382B5DD1236A0BB1802BC5
:104770005FD1636A0BB1102B61D1636A33B92369CE
:104780000BB1022B61D16369012B64D80023A362B2
:1047900094F85130002B64D0022384F85130226801
:1047A000136823F0400313606368A2681343E26850
:1047B00013432269134362691343A26902F400722E
:1047C0001343E2691343226A1343A16A22680B432D
:1047D0001360638B03F00403616A22680B43536028
:1047E0002268D36923F40063D3610020606501234C
:1047F00084F8513010BD40F243111F48FDF7EDFC25
:104800008DE74FF4A2711C48FDF7E7FC8FE740F2FB
:1048100045111948FDF7E1FC8FE74FF4A3711648E5
:10482000FDF7DBFC91E740F247111348FDF7D5FC9B
:104830009BE74FF4A4711048FDF7CFFC99E740F2D5
:1048400049110D48FDF7C9FC97E74FF4A6710A48D6
:10485000FDF7C3FC97E740F24D110748FDF7BDFC9B
:1048600094E784F850302046FDF7F8FC94E70120E7
:10487000704700BF0030014098B900082DE9F043AF
:1048800083B00446894690461D46836813B1B3F54C
:10489000004F4BD194F85030012B00F0CA80012317
:1048A00084F85030FDF768FE074694F85160F6B280
:1048B000012E40F0AB80B9F1000F00F0A880B8F1F4
:1048C000000F00F0A480032384F8513000236365B7
:1048D000C4F83090A4F83480A4F83680A363A3878A
:1048E000E38763642364A368B3F5004F24D023688F
:1048F0001A6812F0400F03D11A6842F040021A60A1
:10490000E368B3F5006F1DD0636813B1B8F1010F10
:1049100053D1226B236812781A73236B01332363FC
:10492000E38E9BB2013B9BB2E38646E040F2F2216C
:104930004148FDF752FCADE72268136843F4804319
:104940001360D4E7636813B1B8F1010F16D1226B7D
:1049500023681288DA60236B02332363E38E9BB2F1
:10496000013B9BB2E38609E0FDF706FEC01BA842AF
:1049700002D3B5F1FF3F54D1002D54D0E38E9BB24A
:10498000002B2ED023689A6812F0020FECD0226B15
:104990001288DA60236B02332363E38E9BB2013B00
:1049A0009BB2E386EAE7FDF7E7FDC01BA84202D30E
:1049B000B5F1FF3F39D1002D39D0E38E9BB283B1E1
:1049C00023689A6812F0020FEDD0226B12781A73E6
:1049D000236B01332363E28E92B2013A92B2E286F4
:1049E000EBE73A4629462046FFF742FE08B120236E
:1049F0006365A36833B901932368DA6801929B6801
:104A00000193019B636D13B9002600E00226012388
:104A100084F85130002384F85030304603B0BDE8AC
:104A2000F0830326F3E70326F1E70326EFE70326E7
:104A3000EDE70226F1E700BF98B9000830B4036A39
:104A4000056A25F001050562846924F0F00444EA52
:104A5000021423F00A030B438461036230BC7047E5
:104A600030B4056A25F0100505628469036A24F4F0
:104A7000704444EA023423F0A00343EA0113846142
:104A8000036230BC7047836823F070030B4343F02C
:104A900007038360704700000368254A90420ED0E8
:104AA000B0F1804F0BD0A2F57C42904207D002F5C6
:104AB0008062904203D002F58062904203D123F0DD
:104AC00070034A6813431A4A90421AD0B0F1804FDB
:104AD00017D0A2F57C42904213D002F5806290423A
:104AE0000FD002F5806290420BD002F59A329042CC
:104AF00007D002F58062904203D002F580629042B6
:104B000003D123F44073CA68134323F080034A6936
:104B1000134303608B68C3620B688362044B984243
:104B200002D00123436170470B690363F9E700BFBB
:104B300000000140002863D010B504460368314AE4
:104B400093421FD0B3F1804F1CD0A2F57C42934218
:104B500018D002F58062934214D002F5806293422D
:104B600010D002F59A3293420CD002F58062934243
:104B700008D002F58062934204D04FF48971224834
:104B8000FDF72BFBA3683BB1102B05D0202B03D0E6
:104B9000402B01D0602B1BD123692BB1B3F5807F53
:104BA00002D0B3F5007F19D1A3690BB1802B1BD1C3
:104BB00094F83D30F3B1022384F83D30214651F89A
:104BC000040BFFF769FF012384F83D30002010BD7E
:104BD00040F213110C48FDF700FBDDE74FF48A713A
:104BE0000948FDF7FAFADFE740F215110648FDF72C
:104BF000F4FADDE784F83C302046FDF757FCDAE7AD
:104C0000012070470000014008BA000810B4846811
:104C100024F47F4442EA03220A432243826010BC08
:104C20007047000038B590F83C30012B00F0FE8151
:104C300004460D46012380F83C30022380F83D30C5
:104C40000B68B3F5805F11D0B3F5005F0ED06BB188
:104C5000102B0BD0202B09D0302B07D0402B05D0A8
:104C6000502B03D0602B01D0702B45D12268936864
:104C700023F47F4323F0770393602B68602B00F0CD
:104C800059816FD8402B00F093813BD9502B3ED1F6
:104C90002368A64A934217D0B3F1804F14D0A2F5EF
:104CA0007C42934210D002F5806293420CD002F510
:104CB0008062934208D002F59A32934204D041F2C6
:104CC000CA119B48FDF789FA6B68B3F5004F05D010
:104CD00023B1022B02D00A2B40F01B81EB680F2B73
:104CE00000F21D81EA6869682068FFF7A7FE50217D
:104CF0002068FFF7C8FE0AE041F28B118C48FDF7EF
:104D00006CFAB3E7202B0CD008D9302B09D0012343
:104D100084F83D30002084F83C0038BD0BB1102BE6
:104D2000F5D12368814A934217D0B3F1804F14D054
:104D3000A2F57C42934210D002F5806293420CD0DF
:104D400002F58062934208D002F59A32934204D071
:104D500041F2FD117648FDF740FA29682068FFF717
:104D600092FED4E7B3F5805F00F08280B3F5005F78
:104D70003DD123686D4A934213D0B3F1804F10D0D8
:104D8000A2F57C4293420CD002F58062934208D097
:104D900002F58062934204D041F2B6116448FDF7F7
:104DA0001CFAAB684BB1B3F5805F06D0B3F5005F7A
:104DB00003D0B3F5405F40F09A806B68B3F5004FC5
:104DC00005D023B1022B02D00A2B40F09680EB686D
:104DD0000F2B00F29880EB686A68A9682068FFF7DB
:104DE00015FF2268936843F4804393608FE7702B2C
:104DF0008DD123684D4A934217D0B3F1804F14D020
:104E0000A2F57C42934210D002F5806293420CD00E
:104E100002F58062934208D002F59A32934204D0A0
:104E200041F29E114248FDF7D8F9AB6843B1B3F5A2
:104E3000805F05D0B3F5005F02D0B3F5405F44D189
:104E40006B68B3F5004F04D01BB1022B01D00A2BC5
:104E500041D1EB680F2B44D8EB686A68A9682068D9
:104E6000FFF7D4FE2268936843F0770393604EE720
:104E700023682E4A93423FF44AAFB3F1804F3FF488
:104E800046AFA2F57C4293423FF441AF02F5806207
:104E900093423FF43CAF02F5806293423FF437AF58
:104EA00002F59A3293423FF432AF02F580629342A8
:104EB0003FF42DAF02F5806293423FF428AF41F2F8
:104EC00097111B48FDF789F921E741F2A111184814
:104ED000FDF783F9B4E741F2A2111548FDF77DF91A
:104EE000B7E741F2A3111248FDF777F9B4E741F2B1
:104EF000B9110F48FDF771F95FE741F2BA110C489B
:104F0000FDF76BF963E741F2BB110948FDF765F95D
:104F100061E741F2CD110648FDF75FF9DEE641F2A7
:104F2000CE110348FDF759F9DCE600BF000001404F
:104F300008BA000823683E4A934217D0B3F1804F65
:104F400014D0A2F57C42934210D002F580629342C5
:104F50000CD002F58062934208D002F59A32934257
:104F600004D041F2DA113348FDF737F96B68B3F535
:104F7000004F04D01BB1022B01D00A2B0CD1EB68DF
:104F80000F2B0FD8EA6869682068FFF769FD602178
:104F90002068FFF778FDBAE641F2DD112548FDF7FC
:104FA0001CF9ECE741F2DE112248FDF716F9E9E7BA
:104FB00023681F4A934217D0B3F1804F14D0A2F553
:104FC0007C42934210D002F5806293420CD002F5ED
:104FD0008062934208D002F59A32934204D041F2A3
:104FE000EA111448FDF7F9F86B68B3F5004F04D0E7
:104FF0001BB1022B01D00A2B0CD1EB680F2B0FD861
:10500000EA6869682068FFF719FD40212068FFF70A
:105010003AFD7CE641F2ED110648FDF7DEF8ECE7DB
:1050200041F2EE110348FDF7D8F8E9E7022074E6F3
:105030000000014008BA000838B504460D46036870
:10504000374A934213D0B3F1804F10D0A2F57C427F
:1050500093420CD002F58062934208D002F5806240
:10506000934204D040F264612E48FDF7B6F82B68F5
:105070006BB1102B0BD0202B09D0302B07D0402B3D
:1050800005D0502B03D0602B01D0702B39D16B6829
:10509000802B01D0002B3AD194F83C30012B3CD02E
:1050A000012384F83C30022384F83D30236859689A
:1050B000986821F070012A680A435A602368184AE8
:1050C000934212D0B3F1804F0FD0A2F57C429342AD
:1050D0000BD002F58062934207D002F580629342C2
:1050E00003D002F59A32934204D120F080006A681E
:1050F00010439860012384F83D30002084F83C0080
:1051000038BD40F265610748FDF767F8BFE740F238
:1051100066610448FDF761F8BEE70220F0E700BFD2
:105120000000014078BA0008DFF834D0002103E025
:105130000C4B5B58435004310B480C4B42189A42BD
:10514000F6D30B4A02E0002342F8043B094B9A4293
:10515000F9D3FDF76DF900F017F8FCF7E3FE70479F
:1051600000000220F8BE000800000020B80900205E
:10517000B8090020380E0020FEE70000014B186837
:10518000704700BF0C00002070B50D4E0D4D761B12
:10519000B61006D0002455F8043B01349847A642C7
:1051A000F9D1094E094D761B05F02AFFB61006D03D
:1051B000002455F8043B01349847A642F9D170BD4C
:1051C000ECBE0008ECBE0008F4BE0008ECBE00080F
:1051D000F0B4860746D0541E002A3CD0CAB203461B
:1051E00001E0013C37D303F8012B9D07F9D1032CD3
:1051F0002AD9CDB245EA05250F2C45EA054534D913
:10520000A4F1100222F00F0C03F1200716096744E5
:1052100003F1100242E9045542E902551032BA4244
:10522000F8D1721C14F00C0F03EB021204F00F06FD
:1052300013D0331F23F003030433134442F8045BF9
:105240009342FBD106F003042CB1CAB21C4403F80C
:10525000012B9C42FBD1F0BC704734461346002C16
:10526000F3D1F8E714460346C1E71A462646E0E7BD
:1052700070B51446002C9AB005462BDB1A464FF445
:10528000027300910491ADF80C3013D0013C1E9BC9
:1052900002944FF6FF7669460594ADF80E6000F073
:1052A0005DF8421C01DA8B232B60009B00221A70F0
:1052B0001AB070BD1E9B02944FF6FF7669460594A6
:1052C000ADF80E6000F04AF8431C01DA8B232B6026
:1052D0001AB070BD8B2303604FF0FF30F8E700BFBA
:1052E00070B5064C82B00E46154601460093206804
:1052F00032462B46FFF7BCFF02B070BD0C00002009
:10530000024B13B1024800F005B8704700000000DE
:1053100021530008002301461A46184601F084BDB7
:1053200038B5084B084D5B1B9C1007D0043B1D444F
:10533000013C55F804399847002CF9D1BDE83840B4
:1053400005F064BEF8BE0008F4BE0008704700BF58
:10535000704700BF704700BF704700BF2DE9F04F96
:10536000D5B08B4617460D93814602F0EFFE0368D9
:1053700016931846FBF744FEBBF80C3015901E063A
:1053800004D5DBF81030002B00F0F9870023CDE9BD
:105390002933CDE91833CDE91A33119317930893C4
:1053A0002BAB289398463B78CDF82CB000210022F7
:1053B000CDE91212002B00F052813C4604E014F8B3
:1053C000013F002B00F0A880252BF8D1E51B40F011
:1053D000A6802378002B00F04281002309938DF8EA
:1053E00083300693661C4FF0FF33647807932B25B8
:1053F0004FF0200A0136A4F120035A2B00F2AD80B1
:10540000DFE813F08602AB00AB008002AB00AB001C
:10541000AB006A00AB00AB00E401F501AB00EF01AB
:105420009502AB008F025B005B005B005B005B00E2
:105430005B005B005B005B00AB00AB00AB00AB0054
:10544000AB00AB00AB004001AB008701B8024001EC
:1054500040014001AB00AB00AB00AB007A02AB00F7
:10546000AB00F901AB00AB00AB009501AB006A02E9
:10547000AB00AB009E07AB00AB00AB00AB00AB00DA
:10548000AB00AB00AB004001AB008701BB014001AA
:10549000400140012C02BB018400AB004D02AB0077
:1054A0003502970756028400AB00950182009A07E7
:1054B000AB00AB007507AB008200A4F13003002203
:1054C00016F8014B02EB820203EB4202A4F1300317
:1054D000092BF5D909928EE7484602F037FE43685A
:1054E0001A931846FBF78CFD034648461C461B934F
:1054F00002F02CFE8268189234B1189B23B1189BDD
:105500001B78002B41F06D81347873E7069B34786B
:1055100043F0200306936DE7E51B00F0A080DDE972
:10552000293201332A44072BCDE92932C8F800700B
:10553000C8F8045006DC08F10808089A23782A44C1
:10554000089247E70B9928AA484603F0C1FC0028B7
:1055500041F0BD830DF1AC08EFE70E96002C7ED034
:1055600000231A464FF0010A8DF8EC408DF8833085
:105570000C9207920F9214921092CDF828A03BAF94
:10558000069B069913F0020318BF0AF1020A11F0F4
:10559000840B05D10999A1EB0A06002E00F3AD8317
:1055A0002A9D72B1299A013201350DF18300012142
:1055B000072ACDE92925C8E9000100F3DE8308F1B7
:1055C00008086BB1299B0133023521A90222072B60
:1055D000CDE92935C8E9001200F3DD8308F1080898
:1055E000BBF1800F00F09482079B0A9A9E1A002E4E
:1055F00000F3D382069BDE0500F12E82299B0A9AD6
:10560000C8F8007001331544072B2A95C8F8042008
:10561000299300F3528308F10808069B580705D523
:10562000099BA3EB0A04002C00F3C883DDE90832D0
:105630005245ACBF9B1853440893002D40F0E682BE
:10564000002329930C9B1BB10C99484602F07AFC6D
:105650000DF1AC080E9F3B78002B7FF4AEAE2A9B79
:10566000DDF82CB0002B41F08482BBF80C3013F035
:10567000400F089B18BF4FF0FF330893089855B0B0
:10568000BDE8F08F0D9B0E96073323F007031946F4
:10569000F1E80223CDE91223DDE912AB2BF000453E
:1056A0000D91B04B504629464FF0FF32FBF7B0FF4B
:1056B000002840F0F384AB4B504629464FF0FF32B0
:1056C000FBF788FF002840F0E984002200235046C1
:1056D0005946FBF775FF002841F05F809DF8832055
:1056E000A14FA24B069800214FF0030A20F0800042
:1056F0000C910690472CC8BF1F46CDF828A00791F3
:105700000F9114911091002A3FF43AAF0AF1010A67
:1057100036E70D9B0E9653F8042B8DF8EC200021F4
:105720000A464FF0010A0D938DF8831020E70D9D76
:105730000E9655F8047B00268DF88360002F00F04C
:105740002E86079A1346013300F0E087314638462B
:10575000FBF766FB0C90002801F02C810C9B079650
:10576000DA1B0A92334622EAE27A0D959DF88320ED
:105770000C930F9314931093C5E7069B0E969D060A
:1057800040F101810D9B073323F007031946F1E82F
:1057900002230D9192469B46002A73F10003C0F24A
:1057A0000381079B013300F05C85069B23F0800595
:1057B0005AEA0B0340F09082079B002B40F0938243
:1057C0000695002307930A9354AF18E10D9B53F8F5
:1057D000042B0992002A80F24584099A0D935242C3
:1057E0000992069B347843F00403069302E634786A
:1057F0008DF88350FEE5069B0E9643F0100306934A
:10580000069B990640F1FE830D9B073323F00703A7
:10581000F3E802AB0D93069B23F48065002300227E
:105820008DF88320079A1146013100F0CD8025F0D4
:10583000800106915AEA0B0140F04A82002A40F0AA
:105840001087002BBDD115F001030A9300F00E84E0
:1058500030238DF84F310DF24F17D0E03478069B8E
:10586000682C00F0858543F040030693C2E5069B53
:105870000E969E0600F1E984069BDD0600F1F78690
:10588000069B5C0600F1BE87069B980540F1EF86FB
:105890000D9B089953F8042B0D931170DAE63478B8
:1058A000069B6C2C00F05D8543F010030693A1E588
:1058B0000D9B0E9647F6300153F8042BADF884107B
:1058C00006990D932A4B179341F0020592464FF02B
:1058D000000B02237824A2E7069B0E9643F01005E6
:1058E000AF0640F180830D9B073323F00703F3E8F5
:1058F00002AB0D93012392E7069B347843F0080333
:10590000069377E5069B347843F00103069371E52F
:105910009DF88330002B7FF4F7AD34788DF883A0A9
:1059200068E5069B347843F08003069362E53246CF
:1059300012F8014B2A2C01F05182A4F13003092BFB
:10594000164698BF002201F21D8116F8014B02EBAA
:10595000820203EB4202A4F13003092BF5D907922E
:1059600049E500BFFFFFEF7FF4BB0008F8BB00086C
:1059700004BC0008069B0E9643F010030693069B9A
:105980009D063FF5FFAE069BD80640F14E840D9B69
:1059900053F8042B0D934FEAE27B5B46002A73F128
:1059A00000039246BFF6FDAE079A069DDAF1000AA3
:1059B00011464FF02D036BEB4B0B01318DF883300B
:1059C0004FF001037FF433AF012B00F08581022BF0
:1059D00054AF22D117984FEA1A130AF00F0143EA85
:1059E0000B734FEA1B129A469346435C07F8013D3E
:1059F0005AEA0B03EFD154ABDB1B06950A93002345
:105A000007990C930F93149310930A9B9DF883208E
:105A10008B42B8BF0B469A4675E64FEADA0242EA75
:105A20004B724FEADB010AF007038B469246303394
:105A30005AEA0B013A4607F8013DEED1E907DAD5FB
:105A4000302BD8D03023023A07F8013C54AB9B1AD4
:105A500006950A931746D2E7652C40F3EA80DDE904
:105A6000120100220023FBF7A1FD002800F0E081D5
:105A7000299BCF4AC8F80020013301350122072BAA
:105A8000CDE92935C8F8042000F3B48508F10808E9
:105A9000229B119A934280F2E082299B169AC8F8C1
:105AA0000020159AC8F8042001331544072B2A95C5
:105AB000299300F3498408F10808119B5C1E002C0F
:105AC0007FF7ABAD102C299BDFF8ECB240F3A38538
:105AD0005F461026DDF82CB005E008F10808103C00
:105AE000102C40F3978501331035072BCDE929356C
:105AF000C8E90076F1DD28AA5946484603F0E8F9DE
